:020000040800F2
:10000000D80B0020F1010008AB5C00089F1B000822
:10001000A95C0008291400082966000800000000F7
:10002000000000000000000000000000D560000893
:100030006114000800000000D15F0008036200089E
:100040000B0200080B0200080B0200080B0200085C
:100050000B0200080B0200080B0200080B0200084C
:1000600065140008911400080B0200080B02000838
:100070000B0200080B0200080B0200080B0200082C
:100080000B0200080B0200080B0200080B0200081C
:100090000B0200080B0200080B0200080B0200080C
:1000A0000B0200080B0200080B0200080B020008FC
:1000B0000B020008556200080B0200080B02000842
:1000C0000B0200080B0200080B0200080B020008DC
:1000D0000B0200086D6400080B0200080B02000808
:1000E0000B0200080B0200080B0200080B020008BC
:1000F0000B0200080B0200080B0200080B020008AC
:100100000B0200080B020008596300080B020008EC
:100110000B0200080B0200080B0200080B0200088B
:100120000B0200080B0200080B0200080B0200087B
:1001300000F002F800F04DF80AA090E8000C8244AC
:100140008344AAF10107DA4501D100F042F8AFF289
:10015000090EBAE80F0013F0010F18BFFB1A43F0A5
:100160000103184700A7000020A70000103A24BF91
:1001700078C878C1FAD8520724BF30C830C144BF0C
:1001800004680C607047000000230024002500264E
:10019000103A28BF78C1FBD8520728BF30C148BFEA
:1001A0000B607047662907F0B884642900F07680F8
:1001B000782900F0AF80002070471FB500F0DAFB0F
:1001C00004000020002106F093FEE0601FBD10B582
:1001D00010BD00F0E7FC1146FFF7EFFF06F0DCFA78
:1001E00000F005FD03B4FFF7F2FF03BC06F038FA98
:1001F0000948804709480047FEE7FEE7FEE7FEE7BB
:10020000FEE7FEE7FEE7FEE7FEE7FEE704480549F6
:10021000054A064B704700000562000831010008DE
:10022000D8050020D80B0020D8070020D8070020D0
:10023000704700000FB4044910B503AA029800F0FB
:1002400087FB10BC5DF814FB6C00002070B5044601
:1002500085690068C10601D5302600E02026C00768
:1002600007D070BDD4E9012130469047206A401C78
:1002700020626D1EF6D570BD70B5044685690078A4
:10028000C00707D170BDD4E9012120209047206A22
:10029000401C20626D1EF6D570BD00002DE9F041B6
:1002A0000646002410687529314616A510D0AFF314
:1002B0000080002802DA404213A507E031688A076F
:1002C00001D512A502E0490704D511A5012401E0DA
:1002D000AFF3008000210A2206F1240709E0B0FBF9
:1002E000F2FCB0FBF2F302FB1C00303078541846ED
:1002F000491C0028F3D123462A463046BDE8F04188
:1003000000F0BFB8000000002D0000002B0000002E
:100310002000000070B504460D4621461068AFF37A
:1003200000802188090502D50F4A7A4402E00E4A6E
:100330007A440E32002104F1240305E000F00F0698
:100340000009965D5E54491C0028F7D120780023EF
:10035000000704D5702D02D009B1022311322046C6
:10036000BDE8704000F08DB8E2A300002DE9F04731
:100370004FF0000A89460446C0F820A02046E168F4
:100380008847002876D0252806D0D4E90121904757
:10039000206A401C2062F1E7E1682046002588477A
:1003A000C4F81CA006460027C4F818A02A2E09D0BD
:1003B000304606F04EF938B304EB8708303EC8F8F3
:1003C000186019E059F8041B204604EB870291617C
:1003D000E1688847012F064618D1E069002820DA35
:1003E00025F020051DE0D8F8180000EB800006EB92
:1003F00040003038C8F818002046E16888470646B3
:1004000006F027F90028EED1012F0AD02E2E08D1B0
:100410002046E16888477F1C0646022F45F02005EC
:10042000C4DBA069002803DA404245F00105A06161
:10043000E80701D025F01005B6B1A6F14100192852
:1004400002D8203645F400654A46314620462560EC
:100450004D46FFF7A7FE58B1012806D0ED1D25F047
:10046000070000F1080989E704E005F1040985E7C0
:1004700030468AE7206ABDE8F087704770477047CA
:1004800070472DE9F0470D4699469246044600F123
:1004900024080168880604D5E06921F01001216074
:1004A00000E00120A84201DD471B00E00027A16910
:1004B0007A1902EB0900081AA0612078C00602D45C
:1004C0002046FFF7C3FE002608E0D4E901211AF810
:1004D00006009047206A401C761C20624E45F4DBE3
:1004E0002078C0060AD52046FFF7B0FE06E0D4E922
:1004F000012130209047206A401C2062381EA7F15D
:100500000107F4DC07E0D4E9012118F80500904761
:10051000206A401C2062281EA5F10105F3DC20465C
:10052000FFF7AAFE2078000602D50220BDE8F0877A
:100530000120FBE770472DE9FF4F0C461E464FF0A8
:10054000FF378BB0D2E90001DDF860800A908A465F
:10055000C1F30A5505B93D46002108464FF0000099
:10056000BAF1000F00F4400005DA00EB80004FF410
:10057000400101EA50004FEA9059B9F1010F00DD46
:10058000B9460A9850EA4A000ED044F61050A5F237
:10059000FF3545432F14B8F1000F1ED07542291EB8
:1005A0001EDDC9F100021CE0B8F1010F4FF00000A0
:1005B00001D0302103E0F24305E02154401CB04259
:1005C000FBDB30460022002121540B99C1F8088042
:1005D000C1E900200FB0BDE8F08FBD1B6D1CDEE748
:1005E0004A4600DA694206A800F066FA06AB93E8CC
:1005F000070003AB83E8070050460A9900F03EFB72
:100600008DE80700A0F500501F3800900398002DDA
:1006100009DD42F21F014A46084403A903906846D7
:1006200000F09DFD08E0A0F500504A461F3803A9E0
:100630000390684600F0A7FD8DE807000004000C59
:1006400003D04FF0FF30410800E01046B8F1000F32
:1006500003D00022009215461EE0751E05D400F05E
:100660008DF9303262556D1EF9D5B346012208432B
:1006700002D000227F1C04E02078302801D1002223
:100680007F1E002A099786D01DE0112D07DA00F0A1
:1006900075F9303262556D1C50EA0102F5D10843FC
:1006A00002D00098C8B10EE00021681E05E0235C6E
:1006B000625C63542254401E491C8142F7DBAB4606
:1006C000A81B401E0990002004F80B000B98099A03
:1006D000C0F80880C0E9002B7CE711264FF0000825
:1006E00059E72DE9F04F88460446D21D22F0070154
:1006F00091B0D1E90001CDE90A0105F096FF02466B
:100700000B98C00F01D02D2007E02068810701D58C
:100710002B2002E0202101EAC000032A099001D029
:10072000072A05DB03464146204600F085F90BE128
:100730002078800601D5E06900E00620B8F1650F59
:10074000814606D0B8F1660F18D0B8F1670F70D1A6
:1007500031E00020B9F1110F009001DB112301E01D
:1007600009F101030AAA01A90CA8FFF7E4FEDDE9DB
:100770000C70002609F10105834647E001204B4635
:1007800000904FF000470AAA01A90CA8FFF7D3FE7A
:10079000DDE90DB00C995D46002610B909F10100A4
:1007A0000D18B9EB050003D4C0F1FF3609F10105BE
:1007B000A5EB09002BE0B9F1010F01DA4FF00109B7
:1007C0000020B9F1110F0090484601DD112300E02F
:1007D00003460AAA01A90CA8FFF7ADFEDDE90C70DB
:1007E0004D4600268346207800070AD4AB4500DA40
:1007F0005D4601A8012D04DD411911F8011C3029C5
:1008000007D04F4502DA17F1040F04DA01208246BF
:100810000FE06D1EEEE7002F02DCED1B3E4403E00F
:10082000781CA84200DD7D1CB81B00F1010A4FF0C6
:1008300000472078000703D4AA4501DB4FF0FF3AB8
:100840000021B7F1004F0DF143088DF8431024D07B
:1008500002202B23002F01DA7F422D230A21021EC2
:10086000A0F1010000DC5FB197FBF1FC97FBF1F216
:1008700001FB1C7C17460CF1300C08F801CDEEE7AB
:10088000A8F1010003702188090501D5452100E088
:100890006521A0F1010800F8011C09980FA9A1EB3E
:1008A0000807FF1D00B10120411901EBEA70A169A1
:1008B0003844081A401EA0612078C00602D42046A1
:1008C000FFF7C4FC099828B1D4E901219047206AB8
:1008D000401C20622078C00622D52046FFF7B6FCD7
:1008E0001EE0002E04DBB34502DD01A8805D00E0C0
:1008F0003020D4E901219047206A401C2062761CF8
:10090000AAF101005FEA000A0AD100F033F8C068DA
:100910000168405CD4E901219047206A401C2062B4
:10092000281EA5F10105DCDC07E0D4E9012118F857
:10093000010B9047206A401C2062381EA7F1010776
:10094000F3DC2046FFF798FC032011B043E60000DB
:10095000074B70B50D467B4400F05BF80446284613
:1009600000F018F910B14FF0FF3070BD204670BD97
:10097000AF5D0000004870479805002030B5B0F129
:100980000A024FEA900E71F100034EEA817EB0EB4D
:100990000E0061EB91014FEA101E4EEA017E10EB52
:1009A0000E0041EB11114FEA102E4EEA016E10EBD2
:1009B0000E0041EB11214FEA104E4EEA014E10EBB2
:1009C0000E0041EB1141401841F100014FEAD00007
:1009D00040EA41704FEAD10110EB80054FEA8104F3
:1009E00044EA907444EB01046D1944EB0404521B77
:1009F000A3414FF0000348BF0A3200D530BD401C70
:100A000041F1000130BD000001694A1C0261087813
:100A1000704700B58FB0CDE901310021059105493E
:100A20007944CDE9031011466846FFF79FFC0FB0EB
:100A300000BD0000E5FFFFFF2DE9F0411F46044621
:100A400003260168072A01F4006004DB08B116A53B
:100A500005E016A503E008B115A500E015A521F0F5
:100A600010002060A069C01EA0610FB1401EA061EF
:100A70002046FFF7EBFB4FB1D4E901213846904700
:100A8000206A401C2062C01C206206E0206AFAE74F
:100A9000D4E9012115F8010B9047761EF8D22046C3
:100AA000FFF7EAFBBDE8F0814E414E006E616E003B
:100AB000494E4600696E66002DE9F04781461646AC
:100AC0008AB0334878440DC88DE80D00304878442A
:100AD000801C03AC0DC884E80D0041F69B3008442F
:100AE000372190FBF1F290FBF1F5A5F1800501FBB8
:100AF00012041B3C02D56442012000E00020DFF814
:100B000090A080460027FA44AAF1BE0A0DE0E00753
:100B100009D03246684607EB47010AEB810100F035
:100B200032FB8DE8070064107F1C002CEFD1184FBA
:100B30007F44AC3F18E0E80714D007EB04100DF138
:100B4000180A90E80E008AE80E00C068F04201D151
:100B500098190890324606A903A800F014FB03ABCD
:100B600083E807006D10641C002DE4D1324669460D
:100B7000B8F1000F03A802D000F0F1FA01E000F094
:100B800002FBC9E90001C9F808200AB0BDE8F087F6
:100B9000EC9C0000007B00F080007047004870472C
:100BA000780500207546FFF7F9FFAE460500694657
:100BB000534620F00700854618B020B5FFF726FB06
:100BC000BDE820404FF000064FF000074FF000084E
:100BD0004FF0000B21F00701AC46ACE8C009ACE8CF
:100BE000C009ACE8C009ACE8C0098D4670470446AE
:100BF000AFF300802046FFF7F5FA00004FF0013C0C
:100C000050F8042B51F8043B9A4221D1A2EB0C037B
:100C1000934313EACC1317D150F8042B51F8043B3B
:100C20009A4215D1A2EB0C03934313EACC130BD1D8
:100C300050F8042B51F8043B9A4209D1A2EB0C0363
:100C4000934313EACC13DBD04FF00000704700BF92
:100C5000D01A01BAB1FA81F101F0180122FA01F0BB
:100C6000CB40C1F12001DBB2C0B2C01A2CFA01F3B3
:100C7000D11A914311EAC311E6D170475FEA400CE3
:100C800008BF91F0000F4FEA8C234FEAC12243EADC
:100C900051514FEA1C5018BF00F5F0404FEA3000A8
:100CA00018BF41F000415FEA6C5C00F02980BCF1A4
:100CB000FF3F08BF40F080407047130C06BF12048E
:100CC0004FF0100C4FF0000C130E04BF12020CF189
:100CD000080C130F04BF12010CF1040C930F04BF96
:100CE00092000CF1020CD30F04BF52000CF1010C66
:100CF00011464FF00002A0F11F00A0EB0C0070475E
:100D000011F0004F08BF704731F000413FF4D5AFFC
:100D10000B0C06BF09044FF0100C4FF0000C0B0E2B
:100D200004BF09020CF1080C0B0F04BF09010CF100
:100D3000040C8B0F04BF89000CF1020CCB0F04BF15
:100D400049000CF1010CCCF12003A0EB0C0022FABD
:100D500003F302FA0CF241EA030100F101007047CB
:100D600020F07F4C80EA030023F07F47ACEB0703C1
:100D700003F57C5300F0004003F1FF032DE98049A7
:100D80004FEA154B09B44FEA144325EA0B4E24EA07
:100D900003480FF2042606EB132749083E785FEA62
:100DA000320203FB0667C7F5000707FB06F64FEAAA
:100DB00054374FEAD64606F1020607FB066CCCF123
:100DC000005C4FEA1C472CEA074C07FB06F40CFBBF
:100DD00006F504EB15464FEA961634BF00204FF097
:100DE00000404FEAD13706FB07FC4FEA1C4C0CFBD6
:100DF0000BF7D21B03FB0CF761EB07010CFB0EF7A3
:100E0000B0EB074072EB17420CFB08F734BFA2EBC4
:100E10000742B2EB074261EB17414FEA0C444FEA3D
:100E2000910706FB07FC4FEA1C4C0CFB0BF7B0EBE1
:100E3000C74072EB573203FB0CF734BFA2EBC7423B
:100E4000B2EBC74261EB57310CFB0EF7B0EBC700BA
:100E500072EB57720CFB08F734BFA2EBC702B2EB80
:100E6000C70261EB5771039F4FEA816141EA92111A
:100E700004EBCC044FEAD1374FEA826206FB07FC51
:100E800042EA90124FEA80604FEA1C4C0CFB0BF7D1
:100E9000D21B03FB0CF761EB07010CFB0EF7B0EB69
:100EA000074072EB17420CFB08F734BFA2EB074276
:100EB000B2EB074261EB17414FEA8C554FEA9107BD
:100EC00004EB9C2406FB07FC4FEA1C4C0CFB0BF7C5
:100ED000B0EBC74072EB573203FB0CF734BFA2EB09
:100EE000C742B2EBC74261EB57310CFB0EF7B0EBD8
:100EF000C70072EB57720CFB08F734BFA2EBC702B6
:100F0000B2EBC70261EB577115EB4C254FEA8161DB
:100F100041EA92114FEA82624FEAD13742EA9012D7
:100F200006FB07FC44F100044FEA80604FEA1C4CCA
:100F30000CFB0BF7D21B03FB0CF761EB07010CFB5F
:100F40000EF7B0EB074072EB17420CFB08F734BF0B
:100F5000A2EB0742B2EB074261EB174115EB1C1500
:100F60004FEA813141EA92414FEA823242EA9042AD
:100F70004FEA80304FEA0C7644F1000448EA03431C
:100F80004EEA0B484FF0000EB2EB080C71EB030772
:100F900024BF624639464EEB0E0E4FF0000B001890
:100FA000524149414BEB0B0BB2EB080C71EB0307C1
:100FB0007BF1000B24BF624639464EEB0E0E4FF01C
:100FC000000B0018524149414BEB0B0BB2EB080CE4
:100FD00071EB03077BF1000B24BF624639464EEBF1
:100FE0000E0E51EA020718BF46F0010616EB0E7608
:100FF00055F1000254F1000103D5BDE88901BDE8B7
:101000000088BDE88901BDE80048B619524141EBAE
:101010000101A3F10103704780807F7E7D7C7B7A94
:101020007978777676757473727171706F6E6E6D94
:101030006C6C6B6A6A69686867666665646463633A
:1010400062616160605F5F5E5E5D5D5C5C5B5B5AC0
:101050005A5959585857575656555555545453532D
:1010600052525251515050504F4F4F4E4E4D4D4D88
:101070004C4C4C4B4B4B4A4A4A49494948484847D3
:101080004747474646464545454444444443434311
:101090004342424242414141002B26D4770021D0B5
:1010A0001CB54FEA370703B44FF010004FF01001A2
:1010B0004FF000000FBCBDE810400BF1010BBBF17D
:1010C000010F08BF5FEA170722BF12F1010211F1F9
:1010D00001014FF0004143F1000300F0004043EAFA
:1010E00000007047F9D35708DAE746EA064613F1DD
:1010F000400F4FEA16461FDD13F1200FDFBF1643E6
:101100000A46002120335B42C8D0C3F1200746EADB
:10111000064602FA07F74FEA164646EA0706C3F103
:10112000200722FA03F201FA07F721FA03F14FF040
:10113000000342EA0702B1E746EA020646EA06462B
:101140004FEA164646EA0106BCBF46EA0646360C9A
:101150004FF000034FF000024FF000019EE72DE931
:10116000C048934630B491E8380007C831EA400CD3
:1011700048BF34EA430C03D5FFF7F2FDFFF78CFFBD
:10118000F0BCBDE800882DE9C048934630B491E832
:10119000380007C810F0804F08BF13F0804F03D10C
:1011A00000F005F8FFF778FFF0BCBDE8008820F0FC
:1011B0007F4780EA030023F07F4C07EB0C03A3F585
:1011C0007C5300F00040A3F1FE0392F0000F00F00A
:1011D000B38095F0000F00F077802DE901494FEAC8
:1011E00011404FEA144621EA004800FB06FC24EABD
:1011F000064708FB06F607FB08F800FB07F718EBA5
:1012000006484CEB164C4FEA124B18EB07484FEAD6
:1012100015464CEB174022EA0B4E0BFB06FC25EA69
:1012200006470EFB06F607FB0EFE0BFB07F71EEB51
:10123000064E4CEB164C4FF000061EEB074E4CEBE7
:10124000174B18EB0B0840F1000018EB0E0B58EB96
:10125000000840F100008F1A4FF000013CBFC94365
:10126000661B14BFB5EB040C00213CBFC943F61B41
:101270004FEA17444EEA8E0E27EA04454FEA1C4710
:1012800004FB07622CEA074C05FB07F70CFB05F68D
:1012900004FB0CFC16EB074642EB174216EB0C4620
:1012A00042EB1C421BEB060658EB0202414146EAA8
:1012B0009E0601D5BDE80189B619524141EB0101F5
:1012C000A3F10103BDE801894FEA14454FEA114734
:1012D00024EA054621EA074C05FB07F406FB07F75D
:1012E0000CFB06F105FB0CFC11EB074144EB17442A
:1012F0004FEA124711EB0C4144EB1C4422EA074C25
:1013000005FB07F206FB07F70CFB06F605FB0CFCDA
:1013100016EB074642EB174216EB0C4642EB1C4518
:101320006A1854F1000148BF7047B619524141EBA9
:101330000101A3F10103704795F0000F37D04FEA88
:1013400011424FEA144721EA024624EA074C02FB05
:1013500007F106FB07F70CFB06F402FB0CFC14EB91
:10136000074441EB17414FEA154714EB0C4441EB9E
:101370001C4125EA074C02FB07F506FB07F70CFBAF
:1013800006F602FB0CFC16EB074645EB174516EB81
:101390000C4645EB1C42121951F1000148BF704741
:1013A000B619524141EB0101A3F1010370474FEA25
:1013B00014454FEA114724EA054621EA074C05FB8C
:1013C00007F106FB07F70CFB06F24FF0000605FBE2
:1013D0000CFC12EB074241EB174112EB0C4251EBB4
:1013E0001C4148BF7047921841EB0101A3F1010372
:1013F0007047000038B50121802004F007FE04206A
:10140000ADF8000010208DF8030003208DF80200D5
:10141000044C6946204600F035FB0421204600F0CC
:10142000BCFB38BD001C0140FEE7000010B500F019
:10143000C1F80849086005F028FF02460B46064837
:10144000064905F09DFD05F069FDBDE81040014627
:1014500006F0F0B984000020DBF97E6AB8A8AB4141
:101460007047000010B50A2005F01AF9042106485B
:1014700000F08AFB18B905480178491C0170BDE8E5
:101480001040042000F056B8001401408C000020E9
:1014900010B50A2005F004F90821064800F074FB95
:1014A00018B905480178491E0170BDE810400820B0
:1014B00000F040B8001401408C0000203EB500F060
:1014C0006FFB0121084604F0A1FD0221032000F07A
:1014D000C5FA0420019000208DF808000C208DF83A
:1014E000090001248DF80A4001A800F029F8032121
:1014F000084600F0B3FA0825019501A800F020F88D
:101500008DF8005002258DF8015003208DF802005F
:101510008DF80340684604F0C9FB09208DF80000EF
:101520008DF801508DF802508DF80340684604F0A4
:10153000BDFB3EBD01490860704700001404014036
:1015400030B51B4A83790168002B2AD013688B437E
:101550001360111D0B680468A3430B6001791144EB
:101560000B68046823430B60114C0834216803683E
:1015700099432160231D19680568A94319604179C1
:10158000102905D011440A68006802430A6030BD82
:1015900021680268114321601968006801431960DD
:1015A00030BD0079104402688A43026030BD0000FB
:1015B0000004014010B5002806D001280FD00228F1
:1015C00018D003282BD120E0002000F0ADF9C0F3A3
:1015D0000B04012000F0A8F940EA04411FE00220BA
:1015E00000F0A2F9C0F30B04032000F09DF940EADB
:1015F000044114E0042000F097F9C0F30B04052027
:1016000000F092F940EA044109E0062000F08CF96C
:10161000C0F30B04072000F087F940EA044121F0F1
:10162000704010BD10B500F06CF800F089F87E2015
:1016300000F07AF9A0F5A841493901D0012010BD88
:10164000FB223421082004F0A1FDFB2234210920D3
:1016500004F09CFDFB2234210A2004F097FDFB22BC
:1016600034210B2004F092FD1B220021102004F0F5
:101670008DFD1B220021112004F088FD1B2200217A
:10168000122004F083FD1B220021132004F07EFDB4
:1016900002222021142004F079FD022220211520AD
:1016A00004F074FD02222021162004F06FFD0222B6
:1016B0002021172004F06AFD002278211E2004F06A
:1016C00065FD002278211F2004F060FD00227821B2
:1016D000202004F05BFD00227821212004F056FD3B
:1016E00000221146192004F051FD0D22C2211B20B9
:1016F00004F04CFD012214211A2004F047FD0020C3
:1017000010BD704770B50A4C002525600948016876
:1017100021F470410160016841F44051016065604D
:1017200000F00AF80120206000F006F8256070BD86
:10173000A8812142040C0140022004F0CBBF00002C
:1017400038B50121082004F061FC4FF44064ADF885
:10175000004010208DF8030003208DF80200054D95
:101760006946284600F08EF92146284600F015FA11
:1017700038BD0000000C014070B50A4C0025256002
:101780000948016821F470410160016841F4405149
:10179000016001266660FFF7CFFF2660FFF7CCFFF0
:1017A000256070BDA8812142040C01402DE9F0475D
:1017B000814600241548016821F4704101600168E8
:1017C00041F4004101600025114E00274FF001084F
:1017D000C6F8A871FFF7B0FFC6F8A8816006040E2E
:1017E000D6F82C0108B1641CE4B2FFF7A5FF6D1C0C
:1017F000EDB2082DECD3B9F1000F04D0FFF782FF52
:101800002046BDE8F087FFF7B7FFF9E7040C014079
:10181000008021422DE9F04105461148016821F47C
:1018200070410160016841F4405101600D4E4FF07C
:101830000008C6F8A88100240127E809C6F8AC0111
:101840006806050EC6F8A871FFF776FFC6F8A881EE
:10185000FFF772FF641CE4B2082CEED3BDE8F08100
:10186000040C01400080214270B50A48016821F44F
:1018700070410160016841F440510160064C012053
:1018800060602060FFF758FF00256560FFF754FF98
:10189000256070BD040C0140A881214210B50B48A1
:1018A000016821F470410160016841F44051016018
:1018B000074C002020606060FFF73EFF01202060A1
:1018C0006060BDE81040FFF737BF0000040C014026
:1018D000A881214270B500241148016821F47041AB
:1018E0000160016841F4004101600E4D0126C5F818
:1018F000AC61FFF721FFC5F8A861FFF71DFF07E006
:10190000641CE4B2FA2C03D9FFF7C8FF012070BDB4
:10191000D5F82C010028F3D1C5F8A80170BD00004E
:10192000040C01400080214270B50446FFF79CFF83
:101930005420FFF76FFFFFF7CDFF2046FFF76AFF48
:10194000FFF7C8FFFFF790FF5520FFF763FFFFF792
:10195000C1FF0120FFF72AFF05020020FFF726FF45
:1019600040EA0504FFF79AFF204670BD8000A0F111
:10197000C040002904D0016841F0010101607047B6
:101980000168024A1140016070470000FEFF0F002D
:1019900010B5D0E901121143D0E903231A431143D2
:1019A0004269114382691143C2691143026A1143BA
:1019B000426A1143826A1143C26A1143026B1143A6
:1019C00002689200A2F1C04211608168082907D123
:1019D00001688900A1F1C0410A6842F040020A6032
:1019E000416BD1E9002342EA03128B688C891B0208
:1019F00043EA04431A430B8A42EA03520B7D896986
:101A000042EA03620A430168491C8900A1F1C0410E
:101A10000A60C16AB1F5804F08D000686FF070416C
:101A20008000A0F1C040C0F8041110BD816BD1E965
:101A3000002342EA03128B680C8A1B0243EA045318
:101A40001A430B7D896942EA036200680A438000F9
:101A5000A0F1C040C0F8042110BD000010B58A07F5
:101A6000120F0F23934021F00304054921448C6891
:101A70009C438C608B68904003438B6010BD0000DA
:101A8000000001402DE9F0410022CC7804F00F0362
:101A9000E40601D58C7823430C784FF00F0714F03F
:101AA000FF0F4FF0010C1CD005680CFA02F40E88F1
:101AB0002640A64211D1960007FA06F825EA080545
:101AC00003FA06F848EA0505CE78282E02D0482EFB
:101AD00002D002E0446100E00461521C082AE4D311
:101AE00005600A88FF2A1ED94568002202F108060F
:101AF0000CFA06F40E882640A64210D1960007FA8A
:101B000006F825EA080503FA06F848EA0505CE783E
:101B1000282E00D14461CE78482E00D10461521C99
:101B2000082AE3D34560BDE8F0810000F0B5154C0C
:101B3000002801DAE36900E06368C0F30346420D60
:101B4000120185B2C0F301579540032F07D0C2029E
:101B50000CD50322B240934343F0706209E023F0B6
:101B60007062636823F07063636002E0AB4343F02C
:101B7000706201B12A43002801DAE261F0BD6260BF
:101B8000F0BD0000000001400246002092680A42B9
:101B900000D0012070474161704701617047FEE746
:101BA000F8B50121A82004F031FA0825ADF800505D
:101BB00048248DF8034069460F48FFF763FF04206F
:101BC000ADF800008DF803400C4E69463046FFF733
:101BD00059FFADF800508DF8034069463046FFF7D5
:101BE00051FF8021ADF800108DF803406946304662
:101BF000FFF748FFF8BD0000001C01400014014041
:101C00002DE9F04306460024174F38887D88454368
:101C1000B888A0F5D041043902D1B879012807D09D
:101C20000021084603F0A4FD04F010F80F4916E067
:101C30000020B8714FF02A09A7F80A904FF02B083E
:101C4000A7F80C800021084603F092FD0120B8712E
:101C5000A7F80A80A7F80C90E6E70E80641CAC4257
:101C6000FBD3BDE8F0830000680500200008006C8D
:101C70002DE9F04F4D492A232B24898845F2105C29
:101C80004FF430584FF428594FF448754FF0F00A8C
:101C900049F2413B4FF4A07745F210364FF4F07211
:101CA000002810D041484FF0010E80F806E0078070
:101CB000A0F802A0594501D0B14240D12C250581A0
:101CC000438184815CE039484FF0000E80F806E0E3
:101CD000A0F800A04780594506D0A1F5D04ABAF136
:101CE000040A01D0B1420CD12C25058143818481A5
:101CF000A1F5D043043B01D0B14249D107804280D5
:101D000046E0614509D1A0F80880A0F80A904FF498
:101D10002C518181028045803AE0A1F5C856633E8E
:101D200006D02221018120214181212181812FE0C2
:101D30002C210181448183810280458028E0A1F526
:101D4000D04ABAF1040A0BD061450ED1A0F8088040
:101D5000A0F80A904FF42C538381058042800FE055
:101D60002C250581448183810AE0A1F5C85CBCF182
:101D7000630C12D0222303812123438120238381FA
:101D8000A1F5D043043B01D0B14201D1028047808C
:101D9000BDE8F04F002003F0DFBB4FF02C0CA0F8A3
:101DA00008C04381848105804280E9E768050020FE
:101DB0002DE9F04103460C4690464B4F220A384627
:101DC000B9881D0A4089A1F51346413E18D0A1F5F6
:101DD000A646103E14D0B6F5007623D03D46A1F5B8
:101DE000C85CAE792D88ED1A6D1EBCF1630C35D040
:101DF000A1F5D04CBCF1040C51D0012E64D064E0AC
:101E000003F01EFF284603F015FFD8B203F012FFBF
:101E1000B88903F015FF104603F00CFFE0B203F0A1
:101E200009FF59E003F00CFF284603F003FF78890F
:101E3000401C80B203F004FFD8B203F0FBFEB88967
:101E400003F0FEFE104603F0F5FEB889401C80B298
:101E500003F0F6FEE0B203F0EDFE3DE006B9ABB2F2
:101E600003F0EEFE1D0A284603F0E4FED8B203F0AC
:101E7000E1FE284603F0DEFED8B203F0DBFEB889AF
:101E800003F0DEFE104603F0D5FEE0B203F0D2FE12
:101E9000104603F0CFFEE0B203F0CCFE1CE0012EB2
:101EA00000D1ABB203F0CCFE180A03F0C3FED8B2E7
:101EB00003F0C0FEB88903F0C3FE104603F0BAFE7B
:101EC000E0B203F0B7FE07E0ABB2194603F0C8FE7C
:101ED000B889214603F0C4FE044938890880881C6B
:101EE000A0F80080BDE8F08168050020FE07006CC6
:101EF0002DE9F04F9FB001210D02284604F06AF849
:101F000001214FF4B47004F081F84FF00108ADF8EE
:101F1000788010278DF87B7003248DF87A401EA9F5
:101F2000FE48FFF7AFFD4CF23370ADF8780018268D
:101F30008DF87B608DF87A401EA9F948FFF7A2FD65
:101F40004FF68070ADF878008DF87B608DF87A40A0
:101F50001EA9F448FFF796FD41F20100ADF87800A4
:101F60008DF87B608DF87A401EA9EF48FFF78AFD57
:101F7000CDF82080002009900F210A910B900C9041
:101F80000D900E900190029003940490059006909D
:101F9000079006210F9110901190129713901590B1
:101FA00014901690179029011891199089001A9190
:101FB0001B9008A81C9001A81D900FA8FFF7E8FC33
:101FC00001210620FFF7D2FC322004F069FB00203B
:101FD00003F092FAD54CA08049F2413946F6040A42
:101FE00045F2103B45F210564FF6FF77FF2804D319
:101FF000B84202D0B0F5134F78D1D32003F020FEC1
:1020000003F070FAA08003F06DFAA08003F06AFA82
:1020100007EA0020A08003F065FAA1880843A080A9
:10202000484563D0BF2003F00BFE03F05BFAA080AD
:1020300003F058FAA08003F055FAA08003F052FA9A
:1020400007EA0020A08003F04DFAA1880843A08091
:1020500050454BD0D42003F0F3FD03F043FAA080A9
:1020600003F040FAA08003F03DFA07EA0020A080C8
:1020700003F038FAA1880843A080584536D04FF4C1
:102080005A4003F0DDFD03F02DFAA0804FF45B40D1
:1020900003F0D6FD03F026FA07EA0020A0804FF4F3
:1020A0005C4003F0CDFD03F01DFAA1880843A08039
:1020B000B0F5004F00D1A680A088B04216D0A12074
:1020C00003F0BEFD03F00EFAA08003F00BFA07EA5E
:1020D0000020A08003F006FAA1880843A080A0F5A4
:1020E000AE41613902D141F66310A080A18890A071
:1020F000FEF7A0F8A08848457ED1CF2003F0A0FDD0
:10210000002003F097FDC12003F094FD302003F080
:1021100091FDED2003F094FD642003F08BFD03207E
:1021200003F088FD122003F085FD812003F082FD7D
:10213000E82003F085FD852003F07CFD102003F0EE
:1021400079FD7A2003F076FDCB2003F079FD39206C
:1021500003F070FD2C2003F06DFD002003F06AFDFC
:10216000342003F067FD022003F064FDF72003F044
:1021700067FD202003F05EFDEA2003F061FD0020F2
:1021800003F058FD002003F055FDC02003F058FD7A
:102190001B2003F04FFDC12003F052FD012003F08E
:1021A00049FDC52003F04CFD302003F043FD3020F5
:1021B00003F040FDC72003F043FDB72003F03AFDD4
:1021C000362003F03DFD482003F034FD3A2003F0B3
:1021D00037FD552003F02EFDB12003F031FD002026
:1021E00003F028FD1A2003F025FDB62003F028FD9A
:1021F0000A2003F01FFD00E0AAE0A22003F01AFD70
:10220000F22003F01DFD002003F014FD262003F052
:1022100017FD012003F00EFDE02003F011FD0F205B
:1022200003F008FD2A2003F005FD282003F002FD3D
:10223000082003F0FFFC0E2003F0FCFC082003F054
:10224000F9FC542003F0F6FCA92003F0F3FC432032
:1022500003F0F0FC0A2003F0EDFC0F2003F0EAFC91
:10226000002003F0E7FC002003F0E4FC002003F072
:10227000E1FC002003F0DEFCE12003F0E1FC0020A3
:1022800003F0D8FC152003F0D5FC172003F0D2FC96
:10229000072003F0CFFC112003F0CCFC062003F054
:1022A000C9FC2B2003F0C6FC562003F0C3FC3C20E5
:1022B00003F0C0FC052003F0BDFC102003F0BAFCC5
:1022C0000F2003F0B7FC3F2003F0B4FC3F2003F0E5
:1022D000B1FC0F2003F0AEFC2B2003F0B1FC00207A
:1022E00003F0A8FC002003F0A5FC012003F0A2FCF1
:1022F0003F2003F09FFC2A2003F0A2FC002003F003
:1023000099FC002003F096FC002003F093FCEF20E2
:1023100003F090FC112003F093FC11E0000C01404D
:102320000014014000180140002001406805002011
:10233000204C43442049443A25780D0A000000000F
:10234000782004F0ADF9292003F07AFC03F0B3B84B
:1023500050457CD1112003F073FC142004F0A0F947
:10236000D02003F06DFC072003F064FC422003F052
:1023700061FC1D2003F05EFCD12003F061FC002015
:1023800003F058FC1A2003F055FC092003F052FC1E
:10239000D22003F055FC012003F04CFC222003F076
:1023A00049FCC02003F04CFC102003F043FC3B2010
:1023B00003F040FC002003F03DFC022003F03AFC57
:1023C000112003F037FCC52003F03AFC032003F092
:1023D00031FCC82003F034FC002003F02BFC252046
:1023E00003F028FC212003F025FC052003F022FC4B
:1023F000002003F01FFC0A2003F01CFC652003F002
:1024000019FC252003F016FC772003F013FC502064
:1024100003F010FC0F2003F00DFC002003F00AFC79
:10242000F82003F00DFC012003F004FCFE2003F073
:1024300007FC002003F0FEFB022003F0FBFB202042
:1024400003F0FEFB362003F0FBFB082000E02CE04D
:1024500003F0F0FB3A2003F0F3FB552003F0EAFB16
:102460002B2003F0EDFB002003F0E4FB002003F041
:10247000E1FB012003F0DEFB3F2003F0DBFB2A2021
:1024800003F0DEFB002003F0D5FB002003F0D2FBBD
:10249000012003F0CFFBDF2003F0CCFB782004F019
:1024A000FFF8292003F0CCFB50E758457ED1ED2002
:1024B00003F0C6FB012003F0BDFBFE2003F0BAFBD6
:1024C000EE2003F0BDFBDE2003F0B4FB212003F07F
:1024D000B1FBF12003F0B4FB012003F0ABFBDF20E4
:1024E00003F0AEFB102003F0A5FBC42003F0A8FB13
:1024F0008F2003F09FFBC62003F0A2FB002003F017
:1025000099FBE22003F096FBE22003F093FBE2202C
:1025100003F090FBBF2003F093FBAA2003F08AFB9B
:10252000B02003F08DFB0D2003F084FB002003F0AE
:1025300081FB0D2003F07EFB002003F07BFB1120CC
:1025400003F078FB002003F075FB192003F072FB09
:10255000002003F06FFB212003F06CFB002003F050
:1025600069FB2D2003F066FB002003F063FB3D2098
:1025700003F060FB002003F05DFB5D2003F05AFBDD
:10258000002003F057FB5D2003F054FB002003F014
:1025900051FBB12003F054FB802003F04BFB0020E3
:1025A00003F048FB8B2003F045FB00E0FDE3002037
:1025B00003F040FB962003F03DFB002003F03AFBC4
:1025C000B22003F03DFB002003F034FB002003F0B9
:1025D00031FB022003F02EFB002003F02BFB032035
:1025E00003F028FB002003F025FBB32003F028FBB9
:1025F000002003F01FFB002003F01CFB002003F071
:1026000019FB002003F016FB002003F013FB002051
:1026100003F010FB002003F00DFB002003F00AFB89
:10262000002003F007FB002003F004FB002003F070
:1026300001FB002003F0FEFA002003F0FBFA00206B
:1026400003F0F8FA002003F0F5FA002003F0F2FAA4
:10265000002003F0EFFA002003F0ECFA002003F072
:10266000E9FA002003F0E6FA002003F0E3FA002084
:1026700003F0E0FA002003F0DDFA002003F0DAFABC
:10268000B42003F0DDFA8B2003F0D4FA002003F02D
:10269000D1FA962003F0CEFA002003F0CBFAA12065
:1026A00003F0C8FA002003F0C5FAB52003F0C8FA19
:1026B000022003F0BFFA002003F0BCFA032003F06D
:1026C000B9FA002003F0B6FA042003F0B3FA0020B0
:1026D00003F0B0FAB62003F0B3FA002003F0AAFA30
:1026E000002003F0A7FAB72003F0AAFA002003F0B5
:1026F000A1FA002003F09EFA3F2003F09BFA00208D
:1027000003F098FA5E2003F095FA002003F092FAA5
:10271000642003F08FFA002003F08CFA8C2003F081
:1027200089FA002003F086FAAC2003F083FA002037
:1027300003F080FADC2003F07DFA002003F07AFA3F
:10274000702003F077FA002003F074FA902003F071
:1027500071FA002003F06EFAEB2003F06BFA002010
:1027600003F068FADC2003F065FA002003F062FA57
:10277000B82003F065FA002003F05CFA002003F0B3
:1027800059FA002003F056FA002003F053FA002013
:1027900003F050FA002003F04DFA002003F04AFA4B
:1027A000002003F047FABA2003F04AFA242003F08D
:1027B00041FA002003F03EFA002003F03BFA00202B
:1027C00003F038FAC12003F03BFA202003F032FA7C
:1027D000002003F02FFA542003F02CFA002003F01D
:1027E00029FAFF2003F026FA002003F023FAC22082
:1027F00003F026FA0A2003F01DFA002003F01AFA6B
:10280000042003F017FA002003F014FAC32003F0A9
:1028100017FA3C2003F00EFA002003F00BFA3A20DE
:1028200003F008FA002003F005FA392003F002FA59
:10283000002003F0FFF9372003F0FCF9002003F03B
:10284000F9F93C2003F0F6F9002003F0F3F9362003
:1028500003F0F0F9002003F0EDF9322003F0EAF97B
:10286000002003F0E7F92F2003F0E4F9002003F043
:10287000E1F92C2003F0DEF9002003F0DBF9292038
:1028800003F0D8F9002003F0D5F9262003F0D2F99F
:10289000002003F0CFF9242003F0CCF9002003F04E
:1028A000C9F9242003F0C6F9002003F0C3F923205E
:1028B00003F0C0F9002003F0BDF93C2003F0BAF9A1
:1028C000002003F0B7F9362003F0B4F9002003F03C
:1028D000B1F9322003F0AEF9002003F0ABF92F205C
:1028E00003F0A8F9002003F0A5F92C2003F0A2F9C9
:1028F000002003F09FF9292003F09CF9002003F049
:1029000099F9262003F096F9002003F093F924208A
:1029100003F090F9002003F08DF9242003F08AF9E8
:10292000002003F087F9232003F084F9002003F04E
:1029300081F9C42003F084F9622003F07BF90020C0
:1029400003F078F9052003F075F9002003F072F91F
:10295000842003F06FF9002003F06CF9F02003F0FD
:1029600069F9002003F066F9182003F063F90020EC
:1029700003F060F9A42003F05DF9002003F05AF998
:10298000182003F057F9002003F054F9502003F009
:1029900051F9002003F04EF90C2003F04BF9002010
:1029A00003F048F9172003F045F9002003F042F93D
:1029B000952003F03FF9002003F03CF9F32003F0E9
:1029C00039F9002003F036F9E62003F033F900204E
:1029D00003F030F9C52003F033F9322003F02AF96F
:1029E000002003F027F9442003F024F9002003F02D
:1029F00021F9652003F01EF9002003F01BF9762071
:102A000003F018F9002003F015F9882003F012F9FB
:102A1000002003F00FF9C62003F012F9202003F084
:102A200009F9002003F006F9172003F003F900204C
:102A300003F000F9012003F0FDF8002003F0FAF89C
:102A4000C72003F0FDF8002003F0F4F8002003F0A5
:102A5000F1F8002003F0EEF8002003F0EBF8C820B6
:102A600003F0EEF8002003F0E5F8002003F0E2F8B0
:102A7000002003F0DFF8002003F0DCF8C92003F0A9
:102A8000DFF8002003F0D6F8002003F0D3F8002090
:102A900003F0D0F8002003F0CDF8002003F0CAF8CE
:102AA000002003F0C7F8002003F0C4F8002003F072
:102AB000C1F8002003F0BEF8002003F0BBF80020AE
:102AC00003F0B8F8002003F0B5F8002003F0B2F8E6
:102AD000002003F0AFF8002003F0ACF8002003F072
:102AE000A9F8E02003F0ACF8162003F0A3F80020CA
:102AF00003F0A0F81C2003F09DF8002003F09AF8E2
:102B0000212003F097F8002003F094F8362003F01A
:102B100091F8002003F08EF8462003F08BF8002097
:102B200003F088F8522003F085F8002003F082F8C3
:102B3000642003F07FF8002003F07CF87A2003F093
:102B400079F8002003F076F88B2003F073F800206A
:102B500003F070F8992003F06DF8002003F06AF894
:102B6000A82003F067F8002003F064F8B92003F010
:102B700061F8002003F05EF8C42003F05BF8002049
:102B800003F058F8CA2003F055F8002003F052F87B
:102B9000D22003F04FF8002003F04CF8D92003F0C6
:102BA00049F8002003F046F8E02003F043F8002045
:102BB00003F040F8F32003F03DF8002003F03AF86A
:102BC000E12003F03DF8162003F034F8002003F074
:102BD00031F81C2003F02EF8002003F02BF82220FF
:102BE00003F028F8002003F025F8362003F022F83F
:102BF000002003F01FF8452003F01CF8002003F02C
:102C000019F8522003F016F8002003F013F864209E
:102C100003F010F8002003F00DF87A2003F00AF812
:102C2000002003F007F88B2003F004F8002003F0E5
:102C300001F8992002F0FEFF002002F0FBFFA8201F
:102C400002F0F8FF002002F0F5FFB92002F0F2FFD9
:102C5000002002F0EFFFC42002F0ECFF002002F0A1
:102C6000E9FFCA2002F0E6FF002002F0E3FFD220D5
:102C700002F0E0FF002002F0DDFFD82002F0DAFFD2
:102C8000002002F0D7FFE02002F0D4FF002002F085
:102C9000D1FFF32002F0CEFF002002F0CBFFE220B4
:102CA00002F0CEFF052002F0C5FF002002F0C2FFB7
:102CB0000B2002F0BFFF002002F0BCFF1B2002F03F
:102CC000B9FF002002F0B6FF342002F0B3FF00206D
:102CD00002F0B0FF442002F0ADFF002002F0AAFF96
:102CE0004F2002F0A7FF002002F0A4FF612002F0B5
:102CF000A1FF002002F09EFF792002F09BFF002040
:102D000002F098FF882002F095FF002002F092FF69
:102D1000972002F08FFF002002F08CFFA62002F027
:102D200089FF002002F086FFB72002F083FF002019
:102D300002F080FFC22002F07DFF002002F07AFF47
:102D4000C72002F077FF002002F074FFD12002F0CC
:102D500071FF002002F06EFFD62002F06BFF002012
:102D600002F068FFDD2002F065FF002002F062FF44
:102D7000F32002F05FFF002002F05CFFE32002F08E
:102D80005FFF052002F056FF002002F053FF0A20EB
:102D900002F050FF002002F04DFF1C2002F04AFF1D
:102DA000002002F047FF332000E0FDE202F042FF86
:102DB000002002F03FFF442002F03CFF002002F020
:102DC00039FF502002F036FF002002F033FF62206E
:102DD00002F030FF002002F02DFF782002F02AFFE1
:102DE000002002F027FF882002F024FF002002F0DC
:102DF00021FF972002F01EFF002002F01BFFA620FB
:102E000002F018FF002002F015FFB72002F012FFB9
:102E1000002002F00FFFC22002F00CFF002002F0A1
:102E200009FFC72002F006FF002002F003FFD120B7
:102E300002F000FF002002F0FDFED52002F0FAFEB5
:102E4000002002F0F7FEDD2002F0F4FE002002F088
:102E5000F1FEF32002F0EEFE002002F0EBFEE42093
:102E600002F0EEFE012002F0E5FE002002F0E2FE9C
:102E7000012002F0DFFE002002F0DCFE022002F062
:102E8000D9FE002002F0D6FE2A2002F0D3FE002058
:102E900002F0D0FE3C2002F0CDFE002002F0CAFE7F
:102EA0004B2002F0C7FE002002F0C4FE5D2002F0BD
:102EB000C1FE002002F0BEFE742002F0BBFE002026
:102EC00002F0B8FE842002F0B5FE002002F0B2FE4F
:102ED000932002F0AFFE002002F0ACFEA22002F030
:102EE000A9FE002002F0A6FEB32002F0A3FE0020FF
:102EF00002F0A0FEBE2002F09DFE002002F09AFE2D
:102F0000C42002F097FE002002F094FECD2002F0D3
:102F100091FE002002F08EFED32002F08BFE0020F6
:102F200002F088FEDD2002F085FE002002F082FE25
:102F3000F32002F07FFE002002F07CFEE52002F08C
:102F40007FFE002002F076FE002002F073FE0020DB
:102F500002F070FE002002F06DFE022002F06AFE18
:102F6000002002F067FE292002F064FE002002F03B
:102F700061FE3C2002F05EFE002002F05BFE4B2072
:102F800002F058FE002002F055FE5D2002F052FED5
:102F9000002002F04FFE742002F04CFE002002F0F0
:102FA00049FE842002F046FE002002F043FE9320FA
:102FB00002F040FE002002F03DFEA22002F03AFEA8
:102FC000002002F037FEB32002F034FE002002F0B1
:102FD00031FEBE2002F02EFE002002F02BFEC420A7
:102FE00002F028FE002002F025FECD2002F022FE95
:102FF000002002F01FFED32002F01CFE002002F091
:1030000019FEDC2002F016FE002002F013FEF32071
:1030100002F010FE002002F00DFEE62002F010FE8D
:10302000112002F007FE002002F004FE342002F01E
:1030300001FE002002F0FEFD562002F0FBFD002004
:1030400002F0F8FD762002F0F5FD002002F0F2FD1E
:10305000772002F0EFFD002002F0ECFD662002F088
:10306000E9FD002002F0E6FD882002F0E3FD0020EB
:1030700002F0E0FD992002F0DDFD002002F0DAFD13
:10308000BB2002F0D7FD002002F0D4FD992002F011
:10309000D1FD002002F0CEFD662002F0CBFD002025
:1030A00002F0C8FD552002F0C5FD002002F0C2FD6F
:1030B000552002F0BFFD002002F0BCFD452002F0CB
:1030C000B9FD002002F0B6FD432002F0B3FD002060
:1030D00002F0B0FD442002F0ADFD002002F0AAFD98
:1030E000E72002F0ADFD322002F0A4FD002002F046
:1030F000A1FD552002F09EFD002002F09BFD7620F0
:1031000002F098FD002002F095FD662002F092FD8D
:10311000002002F08FFD672002F08CFD002002F0FD
:1031200089FD672002F086FD002002F083FD8720E4
:1031300002F080FD002002F07DFD992002F07AFD72
:10314000002002F077FDBB2002F074FD002002F0A9
:1031500071FD992002F06EFD002002F06BFD7720DA
:1031600002F068FD002002F065FD442002F062FDDF
:10317000002002F05FFD562002F05CFD002002F00E
:1031800059FD232002F056FD002002F053FD3320AC
:1031900002F050FD002002F04DFD452002F04AFDF6
:1031A000002002F047FDE82002F04AFD002002F076
:1031B00041FD002002F03EFD992002F03BFD002081
:1031C00002F038FD872002F035FD002002F032FDCC
:1031D000882002F02FFD002002F02CFD772002F065
:1031E00029FD002002F026FD662002F023FD0020CC
:1031F00002F020FD882002F01DFD002002F01AFDE3
:10320000AA2002F017FD002002F014FDBB2002F0FE
:1032100011FD002002F00EFD992002F00BFD0020B0
:1032200002F008FD662002F005FD002002F002FD1C
:10323000552002F0FFFC002002F0FCFC552002F0BB
:10324000F9FC002002F0F6FC442002F0F3FC002020
:1032500002F0F0FC442002F0EDFC002002F0EAFC59
:10326000552002F0E7FC002002F0E4FCE92002F027
:10327000E7FCAA2002F0DEFC002002F0DBFC0020CC
:1032800002F0D8FC002002F0D5FC002002F0D8FCAF
:10329000AA2002F0CFFCCF2002F0D2FC002002F0E6
:1032A000C9FC002002F0C6FC002002F0C3FC002094
:1032B00002F0C0FC002002F0BDFC002002F0BAFCCD
:1032C000002002F0B7FC002002F0B4FC002002F065
:1032D000B1FC002002F0AEFC002002F0ABFC0020AC
:1032E00002F0A8FC002002F0A5FC002002F0A2FCE5
:1032F000002002F09FFC002002F09CFC002002F065
:1033000099FCF02002F09CFC002002F093FC50207D
:1033100002F090FC002002F08DFC002002F08AFCFC
:10332000002002F087FCF32002F08AFC002002F06B
:1033300081FCF92002F084FC062002F07BFC1020C6
:1033400002F078FC292002F075FC002002F072FCEB
:103350003A2002F075FC552002F06CFC112002F0BE
:103360006FFC642003F09CF9292002F069FC3520F1
:1033700002F066FC002002F05DFC512002F060FCCF
:10338000FF2002F057FC532002F05AFC2C2002F0E0
:1033900051FC552002F054FC822002F04BFC2C2002
:1033A00002F04EFC02F087B8B0427DD14FF470437A
:1033B0005521184602F054FC4FF20104AA21204680
:1033C00002F04EFC651C5221284602F049FCA61C66
:1033D0000821304602F044FC4FF20409012148461E
:1033E00002F03EFC0D214FF4304002F039FC0D217B
:1033F0004BF2010002F034FC0D214BF2020002F00E
:103400002FFC4FF4364A3421504602F029FC342177
:103410004BF2016002F024FC34214BF2026002F016
:103420001FFC4FF4314B0D21584602F019FC0D21C1
:103430004BF2011002F014FC0D214BF2021002F0CD
:103440000FFC34214FF4374002F00AFC34214BF2D8
:10345000017002F005FC34214BF2027002F000FC16
:1034600000214FF4324002F0FBFB00214BF201201F
:1034700002F0F6FB00214BF2022002F0F1FB2421C6
:103480004FF4384002F0ECFB24214BF6010002F02F
:10349000E7FB24214BF6020002F0E2FB01214FF48E
:1034A0003F4002F0DDFB00E0FDE30F214FF433402D
:1034B00002F0D6FB0F214BF2013002F0D1FB0F21BD
:1034C0004BF2023002F0CCFB34214FF4394002F0D1
:1034D000C7FB34214BF6011002F0C2FB34214BF63E
:1034E000021002F0BDFB08214FF4354002F0B8FB9A
:1034F00008214BF2015002F0B3FB08214BF20250BD
:1035000002F0AEFB03214FF4424002F0A9FB24215C
:103510004FF43A4002F0A4FB24214BF6012002F0C4
:103520009FFB24214BF6022002F09AFB00214FF46E
:103530003C4002F095FB78214BF6014002F090FBF5
:1035400000214BF6024002F08BFB00214FF43D407E
:1035500002F086FB78214BF6015002F081FB00213E
:103560004BF6025002F07CFB00214FF43E4002F08B
:1035700077FB64214BF6016002F072FB00214FF4EF
:10358000514002F06DFB33214DF2011002F068FB57
:1035900000214DF2021002F063FB34214DF20310C2
:1035A00002F05EFB00214DF2041002F059FB3A21BB
:1035B0004DF2051002F054FB00214DF2061002F00E
:1035C0004FFB4A214DF2071002F04AFB00214DF259
:1035D000081002F045FB5C214DF2091002F040FB9F
:1035E00000214DF20A1002F03BFB81214DF20B103D
:1035F00002F036FB00214DF20C1002F031FBA62147
:103600004DF20D1002F02CFB00214DF20E1002F0D5
:1036100027FBE5214DF20F1002F022FB01214DF2B4
:10362000101002F01DFB13214DF2111002F018FBD7
:1036300001214DF2121002F013FB54214DF2131030
:1036400002F00EFB01214DF2141002F009FB822161
:103650004DF2151002F004FB01214DF2161002F09C
:10366000FFFACA214DF2171002F0FAFA02214DF2C8
:10367000181002F0F5FA00214DF2191002F0F0FADC
:1036800002214DF21A1002F0EBFA01214DF21B104B
:1036900002F0E6FA02214DF21C1002F0E1FA3421A8
:1036A0004DF21D1002F0DCFA02214DF21E1002F064
:1036B000D7FA67214DF21F1002F0D2FA02214DF223
:1036C000201002F0CDFA84214DF2211002F0C8FA48
:1036D00002214DF2221002F0C3FAA4214DF2231070
:1036E00002F0BEFA02214DF2241002F0B9FAB7211D
:1036F0004DF2251002F0B4FA02214DF2261002F02C
:10370000AFFACF214DF2271002F0AAFA02214DF2B2
:10371000281002F0A5FADE214DF2291002F0A0FADD
:1037200002214DF22A1002F09BFAF2214DF22B10E9
:1037300002F096FA02214DF22C1002F091FAFE21CD
:103740004DF22D1002F08CFA03214DF22E1002F0F2
:1037500087FA10214DF22F1002F082FA03214DF268
:10376000301002F07DFA33214DF2311002F078FA78
:1037700003214DF2321002F073FA6D214DF2331035
:1037800002F06EFA00214FF4524002F069FA332140
:103790004DF2012002F064FA00214DF2022002F005
:1037A0005FFA34214DF2032002F05AFA00214DF263
:1037B000042002F055FA3A214DF2052002F050FAA9
:1037C00000214DF2062002F04BFA4A214DF207206B
:1037D00002F046FA00214DF2082002F041FA5C2185
:1037E0004DF2092002F03CFA00214DF20A2002F0CD
:1037F00037FA81214DF20B2002F032FA00214DF20E
:103800000C2002F02DFAA6214DF20D2002F028FA2C
:1038100000214DF20E2002F023FAE5214DF20F2097
:1038200002F01EFA01214DF2102002F019FA1321C4
:103830004DF2112002F014FA01214DF2122002F093
:103840000FFA54214DF2132002F00AFA01214DF231
:10385000142002F005FA82214DF2152002F000FA40
:1038600001214DF2162002F0FBF9CA214DF217207A
:1038700002F0F6F902214DF2182002F0F1F90021D0
:103880004DF2192002F0ECF902214DF21A2002F05B
:10389000E7F901214DF21B2002F0E2F902214DF27D
:1038A0001C2002F0DDF934214DF21D2002F0D8F980
:1038B00002214DF21E2002F0D3F967214DF21F20A4
:1038C00002F0CEF902214DF2202002F0C9F9842144
:1038D0004DF2212002F0C4F902214DF2222002F023
:1038E000BFF9A4214DF2232002F0BAF902214DF2D2
:1038F000242002F0B5F9B7214DF2252002F0B0F9ED
:1039000002214DF2262002F0ABF9CF214DF2272003
:1039100002F0A6F902214DF2282002F0A1F9DE21E1
:103920004DF2292002F09CF902214DF22A2002F0EA
:1039300097F9F2214DF22B2002F092F902214DF27B
:103940002C2002F08DF9FE214DF22D2002F088F995
:1039500003214DF22E2002F083F910214DF22F2089
:1039600002F07EF903214DF2302002F079F9332183
:103970004DF2312002F074F903214DF2322002F0B1
:103980006FF96D214DF2332002F06AF900214FF4F6
:10399000534002F065F933214DF2013002F060F935
:1039A00000214DF2023002F05BF934214DF2033078
:1039B00002F056F900214DF2043002F051F93A219B
:1039C0004DF2053002F04CF900214DF2063002F0C4
:1039D00047F94A214DF2073002F042F900214DF239
:1039E000083002F03DF95C214DF2093002F038F95F
:1039F00000214DF20A3002F033F981214DF20B30F3
:103A000002F02EF900214DF20C3002F029F9A62126
:103A10004DF20D3002F024F900214DF20E3002F08B
:103A20001FF9E5214DF20F3002F01AF901214DF294
:103A3000103002F015F913214DF2113002F010F997
:103A400001214DF2123002F00BF954214DF21330E6
:103A500002F006F901214DF2143002F001F9822141
:103A60004DF2153002F0FCF801214DF2163002F053
:103A7000F7F8CA214DF2173002F0F2F802214DF2A8
:103A8000183002F0EDF800214DF2193002F0E8F89C
:103A900002214DF21A3002F0E3F801214DF21B3001
:103AA00002F0DEF802214DF21C3002F0D9F8342188
:103AB0004DF21D3002F0D4F802214DF21E3002F01A
:103AC000CFF867214DF21F3002F0CAF802214DF203
:103AD000203002F0C5F884214DF2213002F0C0F808
:103AE00002214DF2223002F0BBF8A4214DF2233026
:103AF00002F0B6F802214DF2243002F0B1F8B721FD
:103B00004DF2253002F0ACF802214DF2263002F0E1
:103B1000A7F8CF214DF2273002F0A2F802214DF292
:103B2000283002F09DF8DE214DF2293002F098F89D
:103B300002214DF22A3002F093F8F2214DF22B309F
:103B400002F08EF802214DF22C3002F089F8FE21AD
:103B50004DF22D3002F084F803214DF22E3002F0A8
:103B60007FF810214DF22F3002F07AF803214DF248
:103B7000303002F075F833214DF2313002F070F838
:103B800003214DF2323002F06BF86D214DF23330EB
:103B900002F066F800214FF4544002F061F833213E
:103BA0004DF2014002F05CF800214DF2024002F0BB
:103BB00057F834214DF2034002F052F800214DF243
:103BC000044002F04DF83A214DF2054002F048F869
:103BD00000214DF2064002F043F84A214DF2074021
:103BE00002F03EF800214DF2084002F039F85C2165
:103BF0004DF2094002F034F800214DF20A4002F083
:103C00002FF881214DF20B4002F02AF800214DF2ED
:103C10000C4002F025F8A6214DF20D4002F020F8EC
:103C200000214DF20E4002F01BF8E5214DF20F404D
:103C300002F016F801214DF2104002F011F81321A4
:103C40004DF2114002F00CF801214DF2124002F049
:103C500007F854214DF2134002F002F801214DF211
:103C6000144001F0FDFF82214DF2154001F0F8FFF4
:103C700001214DF2164001F0F3FFCA214DF2174029
:103C800001F0EEFF02214DF2184001F0E9FF0021A2
:103C90004DF2194001F0E4FF02214DF21A4001F00B
:103CA000DFFF012100E001E34DF21B4001F0D8FFEE
:103CB00002214DF21C4001F0D3FF34214DF21D4092
:103CC00001F0CEFF02214DF21E4001F0C9FF672135
:103CD0004DF21F4001F0C4FF02214DF2204001F0DF
:103CE000BFFF84214DF2214001F0BAFF02214DF2C5
:103CF000224001F0B5FFA4214DF2234001F0B0FFB6
:103D000002214DF2244001F0ABFFB7214DF22540D6
:103D100001F0A6FF02214DF2264001F0A1FFCF21C4
:103D20004DF2274001F09CFF02214DF2284001F0A6
:103D300097FFDE214DF2294001F092FF02214DF262
:103D40002A4001F08DFFF2214DF22B4001F088FF57
:103D500002214DF22C4001F083FFFE214DF22D4057
:103D600001F07EFF03214DF22E4001F079FF10217A
:103D70004DF22F4001F074FF03214DF2304001F06D
:103D80006FFF33214DF2314001F06AFF03214DF204
:103D9000324001F065FF6D214DF2334001F060FFCC
:103DA00000214FF4554001F05BFF33214DF20150EB
:103DB00001F056FF00214DF2025001F051FF342175
:103DC0004DF2035001F04CFF00214DF2045001F080
:103DD00047FF3A214DF2055001F042FF00214DF21C
:103DE000065001F03DFF4A214DF2075001F038FF27
:103DF00000214DF2085001F033FF5C214DF20950D3
:103E000001F02EFF00214DF20A5001F029FF81211F
:103E10004DF20B5001F024FF00214DF20C5001F047
:103E20001FFFA6214DF20D5001F01AFF00214DF2A7
:103E30000E5001F015FFE5214DF20F5001F010FF7B
:103E400001214DF2105001F00BFF13214DF21150E2
:103E500001F006FF01214DF2125001F001FF542143
:103E60004DF2135001F0FCFE01214DF2145001F00F
:103E7000F7FE82214DF2155001F0F2FE01214DF2C4
:103E8000165001F0EDFECA214DF2175001F0E8FE88
:103E900002214DF2185001F0E3FE00214DF21950BD
:103EA00001F0DEFE02214DF21A5001F0D9FE01218F
:103EB0004DF21B5001F0D4FE02214DF21C5001F0D6
:103EC000CFFE34214DF21D5001F0CAFE02214DF209
:103ED0001E5001F0C5FE67214DF21F5001F0C0FEDB
:103EE00002214DF2205001F0BBFE84214DF2215001
:103EF00001F0B6FE02214DF2225001F0B1FEA421E4
:103F00004DF2235001F0ACFE02214DF2245001F09D
:103F1000A7FEB7214DF2255001F0A2FE02214DF27D
:103F2000265001F09DFECF214DF2275001F098FE62
:103F300002214DF2285001F093FEDE214DF229506E
:103F400001F08EFE02214DF22A5001F089FEF2218D
:103F50004DF22B5001F084FE02214DF22C5001F065
:103F60007FFEFE214DF22D5001F07AFE03214DF22D
:103F70002E5001F075FE10214DF22F5001F070FE11
:103F800003214DF2305001F06BFE33214DF23150E0
:103F900001F066FE03214DF2325001F061FE6D2109
:103FA0004DF2335001F05CFE00214FF4564001F019
:103FB00057FE33214DF2016001F052FE00214DF217
:103FC000026001F04DFE34214DF2036001F048FE25
:103FD00000214DF2046001F043FE3A214DF20560EC
:103FE00001F03EFE00214DF2066001F039FE4A214B
:103FF0004DF2076001F034FE00214DF2086001F03F
:104000002FFE5C214DF2096001F02AFE00214DF2E5
:104010000A6001F025FE81214DF20B6001F020FEC7
:1040200000214DF20C6001F01BFEA6214DF20D6047
:1040300001F016FE00214DF20E6001F011FEE521A7
:104040004DF20F6001F00CFE01214DF2106001F005
:1040500007FE13214DF2116001F002FE01214DF225
:10406000126001F0FDFD54214DF2136001F0F8FDE6
:1040700001214DF2146001F0F3FD82214DF2156033
:1040800001F0EEFD01214DF2166001F0E9FDCA21BB
:104090004DF2176001F0E4FD02214DF2186001F0CD
:1040A000DFFD00214DF2196001F0DAFD02214DF231
:1040B0001A6001F0D5FD01214DF21B6001F0D0FD29
:1040C00002214DF21C6001F0CBFD34214DF21D6048
:1040D00001F0C6FD02214DF21E6001F0C1FD672115
:1040E0004DF21F6001F0BCFD02214DF2206001F095
:1040F000B7FD84214DF2216001F0B2FD02214DF2A5
:10410000226001F0ADFDA4214DF2236001F0A8FD75
:1041100002214DF2246001F0A3FDB7214DF225608C
:1041200001F09EFD02214DF2266001F099FDCF21A4
:104130004DF2276001F094FD02214DF2286001F05C
:104140008FFDDE214DF2296001F08AFD02214DF242
:104150002A6001F085FDF2214DF22B6001F080FD17
:1041600002214DF22C6001F07BFDFE214DF22D600D
:1041700001F076FD03214DF22E6001F071FD10215A
:104180004DF22F6001F06CFD03214DF2306001F023
:1041900067FD33214DF2316001F062FD03214DF2E4
:1041A000326001F05DFD6D214DF2336001F058FD8C
:1041B0005521184601F054FDAA21204601F050FD7A
:1041C0005221284601F04CFD0821304601F048FDFF
:1041D0000021484601F044FDCC21584601F040FD45
:1041E00000214BF2011001F03BFD0521504601F08A
:1041F00037FD70214FF4374001F032FD70214BF252
:10420000017001F02DFD01214FF4384001F028FD2F
:1042100003214BF6010001F023FD03214BF60200C0
:1042200001F01EFD03214BF6030001F019FD0221F0
:104230004FF43C4001F014FD00214BF6014001F029
:104240000FFD00214BF6024001F00AFDD0214FF492
:10425000494001F005FD02214CF6011001F000FD7E
:1042600050214CF6021001F0FBFC50214CF60310DB
:1042700001F0F6FC50214CF6041001F0F1FC002195
:104280004FF4545001F0ECFC55214FF4685001F00C
:10429000E7FC4FF4885001F0D3FC782002F01AFAC2
:1042A0004FF4245001F0CCFC01F005B9A0F5134106
:1042B0004FF4E06640F2022940F23F1A4FF4274BD8
:1042C000253921D0F41DC91E7ED04FF41C5B083166
:1042D0007BD011397AD0A0F5A841083977D0A0F564
:1042E000A851053974D0B1F5204172D0B1F5805193
:1042F00070D0A0F58A4131396DD0091F6CD0A0F57E
:10430000C851633969D0CFE747F6F001E52001F0E5
:10431000A7FC2946012001F0A3FC3146022001F050
:104320009FFC41F23001032001F09AFC002104209F
:1043300001F096FC4946082001F092FC002109207A
:1043400001F08EFC00210A2001F08AFC00210C20E3
:1043500001F086FC00210D2001F082FC00210F20DD
:1043600001F07EFC0021102001F07AFC07211120D1
:1043700001F076FC0021122001F072FC00211320D4
:1043800001F06EFC0021072001F06AFC41F290610F
:10439000102001F065FC40F22721112001F060FCA3
:1043A0009D21122001F05CFC4FF4C851132001F054
:1043B00057FC2521292001F053FC0D212B2001F071
:1043C0004FFC0721302009E07AE066E10CE2E6E2EA
:1043D00083E3FDE3FDE3FDE3FDE3FDE301F040FCEA
:1043E00040F20331312001F03BFC0321322001F087
:1043F00037FC40F20621352001F032FC082136203E
:1044000001F02EFC40F20641372001F029FC4FF468
:104410004171382001F024FC0721392001F020FCF3
:1044200040F202613C2001F01BFC08213D2001F01C
:1044300017FC0021502001F013FCEF21512001F066
:104440000FFC0021522001F00BFC5146532001F0DB
:1044500007FC5946602001F003FC0121612001F0B6
:10446000FFFB00216A2001F0FBFB0021802001F00E
:10447000F7FB0021812001F0F3FB0021822001F0F5
:10448000EFFB0021832001F0EBFB0021842001F0F1
:10449000E7FB0021852001F0E3FB1021902001F0D3
:1044A000DFFB4FF4C061922001F0DAFB40F23311E0
:1044B000072001F0D5FB2221002001F0D1FBF3E61B
:1044C00041F28F01EC2001F0CBFB41F23421EF20CF
:1044D00001F0C6FB2946012001F0C2FB3146022053
:1044E00001F0BEFB41F23001032001F0B9FB0021D5
:1044F000042001F0B5FB4946082001F0B1FB002182
:10450000092001F0ADFB00210A2001F0A9FB0121E7
:104510000C2001F0A5FB00210D2001F0A1FB0021E2
:104520000F2001F09DFB0021102001F099FB0721D5
:10453000112001F095FB0021122001F091FB0021D8
:10454000132001F08DFB0121072001F089FB3220AF
:1045500002F0A6F841F29041102001F081FB40F2F8
:104560002721112001F07CFB322002F099F88A21EA
:10457000122001F075FB322002F092F84FF4D05176
:10458000132001F06DFB0621292001F069FB0D21AC
:104590002B2001F065FB322002F082F80021202060
:1045A00001F05EFB0021212001F05AFB322002F0D5
:1045B00077F80021302001F053FB40F204613120F4
:1045C00001F04EFB40F20531322001F049FB0021A1
:1045D000352001F045FB40F60941362001F040FB53
:1045E0004FF40171372001F03BFB40F201313820DC
:1045F00001F036FB2146392001F032FB00213C203E
:1046000001F02EFB40F60A213D2001F029FB32206B
:1046100002F046F80021502001F022FBEF2151204A
:1046200001F01EFB0021522001F01AFB51465320DD
:1046300001F016FB5946602001F012FB01216120B8
:1046400001F00EFB00216A2001F00AFB002180200E
:1046500001F006FB0021812001F002FB00218220F5
:1046600001F0FEFA0021832001F0FAFA00218420F3
:1046700001F0F6FA0021852001F0F2FA10219020D5
:1046800001F0EEFA4FF4C061922001F0E9FA40F235
:104690003311072001F0E4FA06E60021084601F094
:1046A000DFFA2946012001F0DBFA3146022001F051
:1046B000D7FA41F23001032001F0D2FA00210420A0
:1046C00001F0CEFA4946082001F0CAFA002109207B
:1046D00001F0C6FA00210A2001F0C2FA01210C20E3
:1046E00001F0BEFA00210D2001F0BAFA00210F20DE
:1046F00001F0B6FA322001F0D3FF40F20111072099
:1047000001F0AEFA322001F0CBFF4FF486511020B9
:1047100001F0A6FA0721112001F0A2FA4FF48873E4
:104720001946122001F09CFA4FF43061132001F079
:1047300097FA0021292001F093FA44F210012B206E
:1047400001F08EFA0021502001F08AFAEF21512069
:1047500001F086FA0021522001F082FA51465320DE
:1047600001F07EFA5946602001F07AFA01216120B9
:1047700001F076FA00216A2001F072FA002180200F
:1047800001F06EFA0021812001F06AFA00218220F6
:1047900001F066FA0021832001F062FA00218420F2
:1047A00001F05EFA0021852001F05AFA10219020D4
:1047B00001F056FA0021922001F052FA01219320D3
:1047C00001F04EFA1946952001F04AFA002197208F
:1047D00001F046FA0021982001F042FA40F27311EC
:1047E000072001F03DFA5FE541F21401E72001F0F6
:1047F00037FA2946012001F033FA4FF40071022004
:1048000001F02EFA41F23801032001F029FA49465D
:10481000082001F025FA0021092001F021FA0021E9
:104820000A2001F01DFA00210C2001F019FA0021E4
:104830000D2001F015FA00210F2001F011FA0021DE
:10484000102001F00DFA0721112001F009FA0021D2
:10485000122001F005FA0021132001F001FAC8200E
:1048600001F01EFF41F29061102001F0F9F940F2D1
:104870002721112001F0F4F9322001F011FF0C2161
:10488000122001F0EDF9322001F00AFF4FF400612F
:10489000132001F0E5F91121292001F0E1F90B21A4
:1048A0002B2001F0DDF9322001F0FAFE002120205A
:1048B00001F0D6F95146212001F0D2F90021302033
:1048C00001F0CEF94FF483731946312001F0C8F995
:1048D0000021322001F0C4F94FF40171352001F0BC
:1048E000BFF941F20A61362001F0BAF921463720BA
:1048F00001F0B6F91946382001F0B2F92146392005
:1049000001F0AEF940F202413C2001F0A9F940F675
:104910000F413D2001F0A4F90021502001F0A0F941
:10492000EF21512001F09CF90021522001F098F96B
:104930005146532001F094F95946602001F090F956
:104940000121612001F08CF900216A2001F088F931
:104950000021802001F084F90021812001F080F9FC
:104960000021822001F07CF90021832001F078F9F8
:104970000021842001F074F90021852001F070F9F4
:104980001021902001F06CF94FF4C061922001F0E9
:1049900067F940F23311072001F062F984E42946F7
:1049A000012001F05DF93146022001F059F941F290
:1049B0003001032001F054F90021042001F050F9E6
:1049C00040F20721082001F04BF90021092001F0F5
:1049D00047F900210A2001F043F900210C2001F0E1
:1049E0003FF900210D2001F03BF900210F2001F0DB
:1049F00037F9142001F054FE41F2B061102001F0AB
:104A00002FF90121112001F02BF90121172001F0CC
:104A100027F94FF49C71122001F022F94FF4006144
:104A2000132001F01DF90921292001F019F90921AC
:104A30002A2001F015F90021A42001F011F900212C
:104A4000502001F00DF9EF21512001F009F900216A
:104A5000522001F005F95146532001F001F9594661
:104A6000602001F0FDF80121612001F0F9F800213A
:104A70006A2001F0F5F80021802001F0F1F8002112
:104A8000812001F0EDF80021822001F0E9F80021F9
:104A9000832001F0E5F80021842001F0E1F80021F5
:104AA000852001F0DDF81321902001F0D9F80021D4
:104AB000922001F0D5F80321932001F0D1F84FF4B2
:104AC0008871952001F0CCF840F27311072001F0B5
:104AD000C7F8322001F0E4FD15E40021072001F0C1
:104AE000BFF8322001F0DCFD4FF48E71122001F08E
:104AF000B7F80121A42001F0B3F80F21082001F03C
:104B0000AFF808210A2001F0ABF808210D2001F0D0
:104B1000A7F82146302001F0A3F80721312001F049
:104B20009FF840F20361322001F09AF831463320B9
:104B300001F096F84946342001F092F80221352020
:104B400001F08EF841F60F71362001F089F8214608
:104B5000372001F085F80021382001F081F800218C
:104B6000392001F07DF821463A2001F079F8002142
:104B70003B2001F075F807213C2001F071F800217D
:104B80003D2001F06DF8322001F08AFD012107205F
:104B900001F066F80121172001F062F8322001F0DF
:104BA0007FFD4FF4BD51102001F05AF840F217215B
:104BB000112001F055F84FF48F71122001F050F8D8
:104BC0004FF47061132001F04BF800212A2004E01B
:104BD00093E08DE157E20BE3B5E301F041F80A21E0
:104BE000292001F03DF84FF49F71122001F038F8B0
:104BF0000021502001F034F8EF21512001F030F86D
:104C00000021522001F02CF85146532001F028F8E1
:104C10005946602001F024F80121612001F020F8BC
:104C200000216A2001F01CF80021802001F018F812
:104C30000021812001F014F80021822001F010F8F9
:104C40000021832001F00CF80021842001F008F8F5
:104C50000021852001F004F81321902001F000F8D4
:104C60004FF44071922000F0FBFF0521932000F0EB
:104C7000F7FF0021952000F0F3FF0021972000F0BE
:104C8000EFFF0021982000F0EBFF2946012000F003
:104C9000E7FF3146022000F0E3FF41F23801032034
:104CA00000F0DEFF0021042000F0DAFF00210C20DC
:104CB00000F0D6FF00210F2000F0D2FF00212020BD
:104CC00000F0CEFF0021212000F0CAFF21210720A3
:104CD00000F0C6FF142001F0E3FC6121072000F082
:104CE000BFFF142001F0DCFC40F27311072000F03C
:104CF000B7FF142001F0D4FCDDE30021084600F0EA
:104D0000AFFF0021084600F0ABFF0021084600F08D
:104D1000A7FF0021084600F0A3FF0121A42000F016
:104D20009FFF142001F0BCFC5946602000F098FF62
:104D30004946082000F094FF4FF40571302000F040
:104D40008FFF43F21571312000F08AFF40F20461B9
:104D5000322000F085FF40F61661332000F080FF1E
:104D600042F21121342000F07BFF4FF4A85135208E
:104D700000F076FF48F20751362000F071FF41F253
:104D80000741372000F06CFF41F20341382000F06A
:104D900067FF2021392000F063FF1A21902000F0E6
:104DA0005FFF0021102000F05BFF0721112000F0C1
:104DB00057FF0021122000F053FF0021132000F0C4
:104DC0004FFF142001F06CFC4FF4E661102000F05E
:104DD00047FF40F23711112000F042FF142001F08C
:104DE0005FFC4FF4DC71122000F03AFF142001F058
:104DF00057FC4FF47061132000F032FF80212A200D
:104E000000F02EFF4821292000F02AFF142001F095
:104E100047FC2946012000F023FF3146022000F024
:104E20001FFF41F23801032000F01AFF4946082015
:104E300000F016FF00210A2000F012FF00210C20D4
:104E400000F00EFF00210D2000F00AFF30210E209F
:104E500000F006FF0021502000F002FFEF2151205A
:104E600000F0FEFE0021522000F0FAFE51465320D1
:104E700000F0F6FE5946602000F0F2FE01216120AC
:104E800000F0EEFE00216A2000F0EAFE11219020E1
:104E900000F0E6FE4FF4C061922000F0E1FE40F227
:104EA0000241932000F0DCFE0221942000F0D8FEA5
:104EB000142001F0F5FB0121072000F0D1FE1420A1
:104EC00001F0EEFB6121072000F0CAFE40F27311F1
:104ED000072000F0C5FE0021202000F0C1FE0021C7
:104EE000212000F0BDFE2221002000F0B9FEE2E208
:104EF0000021084600F0B4FE0021084600F0B0FE94
:104F0000142001F0CDFB0021084600F0A9FE00218D
:104F1000084600F0A5FE0021084600F0A1FE002191
:104F2000084600F09DFE0121A42000F099FE142007
:104F300001F0B6FB5946602000F092FE40F60601F3
:104F4000082000F08DFE40F203731946302000F077
:104F500087FE0121312000F083FE0421322000F081
:104F60007FFE4FF48171332000F07AFE4FF44074DD
:104F70002146342000F074FE40F20311352000F089
:104F80006FFE1F21362000F06BFE1946372000F01F
:104F900067FE0121382000F063FE0421392000F073
:104FA0005FFE1521902000F05BFE4FF4826110201F
:104FB00000F056FE40F24721112000F051FE4FF460
:104FC000DE71122000F04CFE4FF46061132000F0FF
:104FD00047FE782001F064FB2946012000F040FEE6
:104FE0004FF40071022000F03BFE41F2300103203B
:104FF00000F036FE08210A2000F032FE00210C20CD
:1050000000F02EFE20210E2000F02AFE00210F20AD
:1050100000F026FE0021202000F022FE00212120A9
:1050200000F01EFE3D212A2000F01AFE142001F09F
:1050300037FB2D21292000F013FE0021502000F025
:105040000FFE4DF2EF01512000F00AFE0021522028
:1050500000F006FE5146532000F002FE00216120C0
:1050600000F0FEFD00216A2000F0FAFD21469220AA
:1050700000F0F6FD0521932000F0F2FD29460720FF
:1050800000F0EEFD17E20121002000F0E9FD0A200A
:1050900001F006FB41F22861102000F0E1FD0E2135
:1050A000122000F0DDFD40F63921132000F0D8FD7C
:1050B0000A2001F0F5FA4021112000F0D1FD502125
:1050C000152000F0CDFD0A2001F0EAFA1E21122081
:1050D00000F0C6FD0A2001F0E3FA4FF4B1511020B0
:1050E00000F0BEFD42F63921132000F0B9FD0A2080
:1050F00001F0D6FA2946012000F0B2FD4FF44071CC
:10510000022000F0ADFD41F23801032000F0A8FDBF
:105110004946082000F0A4FD08210A2000F0A0FD67
:105120000021302000F09CFD40F20241312000F0CF
:1051300097FD4FF48371322000F092FD40F203514D
:10514000332000F08DFD4FF48271342000F088FD93
:1051500040F20131352000F083FD2146362000F079
:105160007FFD40F20531372000F07AFD4FF40271E7
:10517000382000F075FD40F60B71392000F070FD0D
:105180000221412000F06CFD5946602000F068FDCE
:105190000121612000F064FD4FF40471902000F0C3
:1051A0005FFD4FF48571922000F05AFD0421932099
:1051B00000F056FD2946A02000F052FD01210720F5
:1051C00000F04EFD2121072000F04AFD2321072099
:1051D00000F046FD3321072000F042FD40F233117C
:1051E000072000F03DFD0021A02000F039FD62E124
:1051F0003021152000F034FD10219A2000F030FD00
:105200002021112000F02CFD43F22841102000F055
:1052100027FD0221122000F023FD41F23801132066
:1052200000F01EFD282001F03BFA1221084600F094
:1052300017FD282001F034FA43F22041102000F03D
:105240000FFD43F23801132000F00AFD462001F063
:1052500027FA0021302000F003FD40F20241312006
:1052600000F0FEFC40F20731322000F0F9FC4FF470
:105270004171332000F0F4FC0421342000F0F0FCF4
:1052800040F20141352000F0EBFC2146362000F0D1
:10529000E7FC40F20531372000F0E2FC4FF4C26336
:1052A0001946382000F0DCFC1946392000F0D8FC03
:1052B0002946012000F0D4FC4FF44071022000F098
:1052C000CFFC41F23001032000F0CAFC40F6080197
:1052D000082000F0C5FC08210A2000F0C1FC594656
:1052E000602000F0BDFC0121612000F0B9FC4FF40A
:1052F0009F71902000F0B4FC2946922000F0B0FC91
:105300002946932000F0ACFC4FF44051A02000F05F
:10531000A7FC1021A32000F0A3FC0121072000F02E
:105320009FFC2121072000F09BFC2321072000F097
:1053300097FC3321072000F093FC40F23311072043
:1053400000F08EFCB7E0E22000F07AFC1D2000F0B7
:1053500071FC022000F06EFC042000F06BFC642065
:1053600001F0B8F9E02000F06BFC012000F062FCD5
:105370000A2001F095F9E02000F062FC032000F023
:1053800059FC0C2001F08CF9012000F059FC0A2096
:1053900001F086F9E62000F053FC2F2000F04AFCD3
:1053A000FF2000F047FCFF2000F044FCB02000F09C
:1053B00047FC202000F03EFC002000F03BFC0320D6
:1053C00000F038FC40F21F3000F034FC012000F007
:1053D00031FC40F2DF1000F02DFC002000F02AFC30
:1053E000B42000F02DFC042000F024FC40F21F400B
:1053F00000F020FC002000F01DFC2E2000F01AFC24
:10540000002000F017FC002000F014FC002000F049
:1054100011FC002000F00EFCB62000F011FC022070
:1054200000F008FC4FF4037000F004FC002000F0D2
:1054300001FC172000F0FEFB152000F0FBFB002014
:1054400000F0F8FB002000F0F5FBF02000F0F8FB86
:10545000032000F0EFFB292000F0F2FBD02000F049
:10546000EFFB002000F0E6FBBE2000F0E9FB05208A
:1054700000F0E0FBFE2000F0DDFB012000F0DAFB95
:10548000002000F0D7FB002000F0D4FB002000F04B
:10549000D1FBB82000F0D4FB032000F0CBFB0120AF
:1054A00000F0C8FBBA2000F0CBFB012000F0C2FBEB
:1054B000642000F02BF80020FCF7DAFB0448C0F869
:1054C00080813846FCF79CFB1FB0BDE8F08F0000E0
:1054D000008021420346012000E05843491EC9B222
:1054E000FBD2704708B5034800880090BDF8000063
:1054F00008BD00000008006C10B500F0A1FB0520FD
:1055000001F0E8F8BDE81040FFF7ECBF10B5024627
:10551000BE2000F095FB052000F08CFB104601F04A
:10552000B4FE4FF066320B4B01F0C2FE01F080FE7C
:1055300080B200F07FFB012000F07CFBFF2000F038
:1055400079FB002000F076FBBDE81040002000F061
:1055500071BB000066660440F0B50023834C46F63C
:1055600004072146A279898841F66315012A03D1EF
:10557000B94201D0A94202D1C2B9A94216D1082824
:1055800014D2DFE800F00406080A0C0E1012062000
:105590000CE007200AE0042008E0052006E00120D6
:1055A00004E0002002E0032000E00220A1F5134CFB
:1055B00045F2103245F21056BCF1410C07D0B94209
:1055C00005D0914203D0B14201D0A9427DD1082833
:1055D00012D2DFE800F0110406080A0C0E10802336
:1055E0000AE0402308E0C02306E0202304E0602313
:1055F00002E0A02300E0E023B14202D14FF4585072
:1056000000E03620914205D0B14203D0A94201D03A
:1056100043F00803B94201D143F00203194600F0F8
:105620001FFBA288AA420ED0980606D52088618862
:10563000884208D22180608005E020886188884205
:1056400001D921806080B24249D1608900F0F8FA26
:10565000002000F0EFFA6089401C80B200F0F0FA00
:10566000002000F0E7FA6089801C80B200F0E8FAC0
:105670002088401EC0F30F2000F0DCFA6089C01CB7
:1056800080B200F0DDFA2078401EC0B200F0D2FAFD
:10569000A08900F0D5FA002000F0CCFAA089401CC7
:1056A00080B200F0CDFA002000F0C4FAA089801C7E
:1056B00080B200F0C5FA6088401EC0F30F2000F0F1
:1056C000B9FAA089C01C80B200E032E000F0B8FA5C
:1056D000A078BDE8F040401EC0B200F0ABBA6089CF
:1056E00000F0AEFA002000F0A5FA002000F0A2FAC7
:1056F0002088401EC0F30F2000F09CFA2078401E46
:10570000C0B200F097FAA08900F09AFA002000F0E9
:1057100091FA002000F08EFA6088401EC0F30F203E
:1057200000F088FAA078BDE8F040401EC0B200F05A
:1057300081BA082812D2DFE800F0040608110A0C2A
:105740000E1030230AE0102308E0202306E038235F
:1057500004E0282302E0182300E00823032043F498
:105760008051BDE8F04000F07BBA000068050020E1
:105770002DE9F04102460B46584E1F0A3046B188CB
:105780004089A1F513444FEA1228413C1AD0A1F5F3
:10579000A644103C16D03446A1F5D04CA5792488F7
:1057A000A41A641EBCF1040C1FD0A1F5C85CBCF1A6
:1057B000630C30D0A1F5A04CBCF5A26C65D0012DD6
:1057C0007DD082E000F03CFA404600F033FAD0B2DF
:1057D00000F030FAB08900F033FA384600F02AFAC7
:1057E000BDE8F041D8B200F025BA012D00D1A2B237
:1057F00000F026FA100A00F01DFAD0B200F01AFAF2
:10580000B08900F01DFA384600F014FABDE8F04106
:10581000D8B200F00FBA45B300F012FA404600F0DB
:1058200009FAD0B200F006FA3088401EC0F30F200B
:1058300000F000FA3078401EC0B200F0FBF9B089E9
:1058400000F0FEF9384600F0F5F9D8B200F0F2F9B0
:105850007088401EC0F30F2000F0ECF9B078BDE86E
:10586000F041401EC0B200F0E5B9A2B200F0E8F984
:10587000002000F0DFF9002000F0DCF9100A00F051
:10588000D9F9D0B200F0D6F9D9E700F0D9F94046FD
:1058900000F0D0F97089401C80B200F0D1F9D0B28C
:1058A00000F0C8F9B08900F0CBF9384600F0C2F931
:1058B000B089401C80B200F0C3F9D8B200E003E028
:1058C000BDE8F04100F0B6B9A2B2114600F0C8F947
:1058D000B089BDE8F041194600F0C2B96805002062
:1058E0002DE9F84F82460C461F46A346780701D0A3
:1058F000012000E0002000EBD70079084843C0B247
:105900000090203A02F0FF09002649E00C2F14D045
:10591000102F19D0182F46D1244909EBC90001EBEB
:105920008000855D4FF00008280612D520482146EA
:1059300002885046FCF73CFA13E01E4909EB490087
:1059400001EB8000855DEDE71B4800EB0910855DEC
:10595000E8E70A9828B91648214642885046FCF7DD
:1059600027FA6806050E641CA4B214484088A042B9
:1059700019D9A4EB0B00B84209D15C460AF1010A1F
:105980001FFA8AFA0D48008850450CD906E008F144
:10599000010808F0FF08B8F1080FC5D3761CF6B26D
:1059A00000988642B2D3BDE8F88F0000B499000891
:1059B00088000020508F0008C4930008680500206C
:1059C0002DE9F84F82460C461E46A346700701D0CB
:1059D000012000E0002000EBD6007043C0B2009030
:1059E0004FF0FF390C2E15D0102E7CD100201778E7
:1059F000484B00EB400101EB001153F8211091F8E6
:105A000000C067451FD192F801C049788C451AD172
:105A100081461CE0002017783F4B00EB400101EB72
:105A2000001153F8211091F800C0674506D192F893
:105A300001C049788C4501D1814608E0401CC0B2C4
:105A40000F28EAD303E0401CC0B20F28D1D3B9F12C
:105A5000FF3F5CD0002757E00C2E04D0102E0CD056
:105A6000182E14D01CE009EB490000EB09112A485C
:105A700000EB81003844057912E009EB490000EBA6
:105A80000911244800EB81003844057908E009EB4E
:105A90004900224900EB091001EB800038440579E8
:105AA0004FF00008280606D51D48214602885046BA
:105AB000FCF77EF907E00A9828B919482146428880
:105AC0005046FCF775F96806050E641CA4B215482B
:105AD0004088A0421BD9A4EB0B00B0420BD15C461E
