:020000040800F2
:10000000780A0020F10100087B5A0008671B0008ED
:10001000795A0008F313000811640008000000007A
:10002000000000000000000000000000A55E0008C5
:100030002914000800000000A15D0008D35F00083B
:100040000B0200080B0200080B0200080B0200085C
:100050000B0200080B0200080B0200080B0200084C
:100060002D140008591400080B0200080B020008A8
:100070000B0200080B0200080B0200080B0200082C
:100080000B0200080B0200080B0200080B0200081C
:100090000B0200080B0200080B0200080B0200080C
:1000A0000B0200080B0200080B0200080B020008FC
:1000B0000B020008256000080B0200080B02000874
:1000C0000B0200080B0200080B0200080B020008DC
:1000D0000B020008556200080B0200080B02000822
:1000E0000B0200080B0200080B0200080B020008BC
:1000F0000B0200080B0200080B0200080B020008AC
:100100000B0200080B020008296100080B0200081E
:100110000B0200080B0200080B0200080B0200088B
:100120000B0200080B0200080B0200080B0200087B
:1001300000F002F800F04DF80AA090E8000C8244AC
:100140008344AAF10107DA4501D100F042F8AFF289
:10015000090EBAE80F0013F0010F18BFFB1A43F0A5
:10016000010318473C9100005C910000103A24BF45
:1001700078C878C1FAD8520724BF30C830C144BF0C
:1001800004680C607047000000230024002500264E
:10019000103A28BF78C1FBD8520728BF30C148BFEA
:1001A0000B607047662907F06880642900F076804C
:1001B000782900F0AF80002070471FB500F0DAFB0F
:1001C00004000020002106F039FBE0601FBD10B5DF
:1001D00010BD00F0E7FC1146FFF7EFFF06F0CAF98B
:1001E00000F005FD03B4FFF7F2FF03BC06F02CF9A5
:1001F0000948804709480047FEE7FEE7FEE7FEE7BB
:10020000FEE7FEE7FEE7FEE7FEE7FEE704480549F6
:10021000054A064B70470000D55F00083101000811
:1002200078040020780A0020780600207806002054
:10023000704700000FB4044910B503AA029800F0FB
:1002400087FB10BC5DF814FB4C00002070B5044621
:1002500085690068C10601D5302600E02026C00768
:1002600007D070BDD4E9012130469047206A401C78
:1002700020626D1EF6D570BD70B5044685690078A4
:10028000C00707D170BDD4E9012120209047206A22
:10029000401C20626D1EF6D570BD00002DE9F041B6
:1002A0000646002410687529314616A510D0AFF314
:1002B0000080002802DA404213A507E031688A076F
:1002C00001D512A502E0490704D511A5012401E0DA
:1002D000AFF3008000210A2206F1240709E0B0FBF9
:1002E000F2FCB0FBF2F302FB1C00303078541846ED
:1002F000491C0028F3D123462A463046BDE8F04188
:1003000000F0BFB8000000002D0000002B0000002E
:100310002000000070B504460D4621461068AFF37A
:1003200000802188090502D50F4A7A4402E00E4A6E
:100330007A440E32002104F1240305E000F00F0698
:100340000009965D5E54491C0028F7D120780023EF
:10035000000704D5702D02D009B1022311322046C6
:10036000BDE8704000F08DB8328E00002DE9F047F6
:100370004FF0000A89460446C0F820A02046E168F4
:100380008847002876D0252806D0D4E90121904757
:10039000206A401C2062F1E7E1682046002588477A
:1003A000C4F81CA006460027C4F818A02A2E09D0BD
:1003B000304606F042F838B304EB8708303EC8F800
:1003C000186019E059F8041B204604EB870291617C
:1003D000E1688847012F064618D1E069002820DA35
:1003E00025F020051DE0D8F8180000EB800006EB92
:1003F00040003038C8F818002046E16888470646B3
:1004000006F01BF80028EED1012F0AD02E2E08D1BD
:100410002046E16888477F1C0646022F45F02005EC
:10042000C4DBA069002803DA404245F00105A06161
:10043000E80701D025F01005B6B1A6F14100192852
:1004400002D8203645F400654A46314620462560EC
:100450004D46FFF7A7FE58B1012806D0ED1D25F047
:10046000070000F1080989E704E005F1040985E7C0
:1004700030468AE7206ABDE8F087704770477047CA
:1004800070472DE9F0470D4699469246044600F123
:1004900024080168880604D5E06921F01001216074
:1004A00000E00120A84201DD471B00E00027A16910
:1004B0007A1902EB0900081AA0612078C00602D45C
:1004C0002046FFF7C3FE002608E0D4E901211AF810
:1004D00006009047206A401C761C20624E45F4DBE3
:1004E0002078C0060AD52046FFF7B0FE06E0D4E922
:1004F000012130209047206A401C2062381EA7F15D
:100500000107F4DC07E0D4E9012118F80500904761
:10051000206A401C2062281EA5F10105F3DC20465C
:10052000FFF7AAFE2078000602D50220BDE8F0877A
:100530000120FBE770472DE9FF4F0C461E464FF0A8
:10054000FF378BB0D2E90001DDF860800A908A465F
:10055000C1F30A5505B93D46002108464FF0000099
:10056000BAF1000F00F4400005DA00EB80004FF410
:10057000400101EA50004FEA9059B9F1010F00DD46
:10058000B9460A9850EA4A000ED044F61050A5F237
:10059000FF3545432F14B8F1000F1ED07542291EB8
:1005A0001EDDC9F100021CE0B8F1010F4FF00000A0
:1005B00001D0302103E0F24305E02154401CB04259
:1005C000FBDB30460022002121540B99C1F8088042
:1005D000C1E900200FB0BDE8F08FBD1B6D1CDEE748
:1005E0004A4600DA694206A800F066FA06AB93E8CC
:1005F000070003AB83E8070050460A9900F03EFB72
:100600008DE80700A0F500501F3800900398002DDA
:1006100009DD42F21F014A46084403A903906846D7
:1006200000F09DFD08E0A0F500504A461F3803A9E0
:100630000390684600F0A7FD8DE807000004000C59
:1006400003D04FF0FF30410800E01046B8F1000F32
:1006500003D00022009215461EE0751E05D400F05E
:100660008DF9303262556D1EF9D5B346012208432B
:1006700002D000227F1C04E02078302801D1002223
:100680007F1E002A099786D01DE0112D07DA00F0A1
:1006900075F9303262556D1C50EA0102F5D10843FC
:1006A00002D00098C8B10EE00021681E05E0235C6E
:1006B000625C63542254401E491C8142F7DBAB4606
:1006C000A81B401E0990002004F80B000B98099A03
:1006D000C0F80880C0E9002B7CE711264FF0000825
:1006E00059E72DE9F04F88460446D21D22F0070154
:1006F00091B0D1E90001CDE90A0105F08AFE024678
:100700000B98C00F01D02D2007E02068810701D58C
:100710002B2002E0202101EAC000032A099001D029
:10072000072A05DB03464146204600F085F90BE128
:100730002078800601D5E06900E00620B8F1650F59
:10074000814606D0B8F1660F18D0B8F1670F70D1A6
:1007500031E00020B9F1110F009001DB112301E01D
:1007600009F101030AAA01A90CA8FFF7E4FEDDE9DB
:100770000C70002609F10105834647E001204B4635
:1007800000904FF000470AAA01A90CA8FFF7D3FE7A
:10079000DDE90DB00C995D46002610B909F10100A4
:1007A0000D18B9EB050003D4C0F1FF3609F10105BE
:1007B000A5EB09002BE0B9F1010F01DA4FF00109B7
:1007C0000020B9F1110F0090484601DD112300E02F
:1007D00003460AAA01A90CA8FFF7ADFEDDE90C70DB
:1007E0004D4600268346207800070AD4AB4500DA40
:1007F0005D4601A8012D04DD411911F8011C3029C5
:1008000007D04F4502DA17F1040F04DA01208246BF
:100810000FE06D1EEEE7002F02DCED1B3E4403E00F
:10082000781CA84200DD7D1CB81B00F1010A4FF0C6
:1008300000472078000703D4AA4501DB4FF0FF3AB8
:100840000021B7F1004F0DF143088DF8431024D07B
:1008500002202B23002F01DA7F422D230A21021EC2
:10086000A0F1010000DC5FB197FBF1FC97FBF1F216
:1008700001FB1C7C17460CF1300C08F801CDEEE7AB
:10088000A8F1010003702188090501D5452100E088
:100890006521A0F1010800F8011C09980FA9A1EB3E
:1008A0000807FF1D00B10120411901EBEA70A169A1
:1008B0003844081A401EA0612078C00602D42046A1
:1008C000FFF7C4FC099828B1D4E901219047206AB8
:1008D000401C20622078C00622D52046FFF7B6FCD7
:1008E0001EE0002E04DBB34502DD01A8805D00E0C0
:1008F0003020D4E901219047206A401C2062761CF8
:10090000AAF101005FEA000A0AD100F033F8C068DA
:100910000168405CD4E901219047206A401C2062B4
:10092000281EA5F10105DCDC07E0D4E9012118F857
:10093000010B9047206A401C2062381EA7F1010776
:10094000F3DC2046FFF798FC032011B043E60000DB
:10095000074B70B50D467B4400F05BF80446284613
:1009600000F018F910B14FF0FF3070BD204670BD97
:10097000975B0000004870473804002030B5B0F1A4
:100980000A024FEA900E71F100034EEA817EB0EB4D
:100990000E0061EB91014FEA101E4EEA017E10EB52
:1009A0000E0041EB11114FEA102E4EEA016E10EBD2
:1009B0000E0041EB11214FEA104E4EEA014E10EBB2
:1009C0000E0041EB1141401841F100014FEAD00007
:1009D00040EA41704FEAD10110EB80054FEA8104F3
:1009E00044EA907444EB01046D1944EB0404521B77
:1009F000A3414FF0000348BF0A3200D530BD401C70
:100A000041F1000130BD000001694A1C0261087813
:100A1000704700B58FB0CDE901310021059105493E
:100A20007944CDE9031011466846FFF79FFC0FB0EB
:100A300000BD0000E5FFFFFF2DE9F0411F46044621
:100A400003260168072A01F4006004DB08B116A53B
:100A500005E016A503E008B115A500E015A521F0F5
:100A600010002060A069C01EA0610FB1401EA061EF
:100A70002046FFF7EBFB4FB1D4E901213846904700
:100A8000206A401C2062C01C206206E0206AFAE74F
:100A9000D4E9012115F8010B9047761EF8D22046C3
:100AA000FFF7EAFBBDE8F0814E414E006E616E003B
:100AB000494E4600696E66002DE9F04781461646AC
:100AC0008AB0334878440DC88DE80D00304878442A
:100AD000801C03AC0DC884E80D0041F69B3008442F
:100AE000372190FBF1F290FBF1F5A5F1800501FBB8
:100AF00012041B3C02D56442012000E00020DFF814
:100B000090A080460027FA44AAF1BE0A0DE0E00753
:100B100009D03246684607EB47010AEB810100F035
:100B200032FB8DE8070064107F1C002CEFD1184FBA
:100B30007F44AC3F18E0E80714D007EB04100DF138
:100B4000180A90E80E008AE80E00C068F04201D151
:100B500098190890324606A903A800F014FB03ABCD
:100B600083E807006D10641C002DE4D1324669460D
:100B7000B8F1000F03A802D000F0F1FA01E000F094
:100B800002FBC9E90001C9F808200AB0BDE8F087F6
:100B90003C870000007B00F08000704700487047F1
:100BA000180400207546FFF7F9FFAE4605006946B8
:100BB000534620F00700854618B020B5FFF726FB06
:100BC000BDE820404FF000064FF000074FF000084E
:100BD0004FF0000B21F00701AC46ACE8C009ACE8CF
:100BE000C009ACE8C009ACE8C0098D4670470446AE
:100BF000AFF300802046FFF7F5FA00004FF0013C0C
:100C000050F8042B51F8043B9A4221D1A2EB0C037B
:100C1000934313EACC1317D150F8042B51F8043B3B
:100C20009A4215D1A2EB0C03934313EACC130BD1D8
:100C300050F8042B51F8043B9A4209D1A2EB0C0363
:100C4000934313EACC13DBD04FF00000704700BF92
:100C5000D01A01BAB1FA81F101F0180122FA01F0BB
:100C6000CB40C1F12001DBB2C0B2C01A2CFA01F3B3
:100C7000D11A914311EAC311E6D170475FEA400CE3
:100C800008BF91F0000F4FEA8C234FEAC12243EADC
:100C900051514FEA1C5018BF00F5F0404FEA3000A8
:100CA00018BF41F000415FEA6C5C00F02980BCF1A4
:100CB000FF3F08BF40F080407047130C06BF12048E
:100CC0004FF0100C4FF0000C130E04BF12020CF189
:100CD000080C130F04BF12010CF1040C930F04BF96
:100CE00092000CF1020CD30F04BF52000CF1010C66
:100CF00011464FF00002A0F11F00A0EB0C0070475E
:100D000011F0004F08BF704731F000413FF4D5AFFC
:100D10000B0C06BF09044FF0100C4FF0000C0B0E2B
:100D200004BF09020CF1080C0B0F04BF09010CF100
:100D3000040C8B0F04BF89000CF1020CCB0F04BF15
:100D400049000CF1010CCCF12003A0EB0C0022FABD
:100D500003F302FA0CF241EA030100F101007047CB
:100D600020F07F4C80EA030023F07F47ACEB0703C1
:100D700003F57C5300F0004003F1FF032DE98049A7
:100D80004FEA154B09B44FEA144325EA0B4E24EA07
:100D900003480FF2042606EB132749083E785FEA62
:100DA000320203FB0667C7F5000707FB06F64FEAAA
:100DB00054374FEAD64606F1020607FB066CCCF123
:100DC000005C4FEA1C472CEA074C07FB06F40CFBBF
:100DD00006F504EB15464FEA961634BF00204FF097
:100DE00000404FEAD13706FB07FC4FEA1C4C0CFBD6
:100DF0000BF7D21B03FB0CF761EB07010CFB0EF7A3
:100E0000B0EB074072EB17420CFB08F734BFA2EBC4
:100E10000742B2EB074261EB17414FEA0C444FEA3D
:100E2000910706FB07FC4FEA1C4C0CFB0BF7B0EBE1
:100E3000C74072EB573203FB0CF734BFA2EBC7423B
:100E4000B2EBC74261EB57310CFB0EF7B0EBC700BA
:100E500072EB57720CFB08F734BFA2EBC702B2EB80
:100E6000C70261EB5771039F4FEA816141EA92111A
:100E700004EBCC044FEAD1374FEA826206FB07FC51
:100E800042EA90124FEA80604FEA1C4C0CFB0BF7D1
:100E9000D21B03FB0CF761EB07010CFB0EF7B0EB69
:100EA000074072EB17420CFB08F734BFA2EB074276
:100EB000B2EB074261EB17414FEA8C554FEA9107BD
:100EC00004EB9C2406FB07FC4FEA1C4C0CFB0BF7C5
:100ED000B0EBC74072EB573203FB0CF734BFA2EB09
:100EE000C742B2EBC74261EB57310CFB0EF7B0EBD8
:100EF000C70072EB57720CFB08F734BFA2EBC702B6
:100F0000B2EBC70261EB577115EB4C254FEA8161DB
:100F100041EA92114FEA82624FEAD13742EA9012D7
:100F200006FB07FC44F100044FEA80604FEA1C4CCA
:100F30000CFB0BF7D21B03FB0CF761EB07010CFB5F
:100F40000EF7B0EB074072EB17420CFB08F734BF0B
:100F5000A2EB0742B2EB074261EB174115EB1C1500
:100F60004FEA813141EA92414FEA823242EA9042AD
:100F70004FEA80304FEA0C7644F1000448EA03431C
:100F80004EEA0B484FF0000EB2EB080C71EB030772
:100F900024BF624639464EEB0E0E4FF0000B001890
:100FA000524149414BEB0B0BB2EB080C71EB0307C1
:100FB0007BF1000B24BF624639464EEB0E0E4FF01C
:100FC000000B0018524149414BEB0B0BB2EB080CE4
:100FD00071EB03077BF1000B24BF624639464EEBF1
:100FE0000E0E51EA020718BF46F0010616EB0E7608
:100FF00055F1000254F1000103D5BDE88901BDE8B7
:101000000088BDE88901BDE80048B619524141EBAE
:101010000101A3F10103704780807F7E7D7C7B7A94
:101020007978777676757473727171706F6E6E6D94
:101030006C6C6B6A6A69686867666665646463633A
:1010400062616160605F5F5E5E5D5D5C5C5B5B5AC0
:101050005A5959585857575656555555545453532D
:1010600052525251515050504F4F4F4E4E4D4D4D88
:101070004C4C4C4B4B4B4A4A4A49494948484847D3
:101080004747474646464545454444444443434311
:101090004342424242414141002B26D4770021D0B5
:1010A0001CB54FEA370703B44FF010004FF01001A2
:1010B0004FF000000FBCBDE810400BF1010BBBF17D
:1010C000010F08BF5FEA170722BF12F1010211F1F9
:1010D00001014FF0004143F1000300F0004043EAFA
:1010E00000007047F9D35708DAE746EA064613F1DD
:1010F000400F4FEA16461FDD13F1200FDFBF1643E6
:101100000A46002120335B42C8D0C3F1200746EADB
:10111000064602FA07F74FEA164646EA0706C3F103
:10112000200722FA03F201FA07F721FA03F14FF040
:10113000000342EA0702B1E746EA020646EA06462B
:101140004FEA164646EA0106BCBF46EA0646360C9A
:101150004FF000034FF000024FF000019EE72DE931
:10116000C048934630B491E8380007C831EA400CD3
:1011700048BF34EA430C03D5FFF7F2FDFFF78CFFBD
:10118000F0BCBDE800882DE9C048934630B491E832
:10119000380007C810F0804F08BF13F0804F03D10C
:1011A00000F005F8FFF778FFF0BCBDE8008820F0FC
:1011B0007F4780EA030023F07F4C07EB0C03A3F585
:1011C0007C5300F00040A3F1FE0392F0000F00F00A
:1011D000B38095F0000F00F077802DE901494FEAC8
:1011E00011404FEA144621EA004800FB06FC24EABD
:1011F000064708FB06F607FB08F800FB07F718EBA5
:1012000006484CEB164C4FEA124B18EB07484FEAD6
:1012100015464CEB174022EA0B4E0BFB06FC25EA69
:1012200006470EFB06F607FB0EFE0BFB07F71EEB51
:10123000064E4CEB164C4FF000061EEB074E4CEBE7
:10124000174B18EB0B0840F1000018EB0E0B58EB96
:10125000000840F100008F1A4FF000013CBFC94365
:10126000661B14BFB5EB040C00213CBFC943F61B41
:101270004FEA17444EEA8E0E27EA04454FEA1C4710
:1012800004FB07622CEA074C05FB07F70CFB05F68D
:1012900004FB0CFC16EB074642EB174216EB0C4620
:1012A00042EB1C421BEB060658EB0202414146EAA8
:1012B0009E0601D5BDE80189B619524141EB0101F5
:1012C000A3F10103BDE801894FEA14454FEA114734
:1012D00024EA054621EA074C05FB07F406FB07F75D
:1012E0000CFB06F105FB0CFC11EB074144EB17442A
:1012F0004FEA124711EB0C4144EB1C4422EA074C25
:1013000005FB07F206FB07F70CFB06F605FB0CFCDA
:1013100016EB074642EB174216EB0C4642EB1C4518
:101320006A1854F1000148BF7047B619524141EBA9
:101330000101A3F10103704795F0000F37D04FEA88
:1013400011424FEA144721EA024624EA074C02FB05
:1013500007F106FB07F70CFB06F402FB0CFC14EB91
:10136000074441EB17414FEA154714EB0C4441EB9E
:101370001C4125EA074C02FB07F506FB07F70CFBAF
:1013800006F602FB0CFC16EB074645EB174516EB81
:101390000C4645EB1C42121951F1000148BF704741
:1013A000B619524141EB0101A3F1010370474FEA25
:1013B00014454FEA114724EA054621EA074C05FB8C
:1013C00007F106FB07F70CFB06F24FF0000605FBE2
:1013D0000CFC12EB074241EB174112EB0C4251EBB4
:1013E0001C4148BF7047921841EB0101A3F1010372
:1013F0007047FEE710B500F0C1F80849086005F035
:10140000EAFB02460B460648064905F05FFA05F07E
:101410002BFABDE81040014605F0BCBD6400002079
:10142000DBF97E6AB8A8AB417047000010B50A200E
:1014300005F02AF80421064800F08AFB18B905488F
:101440000178491C0170BDE81040042000F056B836
:10145000001401406C00002010B50A2005F014F8BB
:101460000821064800F074FB18B905480178491EA8
:101470000170BDE81040082000F040B800140140A1
:101480006C0000203EB500F06FFB0121084604F01F
:10149000A5FC0221032000F0C5FA042001900020E1
:1014A0008DF808000C208DF8090001248DF80A4001
:1014B00001A800F029F80321084600F0B3FA082536
:1014C000019501A800F020F88DF8005002258DF854
:1014D000015003208DF802008DF80340684604F0A7
:1014E000CDFA09208DF800008DF801508DF80250DA
:1014F0008DF80340684604F0C1FA3EBD014908601A
:10150000704700001404014030B51B4A837901681C
:10151000002B2AD013688B431360111D0B680468DD
:10152000A3430B60017911440B68046823430B60EB
:10153000114C08342168036899432160231D196800
:101540000568A94319604179102905D011440A683A
:10155000006802430A6030BD2168026811432160BF
:10156000196800680143196030BD007910440268B1
:101570008A43026030BD00000004014010B500281D
:1015800006D001280FD0022818D003282BD120E044
:10159000002000F0ADF9C0F30B04012000F0A8F921
:1015A00040EA04411FE0022000F0A2F9C0F30B045E
:1015B000032000F09DF940EA044114E0042000F00B
:1015C00097F9C0F30B04052000F092F940EA0441BA
:1015D00009E0062000F08CF9C0F30B04072000F0AE
:1015E00087F940EA044121F0704010BD10B500F0C9
:1015F0006CF800F089F87E2000F07AF9A0F5A84197
:10160000493901D0012010BDFB223421082004F00B
:10161000A5FCFB223421092004F0A0FCFB2234218C
:101620000A2004F09BFCFB2234210B2004F096FCE2
:101630001B220021102004F091FC1B22002111200C
:1016400004F08CFC1B220021122004F087FC1B22DA
:101650000021132004F082FC02222021142004F037
:101660007DFC02222021152004F078FC022220219A
:10167000162004F073FC02222021172004F06EFCD7
:10168000002278211E2004F069FC002278211F200E
:1016900004F064FC00227821202004F05FFC00228A
:1016A0007821212004F05AFC00221146192004F070
:1016B00055FC0D22C2211B2004F050FC01221421F4
:1016C0001A2004F04BFC002010BD704770B50A4C86
:1016D000002525600948016821F470410160016816
:1016E00041F440510160656000F00AF8012020607B
:1016F00000F006F8256070BDA8812142040C01406D
:10170000022004F0DBBE000038B50121082004F0FF
:1017100065FB4FF44064ADF8004010208DF80300E5
:1017200003208DF80200054D6946284600F08EF929
:101730002146284600F015FA38BD0000000C014093
:1017400070B50A4C002525600948016821F47041F4
:101750000160016841F44051016001266660FFF7B5
:10176000CFFF2660FFF7CCFF256070BDA881214226
:10177000040C01402DE9F04781460024154801681A
:1017800021F470410160016841F4004101600025CD
:10179000114E00274FF00108C6F8A871FFF7B0FFFF
:1017A000C6F8A8816006040ED6F82C0108B1641CA6
:1017B000E4B2FFF7A5FF6D1CEDB2082DECD3B9F133
:1017C000000F04D0FFF782FF2046BDE8F087FFF747
:1017D000B7FFF9E7040C0140008021422DE9F041F8
:1017E00005461148016821F470410160016841F427
:1017F000405101600D4E4FF00008C6F8A88100244A
:101800000127E809C6F8AC016806050EC6F8A871FC
:10181000FFF776FFC6F8A881FFF772FF641CE4B2F9
:10182000082CEED3BDE8F081040C01400080214279
:1018300070B50A48016821F470410160016841F403
:1018400040510160064C012060602060FFF758FFA6
:1018500000256560FFF754FF256070BD040C014052
:10186000A881214210B50B48016821F47041016044
:10187000016841F440510160074C00202060606025
:10188000FFF73EFF012020606060BDE81040FFF7D9
:1018900037BF0000040C0140A881214270B500242C
:1018A0001148016821F470410160016841F4004170
:1018B00001600E4D0126C5F8AC61FFF721FFC5F8A8
:1018C000A861FFF71DFF07E0641CE4B2FA2C03D9FE
:1018D000FFF7C8FF012070BDD5F82C010028F3D117
:1018E000C5F8A80170BD0000040C01400080214231
:1018F00070B50446FFF79CFF5420FFF76FFFFFF71A
:10190000CDFF2046FFF76AFFFFF7C8FFFFF790FF04
:101910005520FFF763FFFFF7C1FF0120FFF72AFF04
:1019200005020020FFF726FF40EA0504FFF79AFFB3
:10193000204670BD8000A0F1C040002904D001689D
:1019400041F00101016070470168024A11400160E5
:1019500070470000FEFF0F0010B5D0E901121143DF
:10196000D0E903231A4311434269114382691143A9
:10197000C2691143026A1143426A1143826A1143E8
:10198000C26A1143026B114302689200A2F1C04285
:1019900011608168082907D101688900A1F1C0415F
:1019A0000A6842F040020A60416BD1E9002342EA32
:1019B00003128B688C891B0243EA04431A430B8A87
:1019C00042EA03520B7D896942EA03620A430168D5
:1019D000491C8900A1F1C0410A60C16AB1F5804F7C
:1019E00008D000686FF070418000A0F1C040C0F8DE
:1019F000041110BD816BD1E9002342EA03128B6808
:101A00000C8A1B0243EA04531A430B7D896942EA9C
:101A1000036200680A438000A0F1C040C0F80421BE
:101A200010BD000010B58A07120F0F23934021F05C
:101A30000304054921448C689C438C608B6890406A
:101A400003438B6010BD0000000001402DE9F04110
:101A50000022CC7804F00F03E40601D58C782343F0
:101A60000C784FF00F0714F0FF0F4FF0010C1CD053
:101A700005680CFA02F40E882640A64211D19600A1
:101A800007FA06F825EA080503FA06F848EA050504
:101A9000CE78282E02D0482E02D002E0446100E029
:101AA0000461521C082AE4D305600A88FF2A1ED963
:101AB0004568002202F108060CFA06F40E8826405A
:101AC000A64210D1960007FA06F825EA080503FA9F
:101AD00006F848EA0505CE78282E00D14461CE7874
:101AE000482E00D10461521C082AE3D34560BDE8AA
:101AF000F0810000F0B5154C002801DAE36900E040
:101B00006368C0F30346420D120185B2C0F301576A
:101B10009540032F07D0C2020CD50322B240934355
:101B200043F0706209E023F07062636823F0706331
:101B3000636002E0AB4343F0706201B12A430028C6
:101B400001DAE261F0BD6260F0BD0000000001401A
:101B50000246002092680A4200D00120704741618D
:101B6000704701617047FEE7F8B50121A82004F035
:101B700035F90825ADF8005048248DF80340694632
:101B80000F48FFF763FF0420ADF800008DF8034015
:101B90000C4E69463046FFF759FFADF800508DF8FE
:101BA000034069463046FFF751FF8021ADF8001031
:101BB0008DF8034069463046FFF748FFF8BD000046
:101BC000001C0140001401402DE9F04306460024AA
:101BD000174F38887D884543B888A0F5D04104392F
:101BE00002D1B879012807D00021084603F0A4FDEE
:101BF00003F014FF0F4916E00020B8714FF02A09D6
:101C0000A7F80A904FF02B08A7F80C80002108468F
:101C100003F092FD0120B871A7F80A80A7F80C9094
:101C2000E6E70E80641CAC42FBD3BDE8F083000005
:101C3000080400200008006C2DE9F04F4D492A23CC
:101C40002B24898845F2105C4FF430584FF4285902
:101C50004FF448754FF0F00A49F2413B4FF4A0773A
:101C600045F210364FF4F072002810D041484FF082
:101C7000010E80F806E00780A0F802A0594501D0C7
:101C8000B14240D12C250581438184815CE03948F3
:101C90004FF0000E80F806E0A0F800A047805945FC
:101CA00006D0A1F5D04ABAF1040A01D0B1420CD154
:101CB0002C25058143818481A1F5D043043B01D0CB
:101CC000B14249D10780428046E0614509D1A0F880
:101CD0000880A0F80A904FF42C5181810280458041
:101CE0003AE0A1F5C856633E06D0222101812021A9
:101CF0004181212181812FE02C2101814481838137
:101D00000280458028E0A1F5D04ABAF1040A0BD040
:101D100061450ED1A0F80880A0F80A904FF42C532A
:101D20008381058042800FE02C25058144818381D9
:101D30000AE0A1F5C85CBCF1630C12D02223038138
:101D40002123438120238381A1F5D043043B01D08B
:101D5000B14201D102804780BDE8F04F002003F07E
:101D6000DFBB4FF02C0CA0F808C0438184810580B4
:101D70004280E9E7080400202DE9F04103460C46C3
:101D800090464B4F220A3846B9881D0A4089A1F572
:101D90001346413E18D0A1F5A646103E14D0B6F524
:101DA000007623D03D46A1F5C85CAE792D88ED1AAA
:101DB0006D1EBCF1630C35D0A1F5D04CBCF1040C08
:101DC00051D0012E64D064E003F022FE284603F0D7
:101DD00019FED8B203F016FEB88903F019FE1046BA
:101DE00003F010FEE0B203F00DFE59E003F010FE28
:101DF000284603F007FE7889401C80B203F008FEF5
:101E0000D8B203F0FFFDB88903F002FE104603F0DC
:101E1000F9FDB889401C80B203F0FAFDE0B203F08E
:101E2000F1FD3DE006B9ABB203F0F2FD1D0A284614
:101E300003F0E8FDD8B203F0E5FD284603F0E2FD2B
:101E4000D8B203F0DFFDB88903F0E2FD104603F0DD
:101E5000D9FDE0B203F0D6FD104603F0D3FDE0B2A9
:101E600003F0D0FD1CE0012E00D1ABB203F0D0FD99
:101E7000180A03F0C7FDD8B203F0C4FDB88903F017
:101E8000C7FD104603F0BEFDE0B203F0BBFD07E066
:101E9000ABB2194603F0CCFDB889214603F0C8FD6A
:101EA000044938890880881CA0F80080BDE8F081CA
:101EB00008040020FE07006C2DE9F04F9FB00121BF
:101EC0000D02284603F06EFF01214FF4B47003F0B9
:101ED00085FF4FF00108ADF8788010278DF87B70F2
:101EE00003248DF87A401EA9FE48FFF7AFFD4CF29F
:101EF0003370ADF8780018268DF87B608DF87A4045
:101F00001EA9F948FFF7A2FD4FF68070ADF87800E2
:101F10008DF87B608DF87A401EA9F448FFF796FD96
:101F200041F20100ADF878008DF87B608DF87A40C1
:101F30001EA9EF48FFF78AFDCDF820800020099008
:101F40000F210A910B900C900D900E900190029031
:101F50000394049005900690079006210F9110902D
:101F600011901297139015901490169017902901C4
:101F70001891199089001A911B9008A81C9001A82B
:101F80001D900FA8FFF7E8FC01210620FFF7D2FC07
:101F9000322004F079FA002003F092FAD54CA080A8
:101FA00049F2413946F6040A45F2103B45F2105613
:101FB0004FF6FF77FF2804D3B84202D0B0F5134F95
:101FC00078D1D32003F024FD03F070FAA08003F051
:101FD0006DFAA08003F06AFA07EA0020A08003F0FF
:101FE00065FAA1880843A080484563D0BF2003F06C
:101FF0000FFD03F05BFAA08003F058FAA08003F015
:1020000055FAA08003F052FA07EA0020A08003F0FE
:102010004DFAA1880843A08050454BD0D42003F04E
:10202000F7FC03F043FAA08003F040FAA08003F02D
:102030003DFA07EA0020A08003F038FAA18808439F
:10204000A080584536D04FF45A4003F0E1FC03F02D
:102050002DFAA0804FF45B4003F0DAFC03F026FA7F
:1020600007EA0020A0804FF45C4003F0D1FC03F0AD
:102070001DFAA1880843A080B0F5004F00D1A680CA
:10208000A088B04216D0A12003F0C2FC03F00EFAE3
:10209000A08003F00BFA07EA0020A08003F006FA04
:1020A000A1880843A080A0F5AE41613902D141F674
:1020B0006310A080A18890A0FEF7BCF8A0884845D6
:1020C0007ED1CF2003F0A4FC002003F09BFCC120B4
:1020D00003F098FC302003F095FCED2003F098FC11
:1020E000642003F08FFC032003F08CFC122003F02B
:1020F00089FC812003F086FCE82003F089FC852020
:1021000003F080FC102003F07DFC7A2003F07AFCC1
:10211000CB2003F07DFC392003F074FC2C2003F06D
:1021200071FC002003F06EFC342003F06BFC0220F5
:1021300003F068FCF72003F06BFC202003F062FC46
:10214000EA2003F065FC002003F05CFC002003F0B3
:1021500059FCC02003F05CFC1B2003F053FCC120A1
:1021600003F056FC012003F04DFCC52003F050FCA9
:10217000302003F047FC302003F044FCC72003F07C
:1021800047FCB72003F03EFC362003F041FC48201A
:1021900003F038FC3A2003F03BFC552003F032FCFE
:1021A000B12003F035FC002003F02CFC1A2003F0D2
:1021B00029FCB62003F02CFC0A2003F023FC00E0ED
:1021C000AAE0A22003F01EFCF22003F021FC002074
:1021D00003F018FC262003F01BFC012003F012FC86
:1021E000E02003F015FC0F2003F00CFC2A2003F084
:1021F00009FC282003F006FC082003F003FC0E2055
:1022000003F000FC082003F0FDFB542003F0FAFB70
:10221000A92003F0F7FB432003F0F4FB0A2003F0AE
:10222000F1FB0F2003F0EEFB002003F0EBFB00209E
:1022300003F0E8FB002003F0E5FB002003F0E2FBE5
:10224000E12003F0E5FB002003F0DCFB152003F0A8
:10225000D9FB172003F0D6FB072003F0D3FB112096
:1022600003F0D0FB062003F0CDFB2B2003F0CAFBCC
:10227000562003F0C7FB3C2003F0C4FB052003F00D
:10228000C1FB102003F0BEFB0F2003F0BBFB3F207F
:1022900003F0B8FB3F2003F0B5FB0F2003F0B2FBC7
:1022A0002B2003F0B5FB002003F0ACFB002003F073
:1022B000A9FB012003F0A6FB3F2003F0A3FB2A208B
:1022C00003F0A6FB002003F09DFB002003F09AFB27
:1022D000002003F097FBEF2003F094FB112003F0A4
:1022E00097FB11E0000C0140001401400018014070
:1022F0000020014008040020204C43442049443A77
:1023000025780D0A00000000782004F0BDF829208F
:1023100003F07EFB03F0B3B850457CD1112003F0ED
:1023200077FB142004F0B0F8D02003F071FB0720F5
:1023300003F068FB422003F065FB1D2003F062FB05
:10234000D12003F065FB002003F05CFB1A2003F0B2
:1023500059FB092003F056FBD22003F059FB012062
:1023600003F050FB222003F04DFBC02003F050FB94
:10237000102003F047FB3B2003F044FB002003F058
:1023800041FB022003F03EFB112003F03BFBC52084
:1023900003F03EFB032003F035FBC82003F038FBBD
:1023A000002003F02FFB252003F02CFB212003F05D
:1023B00029FB052003F026FB002003F023FB0A2065
:1023C00003F020FB652003F01DFB252003F01AFB22
:1023D000772003F017FB502003F014FB0F2003F0CD
:1023E00011FB002003F00EFBF82003F011FB01208D
:1023F00003F008FBFE2003F00BFB002003F002FBC0
:10240000022003F0FFFA202003F002FB362003F045
:10241000FFFA082000E02CE003F0F4FA3A2003F081
:10242000F7FA552003F0EEFA2B2003F0F1FA002022
:1024300003F0E8FA002003F0E5FA012003F0E2FAE5
:102440003F2003F0DFFA2A2003F0E2FA002003F035
:10245000D9FA002003F0D6FA012003F0D3FADF20E6
:1024600003F0D0FA782004F00FF8292003F0D0FA16
:1024700050E758457ED1ED2003F0CAFA012003F061
:10248000C1FAFE2003F0BEFAEE2003F0C1FADE200E
:1024900003F0B8FA212003F0B5FAF12003F0B8FAFE
:1024A000012003F0AFFADF2003F0B2FA102003F0AE
:1024B000A9FAC42003F0ACFA8F2003F0A3FAC620D7
:1024C00003F0A6FA002003F09DFAE22003F09AFA46
:1024D000E22003F097FAE22003F094FABF2003F021
:1024E00097FAAA2003F08EFAB02003F091FA0D209B
:1024F00003F088FA002003F085FA0D2003F082FA39
:10250000002003F07FFA112003F07CFA002003F092
:1025100079FA192003F076FA002003F073FA2120EB
:1025200003F070FA002003F06DFA2D2003F06AFA30
:10253000002003F067FA3D2003F064FA002003F066
:1025400061FA5D2003F05EFA002003F05BFA5D2083
:1025500003F058FA002003F055FAB12003F058FABE
:10256000802003F04FFA002003F04CFA8B2003F098
:1025700049FA00E0FDE3002003F044FA962003F05E
:1025800041FA002003F03EFAB22003F041FA0020A5
:1025900003F038FA002003F035FA022003F032FA93
:1025A000002003F02FFA032003F02CFA002003F0A0
:1025B00029FAB32003F02CFA002003F023FA0020BC
:1025C00003F020FA002003F01DFA002003F01AFAAD
:1025D000002003F017FA002003F014FA002003F0A3
:1025E00011FA002003F00EFA002003F00BFA00208D
:1025F00003F008FA002003F005FA002003F002FAC5
:10260000002003F0FFF9002003F0FCF9002003F0A4
:10261000F9F9002003F0F6F9002003F0F3F90020A7
:1026200003F0F0F9002003F0EDF9002003F0EAF9DF
:10263000002003F0E7F9002003F0E4F9002003F0A4
:10264000E1F9002003F0DEF9B42003F0E1F98B207A
:1026500003F0D8F9002003F0D5F9962003F0D2F961
:10266000002003F0CFF9A12003F0CCF9002003F003
:10267000C9F9B52003F0CCF9022003F0C3F900201A
:1026800003F0C0F9032003F0BDF9002003F0BAF90C
:10269000042003F0B7F9002003F0B4F9B62003F0EA
:1026A000B7F9002003F0AEF9002003F0ABF9B72032
:1026B00003F0AEF9002003F0A5F9002003F0A2F921
:1026C0003F2003F09FF9002003F09CF95E2003F007
:1026D00099F9002003F096F9642003F093F90020A3
:1026E00003F090F98C2003F08DF9002003F08AF9B3
:1026F000AC2003F087F9002003F084F9DC2003F01C
:1027000081F9002003F07EF9702003F07BF90020AE
:1027100003F078F9902003F075F9002003F072F9C6
:10272000EB2003F06FF9002003F06CF9DC2003F0DC
:1027300069F9002003F066F9B82003F069F9002078
:1027400003F060F9002003F05DF9002003F05AF96E
:10275000002003F057F9002003F054F9002003F0A3
:1027600051F9002003F04EF9002003F04BF9BA2094
:1027700003F04EF9242003F045F9002003F042F95C
:10278000002003F03FF9002003F03CF9C12003F0E2
:102790003FF9202003F036F9002003F033F95420EC
:1027A00003F030F9002003F02DF9FF2003F02AF99F
:1027B000002003F027F9C22003F02AF90A2003F0D1
:1027C00021F9002003F01EF9042003F01BF900207A
:1027D00003F018F9C32003F01BF93C2003F012F9B1
:1027E000002003F00FF93A2003F00CF9002003F069
:1027F00009F9392003F006F9002003F003F9372026
:1028000003F000F9002003F0FDF83C2003F0FAF893
:10281000002003F0F7F8362003F0F4F8002003F06E
:10282000F1F8322003F0EEF8002003F0EBF82F204F
:1028300003F0E8F8002003F0E5F82C2003F0E2F8BC
:10284000002003F0DFF8292003F0DCF8002003F07B
:10285000D9F8262003F0D6F8002003F0D3F824207E
:1028600003F0D0F8002003F0CDF8242003F0CAF8DC
:10287000002003F0C7F8232003F0C4F8002003F081
:10288000C1F83C2003F0BEF8002003F0BBF836206E
:1028900003F0B8F8002003F0B5F8322003F0B2F8E6
:1028A000002003F0AFF82F2003F0ACF8002003F075
:1028B000A9F82C2003F0A6F8002003F0A3F82920A3
:1028C00003F0A0F8002003F09DF8262003F09AF80A
:1028D000002003F097F8242003F094F8002003F080
:1028E00091F8242003F08EF8002003F08BF82320C9
:1028F00003F088F8002003F085F8C42003F088F87E
:10290000622003F07FF8002003F07CF8052003F03C
:1029100079F8002003F076F8842003F073F80020A3
:1029200003F070F8F02003F06DF8002003F06AF86F
:10293000182003F067F8002003F064F8A42003F0E7
:1029400061F8002003F05EF8182003F05BF8002027
:1029500003F058F8502003F055F8002003F052F827
:102960000C2003F04FF8002003F04CF8172003F080
:1029700049F8002003F046F8952003F043F80020C2
:1029800003F040F8F32003F03DF8002003F03AF89C
:10299000E62003F037F8002003F034F8C52003F0F8
:1029A00037F8322003F02EF8002003F02BF84420F3
:1029B00003F028F8002003F025F8652003F022F842
:1029C000002003F01FF8762003F01CF8002003F02D
:1029D00019F8882003F016F8002003F013F8C62039
:1029E00003F016F8202003F00DF8002003F00AF899
:1029F000172003F007F8002003F004F8012003F08B
:102A000001F8002002F0FEFFC72003F001F80020CB
:102A100002F0F8FF002002F0F5FF002002F0F2FFC4
:102A2000002002F0EFFFC82002F0F2FF002002F0C9
:102A3000E9FF002002F0E6FF002002F0E3FF0020A3
:102A400002F0E0FFC92002F0E3FF002002F0DAFF0D
:102A5000002002F0D7FF002002F0D4FF002002F097
:102A6000D1FF002002F0CEFF002002F0CBFF0020BB
:102A700002F0C8FF002002F0C5FF002002F0C2FFF4
:102A8000002002F0BFFF002002F0BCFF002002F097
:102A9000B9FF002002F0B6FF002002F0B3FF0020D3
:102AA00002F0B0FF002002F0ADFFE02002F0B0FF26
:102AB000162002F0A7FF002002F0A4FF1C2002F065
:102AC000A1FF002002F09EFF212002F09BFF0020CA
:102AD00002F098FF362002F095FF002002F092FFEE
:102AE000462002F08FFF002002F08CFF522002F0FF
:102AF00089FF002002F086FF642002F083FF00209F
:102B000002F080FF7A2002F07DFF002002F07AFFC1
:102B10008B2002F077FF002002F074FF992002F072
:102B200071FF002002F06EFFA82002F06BFF002072
:102B300002F068FFB92002F065FF002002F062FF9A
:102B4000C42002F05FFF002002F05CFFCA2002F008
:102B500059FF002002F056FFD22002F053FF002060
:102B600002F050FFD92002F04DFF002002F04AFF92
:102B7000E02002F047FF002002F044FFF32002F0C3
:102B800041FF002002F03EFFE12002F041FF16204D
:102B900002F038FF002002F035FF1C2002F032FF67
:102BA000002002F02FFF222002F02CFF002002F074
:102BB00029FF362002F026FF002002F023FF4520E7
:102BC00002F020FF002002F01DFF522002F01AFF49
:102BD000002002F017FF642002F014FF002002F032
:102BE00011FF7A2002F00EFF002002F00BFF8B2075
:102BF00002F008FF002002F005FF992002F002FF1A
:102C0000002002F0FFFEA82002F0FCFE002002F0EF
:102C1000F9FEB92002F0F6FE002002F0F3FEC42017
:102C200002F0F0FE002002F0EDFECA2002F0EAFE03
:102C3000002002F0E7FED22002F0E4FE002002F0C5
:102C4000E1FED82002F0DEFE002002F0DBFEE020F4
:102C500002F0D8FE002002F0D5FEF32002F0D2FEF2
:102C6000002002F0CFFEE22002F0D2FE052002F0AA
:102C7000C9FE002002F0C6FE0B2002F0C3FE0020B9
:102C800002F0C0FE1B2002F0BDFE002002F0BAFEE2
:102C9000342002F0B7FE002002F0B4FE442002F01F
:102CA000B1FE002002F0AEFE4F2002F0ABFE00208D
:102CB00002F0A8FE612002F0A5FE002002F0A2FEB4
:102CC000792002F09FFE002002F09CFE882002F096
:102CD00099FE002002F096FE972002F093FE00205D
:102CE00002F090FEA62002F08DFE002002F08AFE87
:102CF000B72002F087FE002002F084FEC22002F01E
:102D000081FE002002F07EFEC72002F07BFE002044
:102D100002F078FED12002F075FE002002F072FE73
:102D2000D62002F06FFE002002F06CFEDD2002F0E3
:102D300069FE002002F066FEF32002F063FE002030
:102D400002F060FEE32002F063FE052002F05AFE6E
:102D5000002002F057FE0A2002F054FE002002F08C
:102D600051FE1C2002F04EFE002002F04BFE3320EC
:102D700000E0FDE202F046FE002002F043FE4420A7
:102D800002F040FE002002F03DFE502002F03AFE2C
:102D9000002002F037FE622002F034FE002002F034
:102DA00031FE782002F02EFE002002F02BFE88205B
:102DB00002F028FE002002F025FE972002F022FEFD
:102DC000002002F01FFEA62002F01CFE002002F0F0
:102DD00019FEB72002F016FE002002F013FEC220FA
:102DE00002F010FE002002F00DFEC72002F00AFEE5
:102DF000002002F007FED12002F004FE002002F0C5
:102E000001FED52002F0FEFD002002F0FBFDDD20DA
:102E100002F0F8FD002002F0F5FDF32002F0F2FDD3
:102E2000002002F0EFFDE42002F0F2FD012002F0AC
:102E3000E9FD002002F0E6FD012002F0E3FD0020A4
:102E400002F0E0FD022002F0DDFD002002F0DAFDDC
:102E50002A2002F0D7FD002002F0D4FD3C2002F031
:102E6000D1FD002002F0CEFD4B2002F0CBFD002072
:102E700002F0C8FD5D2002F0C5FD002002F0C2FD99
:102E8000742002F0BFFD002002F0BCFD842002F09F
:102E9000B9FD002002F0B6FD932002F0B3FD002042
:102EA00002F0B0FDA22002F0ADFD002002F0AAFD6C
:102EB000B32002F0A7FD002002F0A4FDBE2002F026
:102EC000A1FD002002F09EFDC42002F09BFD002029
:102ED00002F098FDCD2002F095FD002002F092FD59
:102EE000D32002F08FFD002002F08CFDDD2002F0E7
:102EF00089FD002002F086FDF32002F083FD002012
:102F000002F080FDE52002F083FD002002F07AFD52
:102F1000002002F077FD002002F074FD002002F096
:102F200071FD022002F06EFD002002F06BFD2920F1
:102F300002F068FD002002F065FD3C2002F062FD19
:102F4000002002F05FFD4B2002F05CFD002002F04B
:102F500059FD5D2002F056FD002002F053FD742063
:102F600002F050FD002002F04DFD842002F04AFDE9
:102F7000002002F047FD932002F044FD002002F003
:102F800041FDA22002F03EFD002002F03BFDB320F7
:102F900002F038FD002002F035FDBE2002F032FDC7
:102FA000002002F02FFDC42002F02CFD002002F0D2
:102FB00029FDCD2002F026FD002002F023FDD320C4
:102FC00002F020FD002002F01DFDDC2002F01AFDC1
:102FD000002002F017FDF32002F014FD002002F0A3
:102FE00011FDE62002F014FD112002F00BFD00207F
:102FF00002F008FD342002F005FD002002F002FD81
:10300000562002F0FFFC002002F0FCFC762002F0CB
:10301000F9FC002002F0F6FC772002F0F3FC00201F
:1030200002F0F0FC662002F0EDFC002002F0EAFC69
:10303000882002F0E7FC002002F0E4FC992002F076
:10304000E1FC002002F0DEFCBB2002F0DBFC0020F3
:1030500002F0D8FC992002F0D5FC002002F0D2FC4E
:10306000662002F0CFFC002002F0CCFC552002F0DC
:10307000C9FC002002F0C6FC552002F0C3FC002071
:1030800002F0C0FC452002F0BDFC002002F0BAFCBA
:10309000432002F0B7FC002002F0B4FC442002F010
:1030A000B1FC002002F0AEFCE72002F0B1FC3220BF
:1030B00002F0A8FC002002F0A5FC552002F0A2FCC2
:1030C000002002F09FFC762002F09CFC002002F021
:1030D00099FC662002F096FC002002F093FC672029
:1030E00002F090FC002002F08DFC672002F08AFCC8
:1030F000002002F087FC872002F084FC002002F010
:1031000081FC992002F07EFC002002F07BFCBB20B9
:1031100002F078FC002002F075FC992002F072FCAD
:10312000002002F06FFC772002F06CFC002002F01F
:1031300069FC442002F066FC002002F063FC56208B
:1031400002F060FC002002F05DFC232002F05AFC3B
:10315000002002F057FC332002F054FC002002F063
:1031600051FC452002F04EFC002002F04BFCE82010
:1031700002F04EFC002002F045FC002002F042FC70
:10318000992002F03FFC002002F03CFC872002F076
:1031900039FC002002F036FC882002F033FC0020CD
:1031A00002F030FC772002F02DFC002002F02AFC17
:1031B000662002F027FC002002F024FC882002F0A8
:1031C00021FC002002F01EFCAA2002F01BFC0020C3
:1031D00002F018FCBB2002F015FC002002F012FCEB
:1031E000992002F00FFC002002F00CFC662002F097
:1031F00009FC002002F006FC552002F003FC002030
:1032000002F000FC552002F0FDFB002002F0FAFB6A
:10321000442002F0F7FB002002F0F4FB442002F00F
:10322000F1FB002002F0EEFB552002F0EBFB00204A
:1032300002F0E8FBE92002F0EBFBAA2002F0E2FB3F
:10324000002002F0DFFB002002F0DCFB002002F097
:10325000D9FB002002F0DCFBAA2002F0D3FBCF2038
:1032600002F0D6FB002002F0CDFB002002F0CAFBEA
:10327000002002F0C7FB002002F0C4FB002002F097
:10328000C1FB002002F0BEFB002002F0BBFB0020CF
:1032900002F0B8FB002002F0B5FB002002F0B2FB08
:1032A000002002F0AFFB002002F0ACFB002002F097
:1032B000A9FB002002F0A6FB002002F0A3FB0020E7
:1032C00002F0A0FB002002F09DFBF02002F0A0FB2A
:1032D000002002F097FB502002F094FB002002F047
:1032E00091FB002002F08EFB002002F08BFBF3200C
:1032F00002F08EFB002002F085FBF92002F088FB33
:10330000062002F07FFB102002F07CFB292002F057
:1033100079FB002002F076FB3A2002F079FB552081
:1033200002F070FB112002F073FB642003F0ACF894
:10333000292002F06DFB352002F06AFB002002F02C
:1033400061FB512002F064FBFF2002F05BFB532085
:1033500002F05EFB2C2002F055FB552002F058FBDA
:10336000822002F04FFB2C2002F052FB02F087B8C3
:10337000B0427DD14FF470435521184602F058FBFE
:103380004FF20104AA21204602F052FB651C522193
:10339000284602F04DFBA61C0821304602F048FBEF
:1033A0004FF204090121484602F042FB0D214FF47F
:1033B000304002F03DFB0D214BF2010002F038FBE2
:1033C0000D214BF2020002F033FB4FF4364A342158
:1033D000504602F02DFB34214BF2016002F028FB35
:1033E00034214BF2026002F023FB4FF4314B0D21EC
:1033F000584602F01DFB0D214BF2011002F018FBA4
:103400000D214BF2021002F013FB34214FF4374030
:1034100002F00EFB34214BF2017002F009FB342163
:103420004BF2027002F004FB00214FF4324002F034
:10343000FFFA00214BF2012002F0FAFA00214BF2D0
:10344000022002F0F5FA24214FF4384002F0F0FA9D
:1034500024214BF6010002F0EBFA24214BF6020086
:1034600002F0E6FA01214FF43F4002F0E1FA00E0F9
:10347000FDE30F214FF4334002F0DAFA0F214BF253
:10348000013002F0D5FA0F214BF2023002F0D0FAEF
:1034900034214FF4394002F0CBFA34214BF60110BD
:1034A00002F0C6FA34214BF6021002F0C1FA0821EC
:1034B0004FF4354002F0BCFA08214BF2015002F003
:1034C000B7FA08214BF2025002F0B2FA03214FF48E
:1034D000424002F0ADFA24214FF43A4002F0A8FA3B
:1034E00024214BF6012002F0A3FA24214BF60220FE
:1034F00002F09EFA00214FF43C4002F099FA782144
:103500004BF6014002F094FA00214BF6024002F023
:103510008FFA00214FF43D4002F08AFA78214BF6F1
:10352000015002F085FA00214BF6025002F080FAB9
:1035300000214FF43E4002F07BFA64214BF601601B
:1035400002F076FA00214FF4514002F071FA332173
:103550004DF2011002F06CFA00214DF2021002F05F
:1035600067FA34214DF2031002F062FA00214DF2A5
:10357000041002F05DFA3A214DF2051002F058FAFB
:1035800000214DF2061002F053FA4A214DF20710C5
:1035900002F04EFA00214DF2081002F049FA5C21C7
:1035A0004DF2091002F044FA00214DF20A1002F027
:1035B0003FFA81214DF20B1002F03AFA00214DF250
:1035C0000C1002F035FAA6214DF20D1002F030FA7F
:1035D00000214DF20E1002F02BFAE5214DF20F10F2
:1035E00002F026FA01214DF2101002F021FA132107
:1035F0004DF2111002F01CFA01214DF2121002F0EE
:1036000017FA54214DF2131002F012FA01214DF273
:10361000141002F00DFA82214DF2151002F008FA92
:1036200001214DF2161002F003FACA214DF21710D3
:1036300002F0FEF902214DF2181002F0F9F9002112
:103640004DF2191002F0F4F902214DF21A1002F0B5
:10365000EFF901214DF21B1002F0EAF902214DF2BF
:103660001C1002F0E5F934214DF21D1002F0E0F9D2
:1036700002214DF21E1002F0DBF967214DF21F10FE
:1036800002F0D6F902214DF2201002F0D1F9842186
:103690004DF2211002F0CCF902214DF2221002F07D
:1036A000C7F9A4214DF2231002F0C2F902214DF214
:1036B000241002F0BDF9B7214DF2251002F0B8F93F
:1036C00002214DF2261002F0B3F9CF214DF227105E
:1036D00002F0AEF902214DF2281002F0A9F9DE2124
:1036E0004DF2291002F0A4F902214DF22A1002F045
:1036F0009FF9F2214DF22B1002F09AF902214DF2BE
:103700002C1002F095F9FE214DF22D1002F090F9E7
:1037100003214DF22E1002F08BF910214DF22F10E3
:1037200002F086F903214DF2301002F081F93321C5
:103730004DF2311002F07CF903214DF2321002F00B
:1037400077F96D214DF2331002F072F900214FF438
:10375000524002F06DF933214DF2012002F068F978
:1037600000214DF2022002F063F934214DF20320D2
:1037700002F05EF900214DF2042002F059F93A21DD
:103780004DF2052002F054F900214DF2062002F01E
:103790004FF94A214DF2072002F04AF900214DF27B
:1037A000082002F045F95C214DF2092002F040F9B1
:1037B00000214DF20A2002F03BF981214DF20B204D
:1037C00002F036F900214DF20C2002F031F9A62169
:1037D0004DF20D2002F02CF900214DF20E2002F0E6
:1037E00027F9E5214DF20F2002F022F901214DF2D7
:1037F000102002F01DF913214DF2112002F018F9EA
:1038000001214DF2122002F013F954214DF2132040
:1038100002F00EF901214DF2142002F009F9822183
:103820004DF2152002F004F901214DF2162002F0AC
:10383000FFF8CA214DF2172002F0FAF802214DF2EA
:10384000182002F0F5F800214DF2192002F0F0F8EE
:1038500002214DF21A2002F0EBF801214DF21B205B
:1038600002F0E6F802214DF21C2002F0E1F83421CA
:103870004DF21D2002F0DCF802214DF21E2002F074
:10388000D7F867214DF21F2002F0D2F802214DF245
:10389000202002F0CDF884214DF2212002F0C8F85A
:1038A00002214DF2222002F0C3F8A4214DF2232080
:1038B00002F0BEF802214DF2242002F0B9F8B7213F
:1038C0004DF2252002F0B4F802214DF2262002F03C
:1038D000AFF8CF214DF2272002F0AAF802214DF2D5
:1038E000282002F0A5F8DE214DF2292002F0A0F8F0
:1038F00002214DF22A2002F09BF8F2214DF22B20FA
:1039000002F096F802214DF22C2002F091F8FE21EF
:103910004DF22D2002F08CF803214DF22E2002F002
:1039200087F810214DF22F2002F082F803214DF28A
:10393000302002F07DF833214DF2312002F078F88A
:1039400003214DF2322002F073F86D214DF2332045
:1039500002F06EF800214FF4534002F069F8332171
:103960004DF2013002F064F800214DF2023002F015
:103970005FF834214DF2033002F05AF800214DF285
:10398000043002F055F83A214DF2053002F050F8BB
:1039900000214DF2063002F04BF84A214DF207307B
:1039A00002F046F800214DF2083002F041F85C21A7
:1039B0004DF2093002F03CF800214DF20A3002F0DD
:1039C00037F881214DF20B3002F032F800214DF230
:1039D0000C3002F02DF8A6214DF20D3002F028F83F
:1039E00000214DF20E3002F023F8E5214DF20F30A8
:1039F00002F01EF801214DF2103002F019F81321E7
:103A00004DF2113002F014F801214DF2123002F0A3
:103A10000FF854214DF2133002F00AF801214DF253
:103A2000143002F005F882214DF2153002F000F852
:103A300001214DF2163001F0FBFFCA214DF2173083
:103A400001F0F6FF02214DF2183001F0F1FF0021E4
:103A50004DF2193001F0ECFF02214DF21A3001F065
:103A6000E7FF01214DF21B3001F0E2FF02214DF290
:103A70001C3001F0DDFF34214DF21D3001F0D8FF84
:103A800002214DF21E3001F0D3FF67214DF21F30AD
:103A900001F0CEFF02214DF2203001F0C9FF842158
:103AA0004DF2213001F0C4FF02214DF2223001F02D
:103AB000BFFFA4214DF2233001F0BAFF02214DF2E5
:103AC000243001F0B5FFB7214DF2253001F0B0FFF1
:103AD00002214DF2263001F0ABFFCF214DF227300D
:103AE00001F0A6FF02214DF2283001F0A1FFDE21F6
:103AF0004DF2293001F09CFF02214DF22A3001F0F5
:103B000097FFF2214DF22B3001F092FF02214DF28E
:103B10002C3001F08DFFFE214DF22D3001F088FF99
:103B200003214DF22E3001F083FF10214DF22F3092
:103B300001F07EFF03214DF2303001F079FF332197
:103B40004DF2313001F074FF03214DF2323001F0BB
:103B50006FFF6D214DF2333001F06AFF00214FF409
:103B6000544001F065FF33214DF2014001F060FF48
:103B700000214DF2024001F05BFF34214DF2034081
:103B800001F056FF00214DF2044001F051FF3A21AF
:103B90004DF2054001F04CFF00214DF2064001F0CE
:103BA00047FF4A214DF2074001F042FF00214DF24C
:103BB000084001F03DFF5C214DF2094001F038FF63
:103BC00000214DF20A4001F033FF81214DF20B40FC
:103BD00001F02EFF00214DF20C4001F029FFA6213B
:103BE0004DF20D4001F024FF00214DF20E4001F096
:103BF0001FFFE5214DF20F4001F01AFF01214DF2A8
:103C0000104001F015FF13214DF2114001F010FF9B
:103C100001214DF2124001F00BFF54214DF21340EF
:103C200001F006FF01214DF2144001F001FF822155
:103C30004DF2154001F0FCFE01214DF2164001F05D
:103C4000F7FECA214DF2174001F0F2FE02214DF2BB
:103C5000184001F0EDFE00214DF2194001F0E8FEA0
:103C600002214DF21A4001F0E3FE012100E001E3E0
:103C70004DF21B4001F0DCFE02214DF21C4001F030
:103C8000D7FE34214DF21D4001F0D2FE02214DF24B
:103C90001E4001F0CDFE67214DF21F4001F0C8FE2D
:103CA00002214DF2204001F0C3FE84214DF221405B
:103CB00001F0BEFE02214DF2224001F0B9FEA42126
:103CC0004DF2234001F0B4FE02214DF2244001F0F8
:103CD000AFFEB7214DF2254001F0AAFE02214DF2C0
:103CE000264001F0A5FECF214DF2274001F0A0FEB5
:103CF00002214DF2284001F09BFEDE214DF22940C9
:103D000001F096FE02214DF22A4001F091FEF221CF
:103D10004DF22B4001F08CFE02214DF22C4001F0BF
:103D200087FEFE214DF22D4001F082FE03214DF26F
:103D30002E4001F07DFE10214DF22F4001F078FE63
:103D400003214DF2304001F073FE33214DF231403A
:103D500001F06EFE03214DF2324001F069FE6D214B
:103D60004DF2334001F064FE00214FF4554001F064
:103D70005FFE33214DF2015001F05AFE00214DF259
:103D8000025001F055FE34214DF2035001F050FE77
:103D900000214DF2045001F04BFE3A214DF2055046
:103DA00001F046FE00214DF2065001F041FE4A218D
:103DB0004DF2075001F03CFE00214DF2085001F099
:103DC00037FE5C214DF2095001F032FE00214DF228
:103DD0000A5001F02DFE81214DF20B5001F028FE1A
:103DE00000214DF20C5001F023FEA6214DF20D50A2
:103DF00001F01EFE00214DF20E5001F019FEE521EA
:103E00004DF20F5001F014FE01214DF2105001F05F
:103E10000FFE13214DF2115001F00AFE01214DF267
:103E2000125001F005FE54214DF2135001F000FE36
:103E300001214DF2145001F0FBFD82214DF215508D
:103E400001F0F6FD01214DF2165001F0F1FDCA21FD
:103E50004DF2175001F0ECFD02214DF2185001F027
:103E6000E7FD00214DF2195001F0E2FD02214DF273
:103E70001A5001F0DDFD01214DF21B5001F0D8FD7B
:103E800002214DF21C5001F0D3FD34214DF21D50A2
:103E900001F0CEFD02214DF21E5001F0C9FD672157
:103EA0004DF21F5001F0C4FD02214DF2205001F0EF
:103EB000BFFD84214DF2215001F0BAFD02214DF2E7
:103EC000225001F0B5FDA4214DF2235001F0B0FDC8
:103ED00002214DF2245001F0ABFDB7214DF22550E7
:103EE00001F0A6FD02214DF2265001F0A1FDCF21E7
:103EF0004DF2275001F09CFD02214DF2285001F0B7
:103F000097FDDE214DF2295001F092FD02214DF284
:103F10002A5001F08DFDF2214DF22B5001F088FD69
:103F200002214DF22C5001F083FDFE214DF22D5067
:103F300001F07EFD03214DF22E5001F079FD10219C
:103F40004DF22F5001F074FD03214DF2305001F07D
:103F50006FFD33214DF2315001F06AFD03214DF226
:103F6000325001F065FD6D214DF2335001F060FDDE
:103F700000214FF4564001F05BFD33214DF201600A
:103F800001F056FD00214DF2026001F051FD342197
:103F90004DF2036001F04CFD00214DF2046001F090
:103FA00047FD3A214DF2056001F042FD00214DF23E
:103FB000066001F03DFD4A214DF2076001F038FD39
:103FC00000214DF2086001F033FD5C214DF20960E3
:103FD00001F02EFD00214DF20A6001F029FD812142
:103FE0004DF20B6001F024FD00214DF20C6001F058
:103FF0001FFDA6214DF20D6001F01AFD00214DF2CA
:104000000E6001F015FDE5214DF20F6001F010FD8D
:1040100001214DF2106001F00BFD13214DF21160F2
:1040200001F006FD01214DF2126001F001FD542165
:104030004DF2136001F0FCFC01214DF2146001F01F
:10404000F7FC82214DF2156001F0F2FC01214DF2E6
:10405000166001F0EDFCCA214DF2176001F0E8FC9A
:1040600002214DF2186001F0E3FC00214DF21960CD
:1040700001F0DEFC02214DF21A6001F0D9FC0121B1
:104080004DF21B6001F0D4FC02214DF21C6001F0E6
:10409000CFFC34214DF21D6001F0CAFC02214DF22B
:1040A0001E6001F0C5FC67214DF21F6001F0C0FCED
:1040B00002214DF2206001F0BBFC84214DF2216011
:1040C00001F0B6FC02214DF2226001F0B1FCA42106
:1040D0004DF2236001F0ACFC02214DF2246001F0AE
:1040E000A7FCB7214DF2256001F0A2FC02214DF2A0
:1040F000266001F09DFCCF214DF2276001F098FC75
:1041000002214DF2286001F093FCDE214DF229607E
:1041100001F08EFC02214DF22A6001F089FCF221AF
:104120004DF22B6001F084FC02214DF22C6001F075
:104130007FFCFE214DF22D6001F07AFC03214DF24F
:104140002E6001F075FC10214DF22F6001F070FC23
:1041500003214DF2306001F06BFC33214DF23160F0
:1041600001F066FC03214DF2326001F061FC6D212B
:104170004DF2336001F05CFC5521184601F058FC0B
:10418000AA21204601F054FC5221284601F050FC9F
:104190000821304601F04CFC0021484601F048FC63
:1041A000CC21584601F044FC00214BF2011001F0F3
:1041B0003FFC0521504601F03BFC70214FF4374095
:1041C00001F036FC70214BF2017001F031FC01214D
:1041D0004FF4384001F02CFC03214BF6010001F0B4
:1041E00027FC03214BF6020001F022FC03214BF6D1
:1041F000030001F01DFC02214FF43C4001F018FCCB
:1042000000214BF6014001F013FC00214BF6024067
:1042100001F00EFCD0214FF4494001F009FC0221CD
:104220004CF6011001F004FC50214CF6021001F094
:10423000FFFB50214CF6031001F0FAFB50214CF625
:10424000041001F0F5FB00214FF4545001F0F0FB95
:1042500055214FF4685001F0EBFB4FF4885001F00A
:10426000D7FB782002F02AF94FF4245001F0D0FB5C
:1042700001F005B9A0F513414FF4E06640F20229C0
:1042800040F23F1A4FF4274B253921D0F41DC91EA7
:104290007ED04FF41C5B08317BD011397AD0A0F569
:1042A000A841083977D0A0F5A851053974D0B1F5E7
:1042B000204172D0B1F5805170D0A0F58A413139DA
:1042C0006DD0091F6CD0A0F5C851633969D0CFE714
:1042D00047F6F001E52001F0ABFB2946012001F093
:1042E000A7FB3146022001F0A3FB41F2300103207D
:1042F00001F09EFB0021042001F09AFB49460820B2
:1043000001F096FB0021092001F092FB00210A2018
:1043100001F08EFB00210C2001F08AFB00210D2012
:1043200001F086FB00210F2001F082FB002110200C
:1043300001F07EFB0721112001F07AFB0021122001
:1043400001F076FB0021132001F072FB0021072011
:1043500001F06EFB41F29061102001F069FB40F228
:104360002721112001F064FB9D21122001F060FB48
:104370004FF4C851132001F05BFB2521292001F0E7
:1043800057FB0D212B2001F053FB0721302009E0C2
:104390007AE066E10CE2E6E283E3FDE3FDE3FDE3C0
:1043A000FDE3FDE301F044FB40F20331312001F075
:1043B0003FFB0321322001F03BFB40F20621352078
:1043C00001F036FB0821362001F032FB40F20641B5
:1043D000372001F02DFB4FF44171382001F028FB0C
:1043E0000721392001F024FB40F202613C2001F05A
:1043F0001FFB08213D2001F01BFB0021502001F094
:1044000017FBEF21512001F013FB0021522001F096
:104410000FFB5146532001F00BFB5946602001F081
:1044200007FB0121612001F003FB00216A2001F05C
:10443000FFFA0021802001F0FBFA0021812001F029
:10444000F7FA0021822001F0F3FA0021832001F025
:10445000EFFA0021842001F0EBFA0021852001F021
:10446000E7FA1021902001F0E3FA4FF4C0619220A6
:1044700001F0DEFA40F23311072001F0D9FA2221CF
:10448000002001F0D5FAF3E641F28F01EC2001F0B3
:10449000CFFA41F23421EF2001F0CAFA2946012077
:1044A00001F0C6FA3146022001F0C2FA41F23001B1
:1044B000032001F0BDFA0021042001F0B9FA4946B9
:1044C000082001F0B5FA0021092001F0B1FA00211D
:1044D0000A2001F0ADFA01210C2001F0A9FA002117
:1044E0000D2001F0A5FA00210F2001F0A1FA002112
:1044F000102001F09DFA0721112001F099FA002106
:10450000122001F095FA0021132001F091FA012107
:10451000072001F08DFA322001F0B6FF41F2904100
:10452000102001F085FA40F22721112001F080FAD5
:10453000322001F0A9FF8A21122001F079FA3220FD
:1045400001F0A2FF4FF4D051132001F071FA0621BF
:10455000292001F06DFA0D212B2001F069FA32209B
:1045600001F092FF0021202001F062FA00212120B9
:1045700001F05EFA322001F087FF0021302001F0C7
:1045800057FA40F20461312001F052FA40F205314D
:10459000322001F04DFA0021352001F049FA40F6B1
:1045A0000941362001F044FA4FF40171372001F03F
:1045B0003FFA40F20131382001F03AFA2146392021
:1045C00001F036FA00213C2001F032FA40F60A21CF
:1045D0003D2001F02DFA322001F056FF002150203D
:1045E00001F026FAEF21512001F022FA0021522099
:1045F00001F01EFA5146532001F01AFA5946602084
:1046000001F016FA0121612001F012FA00216A205E
:1046100001F00EFA0021802001F00AFA0021812029
:1046200001F006FA0021822001F002FA0021832025
:1046300001F0FEF90021842001F0FAF90021852023
:1046400001F0F6F91021902001F0F2F94FF4C06169
:10465000922001F0EDF940F23311072001F0E8F962
:1046600006E60021084601F0E3F92946012001F0A1
:10467000DFF93146022001F0DBF941F2300103207D
:1046800001F0D6F90021042001F0D2F949460820B2
:1046900001F0CEF90021092001F0CAF900210A2019
:1046A00001F0C6F901210C2001F0C2F900210D2012
:1046B00001F0BEF900210F2001F0BAF9322001F01B
:1046C000E3FE40F20111072001F0B2F9322001F0BF
:1046D000DBFE4FF48651102001F0AAF907211120CA
:1046E00001F0A6F94FF488731946122001F0A0F9E1
:1046F0004FF43061132001F09BF90021292001F0D3
:1047000097F944F210012B2001F092F9002150207A
:1047100001F08EF9EF21512001F08AF90021522099
:1047200001F086F95146532001F082F95946602084
:1047300001F07EF90121612001F07AF900216A205F
:1047400001F076F90021802001F072F9002181202A
:1047500001F06EF90021822001F06AF90021832026
:1047600001F066F90021842001F062F90021852022
:1047700001F05EF91021902001F05AF900219220F9
:1047800001F056F90121932001F052F919469520C4
:1047900001F04EF90021972001F04AF900219820FC
:1047A00001F046F940F27311072001F041F95FE58D
:1047B00041F21401E72001F03BF92946012001F004
:1047C00037F94FF40071022001F032F941F238015B
:1047D000032001F02DF94946082001F029F90021B4
:1047E000092001F025F900210A2001F021F900211A
:1047F0000C2001F01DF900210D2001F019F9002114
:104800000F2001F015F90021102001F011F9072106
:10481000112001F00DF90021122001F009F9002109
:10482000132001F005F9C82001F02EFE41F290613D
:10483000102001F0FDF840F22721112001F0F8F8D6
:10484000322001F021FE0C21122001F0F1F832207B
:1048500001F01AFE4FF40061132001F0E9F8112174
:10486000292001F0E5F80B212B2001F0E1F832209E
:1048700001F00AFE0021202001F0DAF85146212043
:1048800001F0D6F80021302001F0D2F84FF4837304
:104890001946312001F0CCF80021322001F0C8F88F
:1048A0004FF40171352001F0C3F841F20A6136205E
:1048B00001F0BEF82146372001F0BAF81946382039
:1048C00001F0B6F82146392001F0B2F840F2024179
:1048D0003C2001F0ADF840F60F413D2001F0A8F872
:1048E0000021502001F0A4F8EF21512001F0A0F8A0
:1048F0000021522001F09CF85146532001F098F815
:104900005946602001F094F80121612001F090F8EF
:1049100000216A2001F08CF80021802001F088F845
:104920000021812001F084F80021822001F080F82C
:104930000021832001F07CF80021842001F078F828
:104940000021852001F074F81021902001F070F80A
:104950004FF4C061922001F06BF840F23311072050
:1049600001F066F884E42946012001F061F831463F
:10497000022001F05DF841F23001032001F058F807
:104980000021042001F054F840F20721082001F032
:104990004FF80021092001F04BF800210A2001F016
:1049A00047F800210C2001F043F800210D2001F010
:1049B0003FF800210F2001F03BF8142001F064FDC6
:1049C00041F2B061102001F033F80121112001F013
:1049D0002FF80121172001F02BF84FF49C711220C1
:1049E00001F026F84FF40061132001F021F80921AD
:1049F000292001F01DF809212A2001F019F80021D1
:104A0000A42001F015F80021502001F011F8EF2149
:104A1000512001F00DF80021522001F009F8514613
:104A2000532001F005F85946602001F001F80121FA
:104A3000612000F0FDFF00216A2000F0F9FF002155
:104A4000802000F0F5FF0021812000F0F1FF00211F
:104A5000822000F0EDFF0021832000F0E9FF00211B
:104A6000842000F0E5FF0021852000F0E1FF132104
:104A7000902000F0DDFF0021922000F0D9FF0321FB
:104A8000932000F0D5FF4FF48871952000F0D0FFFF
:104A900040F27311072000F0CBFF322001F0F4FC4C
:104AA00015E40021072000F0C3FF322001F0ECFCE8
:104AB0004FF48E71122000F0BBFF0121A42000F002
:104AC000B7FF0F21082000F0B3FF08210A2000F0F3
:104AD000AFFF08210D2000F0ABFF2146302000F091
:104AE000A7FF0721312000F0A3FF40F2036132202D
:104AF00000F09EFF3146332000F09AFF49463420F3
:104B000000F096FF0221352000F092FF41F60F7170
:104B1000362000F08DFF2146372000F089FF00216C
:104B2000382000F085FF0021392000F081FF214668
:104B30003A2000F07DFF00213B2000F079FF0721A3
:104B40003C2000F075FF00213D2000F071FF322075
:104B500001F09AFC0121072000F06AFF01211720D3
:104B600000F066FF322001F08FFC4FF4BD511020A1
:104B700000F05EFF40F21721112000F059FF4FF4C2
:104B80008F71122000F054FF4FF47061132000F079
:104B90004FFF00212A2004E093E08DE157E20BE370
:104BA000B5E300F045FF0A21292000F041FF4FF452
:104BB0009F71122000F03CFF0021502000F038FFD0
:104BC000EF21512000F034FF0021522000F030FF8F
:104BD0005146532000F02CFF5946602000F028FF7A
:104BE0000121612000F024FF00216A2000F020FF55
:104BF0000021802000F01CFF0021812000F018FF20
:104C00000021822000F014FF0021832000F010FF1B
:104C10000021842000F00CFF0021852000F008FF17
:104C20001321902000F004FF4FF44071922000F017
:104C3000FFFE0521932000F0FBFE0021952000F0EF
:104C4000F7FE0021972000F0F3FE0021982000F0ED
:104C5000EFFE2946012000F0EBFE3146022000F075
:104C6000E7FE41F23801032000F0E2FE00210420BB
:104C700000F0DEFE00210C2000F0DAFE00210F2003
:104C800000F0D6FE0021202000F0D2FE00212120DD
:104C900000F0CEFE2121072000F0CAFE142001F012
:104CA000F3FB6121072000F0C3FE142001F0ECFBB0
:104CB00040F27311072000F0BBFE142001F0E4FB6A
:104CC000DDE30021084600F0B3FE0021084600F0B5
:104CD000AFFE0021084600F0ABFE0021084600F0C0
:104CE000A7FE0121A42000F0A3FE142001F0CCFBBC
:104CF0005946602000F09CFE4946082000F098FECE
:104D00004FF40571302000F093FE43F2157131200D
:104D100000F08EFE40F20461322000F089FE40F681
:104D20001661332000F084FE42F21121342000F09D
:104D30007FFE4FF4A851352000F07AFE48F207516B
:104D4000362000F075FE41F20741372000F070FE7A
:104D500041F20341382000F06BFE2021392000F0A1
:104D600067FE1A21902000F063FE0021102000F061
:104D70005FFE0721112000F05BFE0021122000F0F1
:104D800057FE0021132000F053FE142001F07CFB9D
:104D90004FF4E661102000F04BFE40F23711112075
:104DA00000F046FE142001F06FFB4FF4DC7112207E
:104DB00000F03EFE142001F067FB4FF470611320F9
:104DC00000F036FE80212A2000F032FE4821292002
:104DD00000F02EFE142001F057FB2946012000F0C0
:104DE00027FE3146022000F023FE41F23801032065
:104DF00000F01EFE4946082000F01AFE00210A209D
:104E000000F016FE00210C2000F012FE00210D2003
:104E100000F00EFE30210E2000F00AFE002150208E
:104E200000F006FEEF21512000F002FE002152208A
:104E300000F0FEFD5146532000F0FAFD5946602077
:104E400000F0F6FD0121612000F0F2FD00216A2052
:104E500000F0EEFD1121902000F0EAFD4FF4C0615A
:104E6000922000F0E5FD40F20241932000F0E0FDC9
:104E70000221942000F0DCFD142001F005FB01214B
:104E8000072000F0D5FD142001F0FEFA6121072073
:104E900000F0CEFD40F27311072000F0C9FD0021A3
:104EA000202000F0C5FD0021212000F0C1FD2221BD
:104EB000002000F0BDFDE2E20021084600F0B8FD50
:104EC0000021084600F0B4FD142001F0DDFA0021B5
:104ED000084600F0ADFD0021084600F0A9FD0021C4
:104EE000084600F0A5FD0021084600F0A1FD0121C3
:104EF000A42000F09DFD142001F0C6FA5946602060
:104F000000F096FD40F60601082000F091FD40F209
:104F100003731946302000F08BFD0121312000F091
:104F200087FD0421322000F083FD4FF4817133208E
:104F300000F07EFD4FF440742146342000F078FDEF
:104F400040F20311352000F073FD1F21362000F0E0
:104F50006FFD1946372000F06BFD0121382000F06D
:104F600067FD0421392000F063FD1521902000F039
:104F70005FFD4FF48261102000F05AFD40F247219E
:104F8000112000F055FD4FF4DE71122000F050FDAD
:104F90004FF46061132000F04BFD782001F074FAAB
:104FA0002946012000F044FD4FF40071022000F07A
:104FB0003FFD41F23001032000F03AFD08210A20B4
:104FC00000F036FD00210C2000F032FD20210E20E3
:104FD00000F02EFD00210F2000F02AFD00212020EE
:104FE00000F026FD0021212000F022FD3D212A2095
:104FF00000F01EFD142001F047FA2D21292000F0B9
:1050000017FD0021502000F013FD4DF2EF0151205B
:1050100000F00EFD0021522000F00AFD5146532001
:1050200000F006FD0021612000F002FD00216A2051
:1050300000F0FEFC2146922000F0FAFC05219320AE
:1050400000F0F6FC2946072000F0F2FC17E20121EF
:10505000002000F0EDFC0A2001F016FA41F2286170
:10506000102000F0E5FC0E21122000F0E1FC40F6DB
:105070003921132000F0DCFC0A2001F005FA402160
:10508000112000F0D5FC5021152000F0D1FC0A20A1
:1050900001F0FAF91E21122000F0CAFC0A2001F0EA
:1050A000F3F94FF4B151102000F0C2FC42F639215F
:1050B000132000F0BDFC0A2001F0E6F9294601208A
:1050C00000F0B6FC4FF44071022000F0B1FC41F258
:1050D0003801032000F0ACFC4946082000F0A8FC91
:1050E00008210A2000F0A4FC0021302000F0A0FCE0
:1050F00040F20241312000F09BFC4FF483713220DA
:1051000000F096FC40F20351332000F091FC4FF484
:105110008271342000F08CFC40F20131352000F027
:1051200087FC2146362000F083FC40F20531372011
:1051300000F07EFC4FF40271382000F079FC40F65C
:105140000B71392000F074FC0221412000F070FC4A
:105150005946602000F06CFC0121612000F068FCE1
:105160004FF40471902000F063FC4FF4857192209D
:1051700000F05EFC0421932000F05AFC2946A02098
:1051800000F056FC0121072000F052FC21210720ED
:1051900000F04EFC2321072000F04AFC33210720B9
:1051A00000F046FC40F23311072000F041FC0021E2
:1051B000A02000F03DFC62E13021152000F038FC19
:1051C00010219A2000F034FC2021112000F030FC46
:1051D00043F22841102000F02BFC0221122000F0A5
:1051E00027FC41F23801132000F022FC282001F0B6
:1051F0004BF91221084600F01BFC282001F044F96D
:1052000043F22041102000F013FC43F23801132038
:1052100000F00EFC462001F037F90021302000F0AC
:1052200007FC40F20241312000F002FC40F207315D
:10523000322000F0FDFB4FF44171332000F0F8FB09
:105240000421342000F0F4FB40F20141352000F04D
:10525000EFFB2146362000F0EBFB40F20531372012
:1052600000F0E6FB4FF4C2631946382000F0E0FB83
:105270001946392000F0DCFB2946012000F0D8FB5C
:105280004FF44071022000F0D3FB41F230010320C3
:1052900000F0CEFB40F60801082000F0C9FB082111
:1052A0000A2000F0C5FB5946602000F0C1FB012137
:1052B000612000F0BDFB4FF49F71902000F0B8FB1F
:1052C0002946922000F0B4FB2946932000F0B0FB61
:1052D0004FF44051A02000F0ABFB1021A32000F0C0
:1052E000A7FB0121072000F0A3FB2121072000F0EC
:1052F0009FFB2321072000F09BFB3321072000F0B8
:1053000097FB40F23311072000F092FBB7E0E22058
:1053100000F07EFB1D2000F075FB022000F072FB08
:10532000042000F06FFB642001F0C8F8E02000F0DA
:105330006FFB012000F066FB0A2001F0A5F8E020D9
:1053400000F066FB032000F05DFB0C2001F09CF8F0
:10535000012000F05DFB0A2001F096F8E62000F045
:1053600057FB2F2000F04EFBFF2000F04BFBFF20EF
:1053700000F048FBB02000F04BFB202000F042FB87
:10538000002000F03FFB032000F03CFB40F21F3008
:1053900000F038FB012000F035FB40F2DF1000F098
:1053A00031FB002000F02EFBB42000F031FB042084
:1053B00000F028FB40F21F4000F024FB002000F02A
:1053C00021FB2E2000F01EFB002000F01BFB002024
:1053D00000F018FB002000F015FB002000F012FB8D
:1053E000B62000F015FB022000F00CFB4FF4037018
:1053F00000F008FB002000F005FB172000F002FB86
:10540000152000F0FFFA002000F0FCFA002000F068
:10541000F9FAF02000F0FCFA032000F0F3FA29205A
:1054200000F0F6FAD02000F0F3FA002000F0EAFADB
:10543000BE2000F0EDFA052000F0E4FAFE2000F0B6
:10544000E1FA012000F0DEFA002000F0DBFA002093
:1054500000F0D8FA002000F0D5FAB82000F0D8FA11
:10546000032000F0CFFA012000F0CCFABA2000F0BF
:10547000CFFA012000F0C6FA642000F02BF80020DB
:10548000FCF7DAFB0448C0F880813846FCF79CFB47
:105490001FB0BDE8F08F00000080214203460120CC
:1054A00000E05843491EC9B2FBD2704708B5034813
:1054B00000880090BDF8000008BD00000008006CE6
:1054C00010B500F0A5FA052000F0F8FFBDE8104087
:1054D000FFF7ECBF10B50246BE2000F099FA052098
:1054E00000F090FA104601F076FB4FF066320B4B5D
:1054F00001F084FB01F042FB80B200F083FA01204E
:1055000000F080FAFF2000F07DFA002000F07AFA27
:10551000BDE81040002000F075BA00006666044047
:10552000F0B50023834C46F604072146A27989880A
:1055300041F66315012A03D1B94201D0A94202D133
:10554000C2B9A94216D1082814D2DFE800F0040637
:10555000080A0C0E101206200CE007200AE00420B6
:1055600008E0052006E0012004E0002002E003201E
:1055700000E00220A1F5134C45F2103245F210561E
:10558000BCF1410C07D0B94205D0914203D0B142E1
:1055900001D0A9427DD1082812D2DFE800F0110421
:1055A00006080A0C0E1080230AE0402308E0C023FE
:1055B00006E0202304E0602302E0A02300E0E023D3
:1055C000B14202D14FF4585000E03620914205D04C
:1055D000B14203D0A94201D043F00803B94201D13E
:1055E00043F00203194600F023FAA288AA420ED023
:1055F000980606D520886188884208D2218060807C
:1056000005E020886188884201D921806080B2420B
:1056100049D1608900F0FCF9002000F0F3F96089BD
:10562000401C80B200F0F4F9002000F0EBF9608932
:10563000801C80B200F0ECF92088401EC0F30F20DF
:1056400000F0E0F96089C01C80B200F0E1F9207838
:10565000401EC0B200F0D6F9A08900F0D9F90020B0
:1056600000F0D0F9A089401C80B200F0D1F90020F0
:1056700000F0C8F9A089801C80B200F0C9F96088E8
:10568000401EC0F30F2000F0BDF9A089C01C80B2FD
:1056900000E032E000F0BCF9A078BDE8F040401E28
:1056A000C0B200F0AFB9608900F0B2F9002000F09C
:1056B000A9F9002000F0A6F92088401EC0F30F20B1
:1056C00000F0A0F92078401EC0B200F09BF9A0893C
:1056D00000F09EF9002000F095F9002000F092F90A
:1056E0006088401EC0F30F2000F08CF9A078BDE860
:1056F000F040401EC0B200F085B9082812D2DFE8A1
:1057000000F0040608110A0C0E1030230AE01023E2
:1057100008E0202306E0382304E0282302E01823D1
:1057200000E00823032043F48051BDE8F04000F07E
:105730007FB90000080400202DE9F04102460B4625
:10574000584E1F0A3046B1884089A1F513444FEAEC
:105750001228413C1AD0A1F5A644103C16D034467C
:10576000A1F5D04CA5792488A41A641EBCF1040CC0
:105770001FD0A1F5C85CBCF1630C30D0A1F5A04CE2
:10578000BCF5A26C65D0012D7DD082E000F040F91F
:10579000404600F037F9D0B200F034F9B08900F09B
:1057A00037F9384600F02EF9BDE8F041D8B200F0E4
:1057B00029B9012D00D1A2B200F02AF9100A00F097
:1057C00021F9D0B200F01EF9B08900F021F9384675
:1057D00000F018F9BDE8F041D8B200F013B945B3B4
:1057E00000F016F9404600F00DF9D0B200F00AF9C9
:1057F0003088401EC0F30F2000F004F93078401EBE
:10580000C0B200F0FFF8B08900F002F9384600F0AD
:10581000F9F8D8B200F0F6F87088401EC0F30F20F7
:1058200000F0F0F8B078BDE8F041401EC0B200F0E2
:10583000E9B8A2B200F0ECF8002000F0E3F8002094
:1058400000F0E0F8100A00F0DDF8D0B200F0DAF86D
:10585000D9E700F0DDF8404600F0D4F87089401C2C
:1058600080B200F0D5F8D0B200F0CCF8B08900F0EA
:10587000CFF8384600F0C6F8B089401C80B200F07E
:10588000C7F8D8B200E003E0BDE8F04100F0BAB8D4
:10589000A2B2114600F0CCF8B089BDE8F04119463B
:1058A00000F0C6B8080400202DE9F84F82460C46E7
:1058B0001F46A346780701D0012000E0002000EB3E
:1058C000D70079084843C0B20090203A02F0FF099F
:1058D000002649E00C2F14D0102F19D0182F46D1D4
:1058E000244909EBC90001EB8000855D4FF00008F9
:1058F000280612D52048214602885046FCF73CFA7B
:1059000013E01E4909EB490001EB8000855DEDE7DE
:105910001B4800EB0910855DE8E70A9828B916488E
:10592000214642885046FCF727FA6806050E641C9B
:10593000A4B214484088A04219D9A4EB0B00B84285
:1059400009D15C460AF1010A1FFA8AFA0D4800885B
:1059500050450CD906E008F1010808F0FF08B8F13D
:10596000080FC5D3761CF6B200988642B2D3BDE8C4
:10597000F88F0000E47C00086800002080720008B6
:10598000F4760008080400202DE9FF4F81B080461E
:10599000DDF838B092461D4600260024A1464FEAA5
:1059A0005B071FE0281B401EC1B20A20FFF776FDEF
:1059B000BAFBF0F00A21B0FBF1F201FB120026B9AC
:1059C000691E8C4201DA90B101263030C2B207FB69
:1059D000048080B25B46CDF800900299FFF764FF27
:1059E000641CE4B2AC42DDD305B0BDE8F08F07FB28
:1059F000048080B25B462022CDF800900299FFF728
:105A000053FFEDE701490880704700000008006C73
:105A10000149088070470000FE07006C02480349F6
:105A2000008908807047000008040020FE07006C11
:105A3000024A1080901C018070470000FE07006C35
:105A400038B50121082000F0C9F94FF40074ADF811
:105A5000004010208DF8030003208DF802006946F5
:105A60000348FBF7F3FF21460248FCF77AF838BDFC
:105A700000140140000C0140FEE7704770B50F2391
:105A8000C27801260178002A1ED0144A126802F456
:105A9000E062C2F5E062120AC2F10404D340457824
:105AA000A54082781A402A43120101F1E02181F8D1
:105AB0000024007800F01F018E404009800000F1B2
:105AC000E020C0F8006170BD01F01F008640480969
:105AD000800000F1E020C0F8806170BD0CED00E0B6
