:020000040800F2
:10000000D8090020ED01000807190008A31800080E
:100010000519000897130008FD21000800000000E2
:10002000000000000000000000000000151D000896
:10003000CD130008000000002D1C0008431E00081E
:10004000070200080702000807020008070200086C
:10005000070200080702000807020008070200085C
:10006000070200080702000807020008070200084C
:10007000070200080702000807020008070200083C
:10008000070200080702000807020008070200082C
:10009000070200080702000807020008070200081C
:1000A000070200080702000807020008070200080C
:1000B00007020008951E0008070200080702000852
:1000C00007020008070200080702000807020008EC
:1000D0000702000841200008070200080702000884
:1000E00007020008070200080702000807020008CC
:1000F00007020008070200080702000807020008BC
:100100000702000807020008151F00080702000880
:10011000070200080702000807020008070200089B
:10012000070200080702000807020008070200088B
:1001300000F002F800F04AF80AA090E8000C8244AF
:100140008344AAF10107DA4501D100F03FF8AFF28C
:10015000090EBAE80F0013F0010F18BFFB1A43F0A5
:1001600001031847A02F0000C02F0000103A24BF41
:1001700078C878C1FAD8520724BF30C830C144BF0C
:1001800004680C607047000000230024002500264E
:10019000103A28BF78C1FBD8520728BF30C148BFEA
:1001A0000B607047662902F03E87642900F0748076
:1001B000002070471FB500F0AFFB040000200021B5
:1001C00002F024FAE0601FBD10B510BD00F0BCFCC9
:1001D0001146FFF7EFFF02F0EDF800F0DAFC03B490
:1001E000FFF7F2FF03BC02F025F800000948804742
:1001F00009480047FEE7FEE7FEE7FEE7FEE7FEE709
:10020000FEE7FEE7FEE7FEE704480549054A064B20
:1002100070470000451E000831010008D803002087
:10022000D8090020D8050020D8050020704700001C
:100230000FB4044910B503AA029800F05BFB10BC90
:100240005DF814FB6000002070B504468569006805
:10025000C10601D5302600E02026C00707D070BDBA
:10026000D4E9012130469047206A401C20626D1E6F
:10027000F6D570BD70B5044685690078C00707D112
:1002800070BDD4E9012120209047206A401C2062E3
:100290006D1EF6D570BD00002DE9F0410646002424
:1002A00010687529314616A510D0AFF300800028DC
:1002B00002DA404213A507E031688A0701D512A58A
:1002C00002E0490704D511A5012401E0AFF3008045
:1002D00000210A2206F1240709E0B0FBF2FCB0FB82
:1002E000F2F302FB1C00303078541846491C0028F9
:1002F000F3D123462A463046BDE8F04100F093B8DA
:10030000000000002D0000002B0000002000000075
:100310002DE9F0474FF0000A89460446C0F820A0B6
:100320002046E1688847002876D0252806D0D4E901
:1003300001219047206A401C2062F1E7E1682046D5
:1003400000258847C4F81CA006460027C4F818A05A
:100350002A2E09D0304601F066FF38B304EB870837
:10036000303EC8F8186019E059F8041B204604EB29
:1003700087029161E1688847012F064618D1E0693C
:10038000002820DA25F020051DE0D8F8180000EB41
:10039000800006EB40003038C8F818002046E168BD
:1003A0008847064601F03FFF0028EED1012F0AD012
:1003B0002E2E08D12046E16888477F1C0646022F72
:1003C00045F02005C4DBA069002803DA404245F06F
:1003D0000105A061E80701D025F01005B6B1A6F12E
:1003E0004100192802D8203645F400654A463146B6
:1003F000204625604D46FFF7D5FE58B1012806D0AE
:10040000ED1D25F0070000F1080989E704E005F17A
:10041000040985E730468AE7206ABDE8F08770471F
:100420007047704770472DE9F0470D469946924650
:10043000044600F124080168880604D5E06921F02B
:100440001001216000E00120A84201DD471B00E00F
:100450000027A1697A1902EB0900081AA061207827
:10046000C00602D42046FFF7EFFE002608E0D4E9DC
:1004700001211AF806009047206A401C761C206271
:100480004E45F4DB2078C0060AD52046FFF7DCFE97
:1004900006E0D4E9012130209047206A401C206208
:1004A000381EA7F10107F4DC07E0D4E9012118F8B0
:1004B00005009047206A401C2062281EA5F1010516
:1004C000F3DC2046FFF7D6FE2078000602D5022096
:1004D000BDE8F0870120FBE770472DE9FF4F0C4690
:1004E0001E464FF0FF378BB0D2E90001DDF8608087
:1004F0000A908A46C1F30A5505B93D4600210846CF
:100500004FF00000BAF1000F00F4400005DA00EBF4
:1005100080004FF4400101EA50004FEA9059B9F1D0
:10052000010F00DDB9460A9850EA4A000ED044F6A1
:100530001050A5F2FF3545432F14B8F1000F1ED01F
:100540007542291E1EDDC9F100021CE0B8F1010F41
:100550004FF0000001D0302103E0F24305E02154C8
:10056000401CB042FBDB30460022002121540B9995
:10057000C1F80880C1E900200FB0BDE8F08FBD1BB5
:100580006D1CDEE74A4600DA694206A800F066FA0A
:1005900006AB93E8070003AB83E8070050460A99CF
:1005A00000F03EFB8DE80700A0F500501F380090DA
:1005B0000398002D09DD42F21F014A46084403A9B1
:1005C0000390684600F09DFD08E0A0F500504A4603
:1005D0001F3803A90390684600F0A7FD8DE80700C7
:1005E0000004000C03D04FF0FF30410800E010463B
:1005F000B8F1000F03D00022009215461EE0751ED0
:1006000005D400F08DF9303262556D1EF9D5B34630
:100610000122084302D000227F1C04E02078302809
:1006200001D100227F1E002A099786D01DE0112DDE
:1006300007DA00F075F9303262556D1C50EA01029C
:10064000F5D1084302D00098C8B10EE00021681E21
:1006500005E0235C625C63542254401E491C8142C5
:10066000F7DBAB46A81B401E0990002004F80B00E6
:100670000B98099AC0F80880C0E9002B7CE7112686
:100680004FF0000859E72DE9F04F88460446D21D87
:1006900022F0070191B0D1E90001CDE90A0101F092
:1006A000AEFD02460B98C00F01D02D2007E0206858
:1006B000810701D52B2002E0202101EAC000032A96
:1006C000099001D0072A05DB03464146204600F089
:1006D00085F90BE12078800601D5E06900E006206D
:1006E000B8F1650F814606D0B8F1660F18D0B8F1A1
:1006F000670F70D131E00020B9F1110F009001DBDC
:10070000112301E009F101030AAA01A90CA8FFF7CE
:10071000E4FEDDE90C70002609F10105834647E09F
:1007200001204B4600904FF000470AAA01A90CA8EF
:10073000FFF7D3FEDDE90DB00C995D46002610B938
:1007400009F101000D18B9EB050003D4C0F1FF3623
:1007500009F10105A5EB09002BE0B9F1010F01DA60
:100760004FF001090020B9F1110F0090484601DD5A
:10077000112300E003460AAA01A90CA8FFF7ADFE69
:10078000DDE90C704D4600268346207800070AD428
:10079000AB4500DA5D4601A8012D04DD411911F8D1
:1007A000011C302907D04F4502DA17F1040F04DA93
:1007B000012082460FE06D1EEEE7002F02DCED1BEC
:1007C0003E4403E0781CA84200DD7D1CB81B00F10C
:1007D000010A4FF000472078000703D4AA4501DB47
:1007E0004FF0FF3A0021B7F1004F0DF143088DF8AB
:1007F000431024D002202B23002F01DA7F422D2327
:100800000A21021EA0F1010000DC5FB197FBF1FCA0
:1008100097FBF1F201FB1C7C17460CF1300C08F839
:1008200001CDEEE7A8F1010003702188090501D58B
:10083000452100E06521A0F1010800F8011C09989C
:100840000FA9A1EB0807FF1D00B10120411901EB21
:10085000EA70A1693844081A401EA0612078C006D9
:1008600002D42046FFF7F0FC099828B1D4E9012111
:100870009047206A401C20622078C00622D520467E
:10088000FFF7E2FC1EE0002E04DBB34502DD01A809
:10089000805D00E03020D4E901219047206A401CAF
:1008A0002062761CAAF101005FEA000A0AD100F07A
:1008B00033F8C0680168405CD4E901219047206AA0
:1008C000401C2062281EA5F10105DCDC07E0D4E90C
:1008D000012118F8010B9047206A401C2062381E45
:1008E000A7F10107F3DC2046FFF7C4FC032011B099
:1008F00043E60000074B70B50D467B4400F05BF803
:100900000446284600F018F910B14FF0FF3070BDD2
:10091000204670BDDF190000004870479403002096
:1009200030B5B0F10A024FEA900E71F100034EEAC1
:10093000817EB0EB0E0061EB91014FEA101E4EEA92
:10094000017E10EB0E0041EB11114FEA102E4EEA22
:10095000016E10EB0E0041EB11214FEA104E4EEAF2
:10096000014E10EB0E0041EB1141401841F1000126
:100970004FEAD00040EA41704FEAD10110EB800508
:100980004FEA810444EA907444EB01046D1944EB8E
:100990000404521BA3414FF0000348BF0A3200D5A4
:1009A00030BD401C41F1000130BD000001694A1C0E
:1009B00002610878704700B58FB0CDE901310021A0
:1009C000059105497944CDE9031011466846FFF7C2
:1009D0009FFC0FB000BD0000E5FFFFFF2DE9F041D7
:1009E0001F46044603260168072A01F4006004DB61
:1009F00008B116A505E016A503E008B115A500E0AD
:100A000015A521F010002060A069C01EA0610FB1E3
:100A1000401EA0612046FFF717FC4FB1D4E9012129
:100A200038469047206A401C2062C01C206206E0C5
:100A3000206AFAE7D4E9012115F8010B9047761EE8
:100A4000F8D22046FFF716FCBDE8F0814E414E007B
:100A50006E616E00494E4600696E66002DE9F047F2
:100A6000814616468AB0334878440DC88DE80D009B
:100A700030487844801C03AC0DC884E80D0041F672
:100A80009B300844372190FBF1F290FBF1F5A5F182
:100A9000800501FB12041B3C02D56442012000E0EA
:100AA0000020DFF890A080460027FA44AAF1BE0A91
:100AB0000DE0E00709D03246684607EB47010AEB34
:100AC000810100F032FB8DE8070064107F1C002CD0
:100AD000EFD1184F7F44AC3F18E0E80714D007EB84
:100AE00004100DF1180A90E80E008AE80E00C068A4
:100AF000F04201D198190890324606A903A800F0E7
:100B000014FB03AB83E807006D10641C002DE4D1D7
:100B100032466946B8F1000F03A802D000F0F1FA9E
:100B200001E000F002FBC9E90001C9F808200AB0A1
:100B3000BDE8F0873C260000007B00F08000704795
:100B400000487047740300207546FFF7F9FFAE4672
:100B500005006946534620F00700854618B020B5C9
:100B6000FFF752FBBDE820404FF000064FF00007B2
:100B70004FF000084FF0000B21F00701AC46ACE845
:100B8000C009ACE8C009ACE8C009ACE8C0098D46B2
:100B900070470446AFF300802046FFF720FB0000BB
:100BA0004FF0013C50F8042B51F8043B9A4221D1FC
:100BB000A2EB0C03934313EACC1317D150F8042B88
:100BC00051F8043B9A4215D1A2EB0C03934313EA6C
:100BD000CC130BD150F8042B51F8043B9A4209D1A5
:100BE000A2EB0C03934313EACC13DBD04FF00000CD
:100BF000704700BFD01A01BAB1FA81F101F01801B3
:100C000022FA01F0CB40C1F12001DBB2C0B2C01A20
:100C10002CFA01F3D11A914311EAC311E6D17047BE
:100C20005FEA400C08BF91F0000F4FEA8C234FEAB7
:100C3000C12243EA51514FEA1C5018BF00F5F04061
:100C40004FEA300018BF41F000415FEA6C5C00F0F1
:100C50002980BCF1FF3F08BF40F080407047130C73
:100C600006BF12044FF0100C4FF0000C130E04BF1F
:100C700012020CF1080C130F04BF12010CF1040C4A
:100C8000930F04BF92000CF1020CD30F04BF52006B
:100C90000CF1010C11464FF00002A0F11F00A0EB77
:100CA0000C00704711F0004F08BF704731F0004151
:100CB0003FF4D5AF0B0C06BF09044FF0100C4FF0FA
:100CC000000C0B0E04BF09020CF1080C0B0F04BF43
:100CD00009010CF1040C8B0F04BF89000CF1020C0C
:100CE000CB0F04BF49000CF1010CCCF12003A0EBA9
:100CF0000C0022FA03F302FA0CF241EA030100F1BC
:100D00000100704720F07F4C80EA030023F07F470A
:100D1000ACEB070303F57C5300F0004003F1FF0345
:100D20002DE980494FEA154B09B44FEA144325EAEF
:100D30000B4E24EA03480FF2042606EB132749085A
:100D40003E785FEA320203FB0667C7F5000707FB40
:100D500006F64FEA54374FEAD64606F1020607FB7D
:100D6000066CCCF1005C4FEA1C472CEA074C07FBF1
:100D700006F40CFB06F504EB15464FEA961634BF55
:100D800000204FF000404FEAD13706FB07FC4FEA46
:100D90001C4C0CFB0BF7D21B03FB0CF761EB0701A0
:100DA0000CFB0EF7B0EB074072EB17420CFB08F799
:100DB00034BFA2EB0742B2EB074261EB17414FEAA7
:100DC0000C444FEA910706FB07FC4FEA1C4C0CFB56
:100DD0000BF7B0EBC74072EB573203FB0CF734BF95
:100DE000A2EBC742B2EBC74261EB57310CFB0EF7E7
:100DF000B0EBC70072EB57720CFB08F734BFA2EBE5
:100E0000C702B2EBC70261EB5771039F4FEA8161E2
:100E100041EA921104EBCC044FEAD1374FEA8262E7
:100E200006FB07FC42EA90124FEA80604FEA1C4C36
:100E30000CFB0BF7D21B03FB0CF761EB07010CFB60
:100E40000EF7B0EB074072EB17420CFB08F734BF0C
:100E5000A2EB0742B2EB074261EB17414FEA8C5518
:100E60004FEA910704EB9C2406FB07FC4FEA1C4C5D
:100E70000CFB0BF7B0EBC74072EB573203FB0CF7E0
:100E800034BFA2EBC742B2EBC74261EB57310CFB58
:100E90000EF7B0EBC70072EB57720CFB08F734BFCC
:100EA000A2EBC702B2EBC70261EB577115EB4C2501
:100EB0004FEA816141EA92114FEA82624FEAD137EB
:100EC00042EA901206FB07FC44F100044FEA8060FE
:100ED0004FEA1C4C0CFB0BF7D21B03FB0CF761EB2E
:100EE00007010CFB0EF7B0EB074072EB17420CFB4F
:100EF00008F734BFA2EB0742B2EB074261EB1741A0
:100F000015EB1C154FEA813141EA92414FEA8232DA
:100F100042EA90424FEA80304FEA0C7644F10004F6
:100F200048EA03434EEA0B484FF0000EB2EB080CC0
:100F300071EB030724BF624639464EEB0E0E4FF0AD
:100F4000000B0018524149414BEB0B0BB2EB080C64
:100F500071EB03077BF1000B24BF624639464EEB71
:100F60000E0E4FF0000B0018524149414BEB0B0B9A
:100F7000B2EB080C71EB03077BF1000B24BF624658
:100F800039464EEB0E0E51EA020718BF46F0010635
:100F900016EB0E7655F1000254F1000103D5BDE8C1
:100FA0008901BDE80088BDE88901BDE80048B6199F
:100FB000524141EB0101A3F10103704780807F7E24
:100FC0007D7C7B7A797877767675747372717170BF
:100FD0006F6E6E6D6C6C6B6A6A6968686766666571
:100FE0006464636362616160605F5F5E5E5D5D5CFF
:100FF0005C5B5B5A5A595958585757565655555570
:101000005454535352525251515050504F4F4F4ECF
:101010004E4D4D4D4C4C4C4B4B4B4A4A4A4949491D
:10102000484848474747474646464545454444445F
:10103000444343434342424242414141002B26D470
:10104000770021D01CB54FEA370703B44FF01000EA
:101050004FF010014FF000000FBCBDE810400BF145
:10106000010BBBF1010F08BF5FEA170722BF12F1A6
:10107000010211F101014FF0004143F1000300F0C2
:10108000004043EA00007047F9D35708DAE746EA20
:10109000064613F1400F4FEA16461FDD13F1200FED
:1010A000DFBF16430A46002120335B42C8D0C3F19C
:1010B000200746EA064602FA07F74FEA164646EACE
:1010C0000706C3F1200722FA03F201FA07F721FA13
:1010D00003F14FF0000342EA0702B1E746EA0206D5
:1010E00046EA06464FEA164646EA0106BCBF46EA0D
:1010F0000646360C4FF000034FF000024FF000019F
:101100009EE72DE9C048934630B491E8380007C8FF
:1011100031EA400C48BF34EA430C03D5FFF7F2FD37
:10112000FFF78CFFF0BCBDE800882DE9C04893466E
:1011300030B491E8380007C810F0804F08BF13F0B2
:10114000804F03D100F005F8FFF778FFF0BCBDE851
:10115000008820F07F4780EA030023F07F4C07EBF4
:101160000C03A3F57C5300F00040A3F1FE0392F0C2
:10117000000F00F0B38095F0000F00F077802DE9AC
:1011800001494FEA11404FEA144621EA004800FBAA
:1011900006FC24EA064708FB06F607FB08F800FBF6
:1011A00007F718EB06484CEB164C4FEA124B18EBBE
:1011B00007484FEA15464CEB174022EA0B4E0BFB53
:1011C00006FC25EA06470EFB06F607FB0EFE0BFBA8
:1011D00007F71EEB064E4CEB164C4FF000061EEBCD
:1011E000074E4CEB174B18EB0B0840F1000018EBC7
:1011F0000E0B58EB000840F100008F1A4FF0000171
:101200003CBFC943661B14BFB5EB040C00213CBFB7
:10121000C943F61B4FEA17444EEA8E0E27EA0445EF
:101220004FEA1C4704FB07622CEA074C05FB07F753
:101230000CFB05F604FB0CFC16EB074642EB1742D1
:1012400016EB0C4642EB1C421BEB060658EB020267
:10125000414146EA9E0601D5BDE80189B6195241D1
:1012600041EB0101A3F10103BDE801894FEA1445F7
:101270004FEA114724EA054621EA074C05FB07F42B
:1012800006FB07F70CFB06F105FB0CFC11EB074115
:1012900044EB17444FEA124711EB0C4144EB1C445A
:1012A00022EA074C05FB07F206FB07F70CFB06F6E4
:1012B00005FB0CFC16EB074642EB174216EB0C46FF
:1012C00042EB1C456A1854F1000148BF7047B6193B
:1012D000524141EB0101A3F10103704795F0000F6A
:1012E00037D04FEA11424FEA144721EA024624EA76
:1012F000074C02FB07F106FB07F70CFB06F402FBA9
:101300000CFC14EB074441EB17414FEA154714EB73
:101310000C4441EB1C4125EA074C02FB07F506FB98
:1013200007F70CFB06F602FB0CFC16EB074645EB39
:10133000174516EB0C4645EB1C42121951F1000102
:1013400048BF7047B619524141EB0101A3F10103B7
:1013500070474FEA14454FEA114724EA054621EA4F
:10136000074C05FB07F106FB07F70CFB06F24FF0F5
:10137000000605FB0CFC12EB074241EB174112EB98
:101380000C4251EB1C4148BF7047921841EB0101E0
:10139000A3F101037047FEE710B500F018F8084903
:1013A000086001F0D3FA02460B460648064901F0F0
:1013B00075F901F041F9BDE81040014601F0F2BCB9
:1013C00078000020DBF97E6AB8A8AB41704710B501
:1013D000002806D001280FD0022818D003282BD1CE
:1013E00020E0002000F0AEF9C0F30B04012000F073
:1013F000A9F940EA04411FE0022000F0A3F9C0F37C
:101400000B04032000F09EF940EA044114E004209C
:1014100000F098F9C0F30B04052000F093F940EABE
:10142000044109E0062000F08DF9C0F30B04072009
:1014300000F088F940EA044121F0704010BD10B579
:1014400000F06CF800F08AF87E2000F07BF9A0F53F
:10145000A841493901D0012010BDFB2234210820C8
:1014600000F0B4FCFB223421092000F0AFFCFB2289
:1014700034210A2000F0AAFCFB2234210B2000F0CA
:10148000A5FC1B220021102000F0A0FC1B22002143
:10149000112000F09BFC1B220021122000F096FC82
:1014A0001B220021132000F091FC02222021142095
:1014B00000F08CFC02222021152000F087FC022283
:1014C0002021162000F082FC02222021172000F0AB
:1014D0007DFC002278211E2000F078FC002278217B
:1014E0001F2000F073FC00227821202000F06EFC09
:1014F00000227821212000F069FC002211461920E9
:1015000000F064FC0D22C2211B2000F05FFC0122D0
:1015100014211A2000F05AFC002010BD7047000072
:1015200070B50A4C002525600948016821F4704116
:101530000160016841F440510160656000F00AF803
:101540000120206000F006F8256070BDA8812142CE
:10155000040C0140022000F0A7BE000038B50121B4
:10156000082000F073FB4FF44064ADF800401020F9
:101570008DF8030003208DF80200054D69462846CA
:1015800000F002F92146284600F089F938BD000034
:10159000000C014070B50A4C00252560094801681F
:1015A00021F470410160016841F44051016001265D
:1015B0006660FFF7CFFF2660FFF7CCFF256070BDA8
:1015C000A8812142040C01402DE9F0478146002406
:1015D0001548016821F470410160016841F400413F
:1015E00001600025114E00274FF00108C6F8A871D0
:1015F000FFF7B0FFC6F8A8816006040ED6F82C01EC
:1016000008B1641CE4B2FFF7A5FF6D1CEDB2082D14
:10161000ECD3B9F1000F04D0FFF782FF2046BDE8FC
:10162000F087FFF7B7FFF9E7040C01400080214283
:101630002DE9F04105461148016821F4704101602F
:10164000016841F4405101600D4E4FF00008C6F8AA
:10165000A88100240127E809C6F8AC016806050E38
:10166000C6F8A871FFF776FFC6F8A881FFF772FFEA
:10167000641CE4B2082CEED3BDE8F081040C0140F8
:101680000080214270B50A48016821F47041016070
:10169000016841F440510160064C01206060206007
:1016A000FFF758FF00256560FFF754FF256070BD08
:1016B000040C0140A881214210B50B48016821F4B7
:1016C00070410160016841F440510160074C002005
:1016D00020606060FFF73EFF012020606060BDE891
:1016E0001040FFF737BF0000040C0140A8812142E1
:1016F00070B500241148016821F47041016001684F
:1017000041F4004101600E4D0126C5F8AC61FFF7C0
:1017100021FFC5F8A861FFF71DFF07E0641CE4B2D4
:10172000FA2C03D9FFF7C8FF012070BDD5F82C01B2
:101730000028F3D1C5F8A80170BD0000040C0140D9
:101740000080214270B50446FFF79CFF5420FFF74C
:101750006FFFFFF7CDFF2046FFF76AFFFFF7C8FFD7
:10176000FFF790FF5520FFF763FFFFF7C1FF012050
:10177000FFF72AFF05020020FFF726FF40EA0504D5
:10178000FFF79AFF204670BD2DE9F0410022CC788A
:1017900004F00F03E40601D58C7823430C784FF056
:1017A0000F0714F0FF0F4FF0010C1CD005680CFA66
:1017B00002F40E882640A64211D1960007FA06F8D8
:1017C00025EA080503FA06F848EA0505CE78282E2A
:1017D00002D0482E02D002E0446100E00461521CB5
:1017E000082AE4D305600A88FF2A1ED9456800222A
:1017F00002F108060CFA06F40E882640A64210D123
:10180000960007FA06F825EA080503FA06F848EAFA
:101810000505CE78282E00D14461CE78482E00D11F
:101820000461521C082AE3D34560BDE8F081000042
:10183000F0B5154C002801DAE36900E06368C0F3F5
:101840000346420D120185B2C0F301579540032FA4
:1018500007D0C2020CD50322B240934343F070621A
:1018600009E023F07062636823F07063636002E054
:10187000AB4343F0706201B12A43002801DAE26110
:10188000F0BD6260F0BD0000000001400246002093
:1018900092680A4200D0012070474161704701619F
:1018A0007047FEE708B50121102000F0CFF94FF492
:1018B0000050ADF8000048208DF80300694602484A
:1018C000FFF762FF08BD00000010014038B501219C
:1018D000082000F0BBF94FF40074ADF80040102070
:1018E0008DF8030003208DF8020069460348FFF7D6
:1018F0004BFF21460248FFF7D2FF38BD00140140DC
:10190000000C0140FEE7704770B50F23C278012636
:101910000178002A1ED0144A126802F4E062C2F56F
:10192000E062120AC2F10404D3404578A5408278EF
:101930001A402A43120101F1E02181F800240078C5
:1019400000F01F018E404009800000F1E020C0F847
:10195000006170BD01F01F0086404809800000F161
:10196000E020C0F8806170BD0CED00E00249084342
:1019700002490860704700000000FA050CED00E025
:1019800040F2375304E01946491E4A1CFCD1401E60
:101990000028F8D1704770B50646002505F1B00063
:1019A000C0B200F0E9F8012000F0E6F8102000F0E5
:1019B000E3F80024304600F00BF9641CE4B2802CFC
:1019C000F8D36D1CEDB2082DE8D370BD38B50121F8
:1019D000084600F03BF901214848FFF729FF0121A3
:1019E0000C2000F033F948F23800ADF80000032075
:1019F0008DF8020010208DF8030069464048FFF77B
:101A0000C3FE404C69462046FFF7BEFE202120461B
:101A1000FFF745FF08212046FFF73FFF3220FFF781
:101A2000AFFF08212046FFF73AFF0021AE2000F06B
:101A30006BF80021D52000F067F80021802000F02D
:101A400063F80021A82000F05FF800213F2000F09B
:101A50005BF80021D32000F057F80021084600F081
:101A600053F80021402000F04FF800218D2000F0B5
:101A70004BF80021142000F047F80021202000F04E
:101A800043F80021022000F03FF80021A12000F0DF
:101A90003BF80021C82000F037F80021DA2000F0E0
:101AA00033F80021122000F02FF80021812000F0EF
:101AB0002BF80021EF2000F027F80021D92000F0BA
:101AC00023F80021F12000F01FF80021DB2000F0B6
:101AD0001BF80021402000F017F80021A42000F09E
:101AE00013F80021A62000F00FF80021AF2000F02D
:101AF0000BF80020FFF74FFF38BD00000002300058
:101B000000080140000C01402DE9F0410546DFF8D6
:101B100060804FF40047002904D039464046FFF763
:101B2000BEFE03E039464046FFF7B7FE0024114EE3
:101B300020213046FFF7B1FE280604D5102130469B
:101B4000FFF7ADFE03E010213046FFF7A6FE20218F
:101B50003046FFF7A4FE6806050E641CE4B2082CAC
:101B6000E6D339464046BDE8F041FFF798BE000095
:101B700000080140000C014070B50546082421030F
:101B80001148FFF78AFE114E20213046FFF785FEEF
:101B900000BF15E0280604D510213046FFF77FFE70
:101BA00003E010213046FFF778FE20213046FFF792
:101BB00076FE00BF20213046FFF76FFE6806050E57
:101BC000641EE4B2E6D270BD00080140000C014082
:101BD00070B50546082421031248FFF760FE00BFD8
:101BE0002021114E3046FFF758FE00BF15E02806B1
:101BF00004D510213046FFF752FE03E01021304695
:101C0000FFF74BFE20213046FFF749FE00BF2021A1
:101C10003046FFF742FE6806050E641EE4B2E6D2C7
:101C200070BD000000080140000C0140704700003A
:101C3000054A002903D0D1690143D1617047D169B8
:101C40008143D1617047000000100240054A00291D
:101C500003D091690143916170479169814391611A
:101C6000704700000010024010B5264A516801F08C
:101C70000C01254B002927D0042927D0082927D07B
:101C80000360516801F0F0010909204B5C5C0168B8
:101C9000E1404160546804F4E064240A1C5D21FAC8
:101CA00004F48460546804F46054E40A1B5DD94071
:101CB000C160526802F44042920B144B1B1F9A5CA5
:101CC000B1FBF2F1016110BD0360DAE70360D8E710
:101CD000516801F47011536803F48033022404EB5B
:101CE000914133B153689B0307D5094B59430160B8
:101CF000C7E7074B59430160C3E7034B59430160F2
:101D0000BFE700000010024000127A0068000020C7
:101D100000093D00704700F001B800000CB500223A
:101D2000019200922748016841F4803101604FF42C
:101D3000A063016801F4003100910199491C0191EF
:101D4000009911B901999942F3D10168890302D52B
:101D50000121009100E000920099012930D11A4937
:101D60000A6842F010020A600A6822F003020A6060
:101D70000A6842F002020A604168416041684160BD
:101D8000416841F480614160416821F47C11416007
:101D9000416841F4E8114160016841F080710160DF
:101DA00001688901FCD5416821F003014160416867
:101DB00041F0020141604168C1F381010229FAD179
:101DC0000CBD0000001002400020024070B5064625
:101DD0000D461446FFF756FC5420FFF729FCFFF789
:101DE00087FC18B1FFF768FC012070BD3046FFF793
:101DF0001FFCFFF77DFC2846FFF71AFCFFF778FC75
:101E000018B1FFF759FC012070BD2046FFF710FC08
:101E1000FFF76EFC18B1FFF74FFC012070BDFFF714
:101E20004BFC002070BD4FF0E021042804D008696D
:101E300020F0040008617047086940F00400086160
:101E40007047704710B50F48016841F0010101600B
:101E500041680D4A1140416001680C4A114001601F
:101E6000016821F480210160416821F4FE01416094
:101E70004FF41F018160FFF74EFF05494FF00060EE
:101E8000086010BD001002400000FFF8FFFFF6FEE2
:101E900008ED00E010B5074C0121204600F06BF87A
:101EA000002805D02046BDE81040012100F054B8BC
:101EB00010BD0000000400407FB504460D4601211E
:101EC0000820FFF7B5FEADF80840ADF80450002437
:101ED000ADF80A40ADF806400D4D01A9284600F0C6
:101EE00061F801221146284600F051F832218DF8A0
:101EF00000108DF8014001218DF802108DF80310BB
:101F00006846FFF701FD0121284600F028F87FBD53
:101F1000000C004070B50E4D2888C00712D000207C
:101F2000FFF73AFA0B4CE0610120FFF735FA206227
:101F30000220FFF731FA60620320FFF72DFAA0625A
:101F400001202070288820F00100288070BD00004A
:101F5000100C004000000020C94301827047002996
:101F600004D0018841F0010101807047018821F00F
:101F700001010180704702460020138A0B409289BC
:101F80000A40002B02D0002A00D001207047002A0E
:101F900003D082890A438281704782898A43828181
:101FA0007047000030B502881B4C1C4DA0420DD07C
:101FB000A8420BD0B0F1804F08D0194B984205D001
:101FC000184B984202D0184B984203D122F070036C
:101FD0004A881A43154B984206D0154B984203D0B5
:101FE00022F44073CA881A4302808A8882850A884C
:101FF0000285A0420AD0A84208D00E4A904205D0DD
:102000000D4A904202D00D4A904201D1097A0186D0
:102010000121818230BD0000002C014000340140CC
:102020000004004000080040000C00400010004088
:1020300000140040004001400044014000480140BD
:1020400070B5164C40F22551204600F039F80028B2
:102050000ED0204600F0CEF8C1B2114A1088030419
:1020600006D444044FF0000307D50A2901D0138099
:1020700070BD40F40040108070BD0D290AD0094D9C
:10208000C0F30D042955401C80B21080C728F3D935
:10209000138070BD40F48040108070BD0038014056
:1020A0005C000020AC020020002904D0818941F4AA
:1020B000005181817047818921F4005181817047ED
:1020C00070B5002440F66A12C1F3421301F01F05F7
:1020D000012606FA05F2012B0CD0022B0DD0838AC3
:1020E0001340090A8E40008830400BB100B1012432
:1020F000204670BD83891340F3E7038A1340F0E75D
:1021000010B540F66A13C1F3421301F01F04012118
:10211000A140012B07D0022B07D014303AB102683E
:102120000A43026010BD0C30F8E71030F6E7026891
:102130008A43026010BD000030B585B004460D46EC
:10214000208A4CF6FF710840E98801432182A0896A
:102150004EF6F3110840A9882A8911436A8902437F
:102160001143A181A08A4FF6FF410840A98901438C
:10217000A1826846FFF778FD1D48844201D103988B
:1021800000E00298A189090408D500EBC00101EB29
:10219000001029684900B0FBF1F007E000EBC00136
:1021A00001EB001029688900B0FBF1F06422B0FB5C
:1021B000F2F109010B096FF018056B4300EB830086
:1021C000A3891D044FF0320307D503EBC000B0FB19
:1021D000F2F000F00700084306E003EB0010B0FB4C
:1021E000F2F000F00F000843208105B030BD000080
:1021F000003801408088C0F308007047FEE74900BE
:1022000050EAC12018BF04204A0D18BF40F0010059
:1022100040F2FF72B2EB515F08BF40F002000128AC
:1022200008BF0520704730380A2801D201207047C6
:10223000002070477047000010B56FF00400FFF7F2
:10224000F2FD094809490068B0FBF1F00849C0B245
:10225000087000EB4002C2EBC0104FF6FF7202EABA
:10226000C000488010BD00004400002000127A0029
:10227000580000200B49498848434FF0E02148614D
:1022800000238B61086940F0010008610869C207FA
:1022900001D0C003FAD5086920F0010008618B6104
:1022A00070470000580000200B49097848434FF060
:1022B000E021486100238B61086940F0010008615A
:1022C0000869C20701D0C003FAD5086920F00100EF
:1022D00008618B61704700005800002004490A889B
:1022E0005206FCD5024AC1B2121D1180704700008F
:1022F000003801402DE9F0412A4F4FF00008C7F89F
:102300000880294C294DD7E9090100F021FC21461C
:1023100000F048FDB96845F821000A20FFF7AAFF40
:10232000B868401CB8606428EDDBC7F81480C7F8B3
:1023300018801AE0411C55F8200055F8211000F0D3
:10234000FDFC0FD2BC6955F8240000F0C3FC3861D5
:10235000611C0E4655F8211045F8241000F0D6FCFB
:1023600045F82600B869401CB8617869C0F163017E
:10237000B8698142DEDC7869401C78616328D6DB6D
:102380000520F8600A4B7A6803F12801F86853F8D1
:10239000204041F822400A30F8605F28F6DBBDE8B3
:1023A000F08100000000002000007A447C00002042
:1023B0000C0200202DE9F047FFF73EFF4FF4A0602C
:1023C000FFF7D4FA4FF4E13000F0D0F8FFF7FEFA4F
:1023D000FFF77CFAFFF766FAFFF731F80028FBD128
:1023E000FEF7DAFF494CE0620120FEF7D5FF2063DB
:1023F0000220FEF7D1FF60630320FEF7CDFFA0634C
:1024000041F61F4140F2E730FFF756FD40A0FDF7CF
:102410000FFFDFF804914FF4005841464846FFF79C
:1024200035FA3E4E0027A6F1280588B93CA0FDF7F5
:10243000FFFE3D480760FFF75DFFA5F128006278C9
:10244000416A46F82210006845F82200521C62706A
:1024500041464846FFF71AFA002847D14146484608
:10246000FFF714FA0F2841D130A0FDF7E1FEE76332
:10247000304FA16BA06A00F061FD394600F092FC7C
:10248000E16B56F8211000F059FC2AD2A16BA06A2A
:1024900000F054FDE16B55F8211000F04FFC01D223
:1024A000012000E00020642148431AD022A0E16B03
:1024B000FDF7BEFEE06B56F8200000F0AFFA0246D2
:1024C0000B461FA0FDF7B4FEE06B55F8200000F0AE
:1024D000A5FA02460B461EA0FDF7AAFE2048FDF70E
:1024E000A7FEE06B401CE0630F28C2DBA16BA06A73
:1024F00000F024FD206400F091FA02460B4619A07A
:10250000FDF796FE0020BDE8F087000000000020E7
:10251000B8B4CEBB0D0A00000010014084020020B8
:10252000D1B5C1B70D0A0000A4812142BCECB2E2D2
:102530000D0A00000000C8422564D5C50D0A000040
:10254000696D696E203D2025332E33660D0A00002B
:10255000696D6178203D2025332E33660D0A000019
:10256000C030000825332E33660D0A0070B586B0E2
:102570000546012144F20400FFF768FB4FF40070A8
:10258000ADF8140003248DF8164018218DF81710AB
:102590001C4E05A93046FFF7F7F83115ADF81410B9
:1025A00004218DF8171005A93046FFF7EDF8252016
:1025B0008DF800008DF801408DF8024001208DF863
:1025C00003006846FFF7A0F901950020ADF8080068
:1025D000ADF80A00ADF80C00ADF810000C20ADF815
:1025E0000E00094C01A92046FFF7A6FD012240F28A
:1025F00025512046FFF784FD01212046FFF754FDB9
:1026000006B070BD000801400038014010B5002937
:102610000AD00878002807D005487844FEF7C0FAA9
:10262000002801D0002010BD0248784410BD0000F1
:102630000A0B0000020B000021F00042A2F16052E0
:10264000B2F5801F01F0004328BFD2F17F6C0BD997
:102650005FEA001C43EAC20242EB507018BF7047A9
:1026600028BF20F001007047B2F5801FBCBF18469C
:1026700070474FEA410C1CF5001F02D2084600F0DB
:1026800058BC70B500F075F900000089FFF7F6BF7F
:102690004FF00040A0F58000704700002DE9C041D8
:1026A00030B4DFF8A0C23CEA111418BF3CEA13149E
:1026B00000F0EC8081EA03051CEA111444EAD574A9
:1026C00018BF1CEA131500F0C780A4EB05044FF0F7
:1026D000004545EAC12145EAC32341EA505143EA96
:1026E000525304F17F74994204F500344FEAC0203C
:1026F0004FEAC22208BF904200F09C804FEA136567
:102700000FF24016765D4FEA134506FB05F7C7F159
:10271000807706FB07F74FEAD737A7FB03687642B7
:10272000C8F58038A7FB06CE38BFA8F1010807FB23
:1027300008E64FF0000EA6FB028CE6FB03CEDCF1B0
:10274000000CCEF1004E38BFAEF1010EA6FB0C58C6
:102750004FF000074FF00005E6FB0E87A1FB08C60F
:10276000A0FB07CE16EB0E0645F10005E1FB076561
:1027700015F1E04E7EBFA4F580345FEA46066D4158
:1027800016F1800745F100054FEA17274FEA066664
:1027900047EA0567A6F1DE46B6F1805F4FEA1525E8
:1027A0001FD9384624F0010C05EBC471BCF1FE6F53
:1027B00001EB0C1102D8F0BCBDE8008124425CBFE3
:1027C00001F5801E9EEAC47F02D4F0BCBDE8008102
:1027D000244238D4F0BCA1F1C041BDE8004100F072
:1027E00016B94FEAD22242EA43524FEAD323A7FB5B
:1027F00002864FEAD02040EA415007FB03661EEAFA
:102800000E0F4FEAD12105FB026658BFA6EB00561A
:10281000B6EB00564FEA520E4EEAC37E18EB0E0E90
:1028200056EB530EBDD518EB02085E417F1C55F1E7
:102830000005B6E74FF480154FF000074FF0000693
:102840004FF00008ADE7F0BC4FF0000001F1C041CF
:1028500001F00041BDE8008111EA0C1F0CEA1315DC
:1028600000D00CE013EA0C1F00F025804FF00000B0
:10287000F0BC81EA030101F00041BDE80081F0BC39
:10288000BDE8004181EA030100F0C1B8F0BCBDE839
:10289000004170B500F06DF8097EFC3E00F007B80D
:1028A00081EA03014FF0000001F00041704781EA26
:1028B000030100F0ACB8F0BCBDE800414FF00000EF
:1028C00021497047FFFDFBF9F7F5F4F2F0EEEDEB6F
:1028D000E9E8E6E4E3E1E0DEDDDBDAD8D7D5D4D31E
:1028E000D1D0CFCDCCCBCAC8C7C6C5C4C2C1C0BF6A
:1028F000BEBDBCBBBAB9B8B7B6B5B4B3B2B1B0AF70
:10290000AEADACABAAA9A8A8A7A6A5A4A3A3A2A153
:10291000A09F9F9E9D9C9C9B9A999998979796950E
:1029200095949393929191908F8F8E8E8D8C8C8BAA
:102930008B8A898988888787868585848483838232
:10294000828181800000FF070000F87FB0FA80F3E9
:1029500010FA03F10AD0C3F11D0303F580634FEAB7
:1029600041504FEA035202EBD12170474FF0000073
:1029700070470EF1020E2EF0030E5EF8046B364225
:1029800005D4012A43EB030515F5001F12D80128D1
:1029900041EB010C1CF5001F0CD80ED14FEAD17C85
:1029A00015F5001F0CEB4C0C0CF1020C08BF4CEBA6
:1029B000D37C04E04FF0080C01E04FEAD37C0CEB31
:1029C0004C0526FA05F606F00706B6F1040C06D209
:1029D0000EEB860CBDE870404CF0010C6047DFE860
:1029E0000CF0090B02024FF000414FF00000A1F57E
:1029F000002170BD19461046012851EB010418BF93
:102A0000D4F5001484BF002001F0004170BD080817
:102A1000A0F500114FEA31017047000043004FEA72
:102A2000D30C4FEA3C0C43401FBF40070CF16051F0
:102A300013F0FE4F70471CF0006F03D100200CF024
:102A4000004170470CF0004343EA507010B540EA73
:102A5000CC0000F028FA00BF000000924FEA00010D
:102A6000FFF7D5BF4FF000414FF00000A1F5002166
:102A70007047000090EA010F48BF81F0004100F16B
:102A80006482421A3CBF801A89184FEAD0524FF034
:102A90007F4C1CEA410FA2EBD15318BF9CEA026F96
:102AA00000F03B804FF0004C4CEA00204CEA012142
:102AB00021FA03FC10EB0C0C1ED202F1FF325FEA8C
:102AC0001C2040EBC25038BF70471CF07F0F4FEA0C
:102AD000400C18BFBCF17F4F38BF7047C3F12003D3
:102AE000994008BF20F00100BCF17F4F38BF70470C
:102AF000A0F1C04000F01DBA4FEA3C00000A40EBD4
:102B0000C25028BF1CF0FF0F4FEA400CE6D018BFA0
:102B1000BCF17F4F38BF7047EAE79CEA026F05D0EF
:102B200010EA5C0F08BF00F00040704710B500F0DD
:102B3000BAF900BF64FBBE3E401058BFC0F1404030
:102B4000491058BFC1F140418142EFF30080704706
:102B50004FF47F0C1CEAD0121EBF1CEAD11392EA7C
:102B60000C0F93EA0C0F00F0858090EA010F48BF2C
:102B700042F4807240F4000C41F400002CF07F41DC
:102B800020F07F4000B58142A2EB03020FF2081C47
:102B9000ACEB504EC0F100009EF800E04FEA4E0E44
:102BA00000FB0EFC38BF49004FEA2C1C02F5FA026C
:102BB0000CFB0EF34FEACE1E4FEA112C4FEAC12157
:102BC0000EEB635E42EB22420EFB0CFC4FEA1C5301
:102BD00000FB03114FEA112C4FEA01310EFB0CFCF4
:102BE0004FEADC4C00FB0C11C14228BF09184CEB2A
:102BF00003335DF804EB10EB410143EBC250B2F537
:102C00007C0F38BF704729D512F0F00F1CBF00F1C0
:102C1000C04000F000407047008182838485868731
:102C200088898B8C8D8E8F919293959697999A9C8B
:102C30009D9FA0A2A3A5A7A8AAACAEB0B2B3B5B7FA
:102C4000B9BCBEC0C2C5C7C9CCCED1D4D7D9DCDFD0
:102C5000E2E6E9ECF0F3F7FAFE0000004FEA400C80
:102C60000CF1807CBCF17E4F28BF7047B0F1C040B2
:102C700000F05FB990EA010F0CEAD11348BF42F4AB
:102C80008072624538BF634507D213F47F0F16D0B8
:102C900080EA010000F00040704710B500F003F931
:102CA000097EFC3E00F005B880EA010000F000401B
:102CB000704780EA010000F0004000F03AB912F4D9
:102CC0007F0F04BF0248704780EA010000F031B96D
:102CD0000000C07F41000B0ED3F19E0208D950F4D2
:102CE00000034FEA032323FA02F048BF4042704733
:102CF00010B500F0D8F800BF49922480002070473A
:102D00006FF0004282EA20007047000010F000419E
:102D100048BF4042B0FA80F310FA03F2C3F19D03BA
:102D20000BD051EAC35101EB1220530638BF704754
:102D300000F1010008BF20F00100704750EA010CCB
:102D400000F113801CF5000F58BFBCF5000F01D433
:102D50008842704707D710F5000F58BF11F5000FD4
:102D600015D488427047894270471CF5000F04D57E
:102D7000BCF5000FF7D5814270474FF0807C1CEB0B
:102D8000400F38BF1CEB410F01D28142704710B594
:102D900000F089F8922449004FF000504FF0805124
:102DA000FFF7CABE4FF47F0C1CEAD0121EBF1CEA0C
:102DB000D11392EA0C0F93EA0C0F00F0478090EACF
:102DC000010F48BF42F480724FF0004C4CEA0020E3
:102DD0004CEA012102EB0302A0FB0113A2F5000261
:102DE000002918BF43F001035B0028BF4FEA3303FB
:102DF00042EB22425FEA132C4CEBC2502EBFBCEBDD
:102E0000436FB2F57C0F70474FEA036CBCF1004F83
:102E100008BF20F00100B2F57C0F38BF70470BD51A
:102E200082F0FF0212F5803FC8BF704700F1C0403A
:102E3000D8BF00F00040704700F5000C5FEA4C0C72
:102E400048BF7047B0F1C04000F073B890EA010F7E
:102E50000CEAD11348BF42F48072624538BF634523
:102E600004D280EA010000F00040704710B500F085
:102E70001AF800BF8900013E00F007B800F009B859
:102E80005FEA410C5FEA1C6C08D080EA010000F0A8
:102E900050B85FEA400C5FEA1C6CF6D14FF000407E
:102EA000A0F5800070470EF1020E2EF0030E5EF8C2
:102EB000044B244204D44FEA4102B2F17F4F11D8AF
:102EC0004FEA4003B3F17F4F0CD80ED14FEAD07CCC
:102ED000B2F17F4F0CEB4C0C0CF1020C08BF4CEB29
:102EE000D17C04E04FF0080C01E04FEAD17C0CEB00
:102EF0004C0324FA03F404F00704B4F1040C06D2E2
:102F00000EEB840CBDE810404CF0010C6047DFE88C
:102F10000CF0070802024FF00040A0F5800010BD41
:102F20000846420018BFD2F1807288BF00F000400E
:102F300010BDFF2141EAD050C005704790EA010F53
:102F400048BF81F000413FF59CAD421A04D882F0A1
:102F50000042A0EB020011444FEAD0524FF07F4CE8
:102F60001CEA410FA2EBD15318BF9CEA026F4AD072
:102F70004FF0004C4CEA00204CEA012121FA03FCFE
:102F8000B0EB0C0C0FD412F0FE0F36D05FEA4C0001
:102F90001DD5001240EBC25038BF70471CF03F0FE8
:102FA00018BF70470BE0A2F101025FEA1C2040EB62
:102FB000C25038BF70471CF07F0F18BF7047C3F175
:102FC0002003994014BF401E20F001007047800884
:102FD0004FEA122308BF7047B0FA80FCA2EB0C0244
:102FE000CCF1280C60FA0CF093EA122F04BF00EB2E
:102FF000C25070474FEAC3707047130A5FEADC1093
:1030000008BF7047F6E79CEA026F04D010EA5C0F35
:1030100008BF0020704710B5FFF745FF40DFF63EC0
:1030200081F000407047FDF72EBB00000240000019
:10303000000000A00000000005400000000000C8E3
:10304000000000000C4000000000409C0000000058
:10305000194000000020BCBE000000003440000009
:10306000BFC91B8E00000004B5400000504BCFD0FC
:103070006607E2CF010000006C4100003E8251AAC9
:10308000DFEEA73401000000D9420000DCB5A0E269
:103090003A301F97FFFFFFFFB4450000FD25A0C891
:1030A000E9A3C14FFFFFFFFFFF3F000000000080CA
:1030B00000000000FF3F0000000000800000000052
:1030C0002D2D2D2D2D2D2D2D2D2D2D2D2D2D2D2D30
:1030D0002D2D2D2D2D2D2D2D2D2D2D2D2D2D2D2D20
:1030E0002D2D2D2D2D2D2D2D2D2D2D2D2D2D2D2D10
:1030F0002D2D2D2D2D2D2D2D2D2D2D2D2D2D2D2D00
:103100000D0A000040310008000000207C00000093
:103110006C010008BC3100087C0000205C09000044
:10312000880100081C00000043000000F8FFFFFFBA
:103130000C0000000E0000000F0000002E00000038
:10314000000000000000000000000000000000007F
:10315000000000000000000000000000000000006F
:10316000000000000000000000000000000000005F
:10317000000000000000000000000000000000004F
:103180000000000000A24A0400000000000000004F
:103190000102030406070809000000000000000007
:1031A0000000000002040608000000000102030401
:0C31B000010203040607080900000000EB
:04000005080001ED01
:00000001FF
