:020000040800F2
:1000000098080020F101000817560008EB190008B5
:1000100015560008F3130008295F000800000000CF
:10002000000000000000000000000000415A00082D
:1000300029140008000000003D5900086F5B00080B
:100040000B0200080B0200080B0200080B0200085C
:100050000B0200080B0200080B0200080B0200084C
:100060000B0200080B0200080B0200080B0200083C
:100070000B0200080B0200080B0200080B0200082C
:100080000B0200080B0200080B0200080B0200081C
:100090000B0200080B0200080B0200080B0200080C
:1000A0000B0200080B0200080B0200080B020008FC
:1000B0000B020008C15B00080B0200080B020008DD
:1000C0000B0200080B0200080B0200080B020008DC
:1000D0000B0200086D5D00080B0200080B0200080F
:1000E0000B0200080B0200080B0200080B020008BC
:1000F0000B0200080B0200080B0200080B020008AC
:100100000B0200080B020008415C00080B0200080B
:100110000B0200080B0200080B0200080B0200088B
:100120000B0200080B0200080B0200080B0200087B
:1001300000F002F800F04DF80AA090E8000C8244AC
:100140008344AAF10107DA4501D100F042F8AFF289
:10015000090EBAE80F0013F0010F18BFFB1A43F0A5
:1001600001031847DC6C0000FC6C0000103A24BF4F
:1001700078C878C1FAD8520724BF30C830C144BF0C
:1001800004680C607047000000230024002500264E
:10019000103A28BF78C1FBD8520728BF30C148BFEA
:1001A0000B607047662906F0C885642900F07680E8
:1001B000782900F0AF80002070471FB500F0DAFB0F
:1001C00004000020002106F099F8E0601FBD10B582
:1001D00010BD00F0E7FC1146FFF7EFFF05F020FF30
:1001E00000F005FD03B4FFF7F2FF03BC05F0B8FE15
:1001F0000948804709480047FEE7FEE7FEE7FEE7BB
:10020000FEE7FEE7FEE7FEE7FEE7FEE704480549F6
:10021000054A064B70470000715B00083101000879
:1002200098020020980800209804002098040020DC
:10023000704700000FB4044910B503AA029800F0FB
:1002400087FB10BC5DF814FB5000002070B504461D
:1002500085690068C10601D5302600E02026C00768
:1002600007D070BDD4E9012130469047206A401C78
:1002700020626D1EF6D570BD70B5044685690078A4
:10028000C00707D170BDD4E9012120209047206A22
:10029000401C20626D1EF6D570BD00002DE9F041B6
:1002A0000646002410687529314616A510D0AFF314
:1002B0000080002802DA404213A507E031688A076F
:1002C00001D512A502E0490704D511A5012401E0DA
:1002D000AFF3008000210A2206F1240709E0B0FBF9
:1002E000F2FCB0FBF2F302FB1C00303078541846ED
:1002F000491C0028F3D123462A463046BDE8F04188
:1003000000F0BFB8000000002D0000002B0000002E
:100310002000000070B504460D4621461068AFF37A
:1003200000802188090502D50F4A7A4402E00E4A6E
:100330007A440E32002104F1240305E000F00F0698
:100340000009965D5E54491C0028F7D120780023EF
:10035000000704D5702D02D009B1022311322046C6
:10036000BDE8704000F08DB8106A00002DE9F0473C
:100370004FF0000A89460446C0F820A02046E168F4
:100380008847002876D0252806D0D4E90121904757
:10039000206A401C2062F1E7E1682046002588477A
:1003A000C4F81CA006460027C4F818A02A2E09D0BD
:1003B000304605F0CEFD38B304EB8708303EC8F870
:1003C000186019E059F8041B204604EB870291617C
:1003D000E1688847012F064618D1E069002820DA35
:1003E00025F020051DE0D8F8180000EB800006EB92
:1003F00040003038C8F818002046E16888470646B3
:1004000005F0A7FD0028EED1012F0AD02E2E08D12D
:100410002046E16888477F1C0646022F45F02005EC
:10042000C4DBA069002803DA404245F00105A06161
:10043000E80701D025F01005B6B1A6F14100192852
:1004400002D8203645F400654A46314620462560EC
:100450004D46FFF7A7FE58B1012806D0ED1D25F047
:10046000070000F1080989E704E005F1040985E7C0
:1004700030468AE7206ABDE8F087704770477047CA
:1004800070472DE9F0470D4699469246044600F123
:1004900024080168880604D5E06921F01001216074
:1004A00000E00120A84201DD471B00E00027A16910
:1004B0007A1902EB0900081AA0612078C00602D45C
:1004C0002046FFF7C3FE002608E0D4E901211AF810
:1004D00006009047206A401C761C20624E45F4DBE3
:1004E0002078C0060AD52046FFF7B0FE06E0D4E922
:1004F000012130209047206A401C2062381EA7F15D
:100500000107F4DC07E0D4E9012118F80500904761
:10051000206A401C2062281EA5F10105F3DC20465C
:10052000FFF7AAFE2078000602D50220BDE8F0877A
:100530000120FBE770472DE9FF4F0C461E464FF0A8
:10054000FF378BB0D2E90001DDF860800A908A465F
:10055000C1F30A5505B93D46002108464FF0000099
:10056000BAF1000F00F4400005DA00EB80004FF410
:10057000400101EA50004FEA9059B9F1010F00DD46
:10058000B9460A9850EA4A000ED044F61050A5F237
:10059000FF3545432F14B8F1000F1ED07542291EB8
:1005A0001EDDC9F100021CE0B8F1010F4FF00000A0
:1005B00001D0302103E0F24305E02154401CB04259
:1005C000FBDB30460022002121540B99C1F8088042
:1005D000C1E900200FB0BDE8F08FBD1B6D1CDEE748
:1005E0004A4600DA694206A800F066FA06AB93E8CC
:1005F000070003AB83E8070050460A9900F03EFB72
:100600008DE80700A0F500501F3800900398002DDA
:1006100009DD42F21F014A46084403A903906846D7
:1006200000F09DFD08E0A0F500504A461F3803A9E0
:100630000390684600F0A7FD8DE807000004000C59
:1006400003D04FF0FF30410800E01046B8F1000F32
:1006500003D00022009215461EE0751E05D400F05E
:100660008DF9303262556D1EF9D5B346012208432B
:1006700002D000227F1C04E02078302801D1002223
:100680007F1E002A099786D01DE0112D07DA00F0A1
:1006900075F9303262556D1C50EA0102F5D10843FC
:1006A00002D00098C8B10EE00021681E05E0235C6E
:1006B000625C63542254401E491C8142F7DBAB4606
:1006C000A81B401E0990002004F80B000B98099A03
:1006D000C0F80880C0E9002B7CE711264FF0000825
:1006E00059E72DE9F04F88460446D21D22F0070154
:1006F00091B0D1E90001CDE90A0105F016FC0246EE
:100700000B98C00F01D02D2007E02068810701D58C
:100710002B2002E0202101EAC000032A099001D029
:10072000072A05DB03464146204600F085F90BE128
:100730002078800601D5E06900E00620B8F1650F59
:10074000814606D0B8F1660F18D0B8F1670F70D1A6
:1007500031E00020B9F1110F009001DB112301E01D
:1007600009F101030AAA01A90CA8FFF7E4FEDDE9DB
:100770000C70002609F10105834647E001204B4635
:1007800000904FF000470AAA01A90CA8FFF7D3FE7A
:10079000DDE90DB00C995D46002610B909F10100A4
:1007A0000D18B9EB050003D4C0F1FF3609F10105BE
:1007B000A5EB09002BE0B9F1010F01DA4FF00109B7
:1007C0000020B9F1110F0090484601DD112300E02F
:1007D00003460AAA01A90CA8FFF7ADFEDDE90C70DB
:1007E0004D4600268346207800070AD4AB4500DA40
:1007F0005D4601A8012D04DD411911F8011C3029C5
:1008000007D04F4502DA17F1040F04DA01208246BF
:100810000FE06D1EEEE7002F02DCED1B3E4403E00F
:10082000781CA84200DD7D1CB81B00F1010A4FF0C6
:1008300000472078000703D4AA4501DB4FF0FF3AB8
:100840000021B7F1004F0DF143088DF8431024D07B
:1008500002202B23002F01DA7F422D230A21021EC2
:10086000A0F1010000DC5FB197FBF1FC97FBF1F216
:1008700001FB1C7C17460CF1300C08F801CDEEE7AB
:10088000A8F1010003702188090501D5452100E088
:100890006521A0F1010800F8011C09980FA9A1EB3E
:1008A0000807FF1D00B10120411901EBEA70A169A1
:1008B0003844081A401EA0612078C00602D42046A1
:1008C000FFF7C4FC099828B1D4E901219047206AB8
:1008D000401C20622078C00622D52046FFF7B6FCD7
:1008E0001EE0002E04DBB34502DD01A8805D00E0C0
:1008F0003020D4E901219047206A401C2062761CF8
:10090000AAF101005FEA000A0AD100F033F8C068DA
:100910000168405CD4E901219047206A401C2062B4
:10092000281EA5F10105DCDC07E0D4E9012118F857
:10093000010B9047206A401C2062381EA7F1010776
:10094000F3DC2046FFF798FC032011B043E60000DB
:10095000074B70B50D467B4400F05BF80446284613
:1009600000F018F910B14FF0FF3070BD204670BD97
:10097000AF560000004870475402002030B5B0F177
:100980000A024FEA900E71F100034EEA817EB0EB4D
:100990000E0061EB91014FEA101E4EEA017E10EB52
:1009A0000E0041EB11114FEA102E4EEA016E10EBD2
:1009B0000E0041EB11214FEA104E4EEA014E10EBB2
:1009C0000E0041EB1141401841F100014FEAD00007
:1009D00040EA41704FEAD10110EB80054FEA8104F3
:1009E00044EA907444EB01046D1944EB0404521B77
:1009F000A3414FF0000348BF0A3200D530BD401C70
:100A000041F1000130BD000001694A1C0261087813
:100A1000704700B58FB0CDE901310021059105493E
:100A20007944CDE9031011466846FFF79FFC0FB0EB
:100A300000BD0000E5FFFFFF2DE9F0411F46044621
:100A400003260168072A01F4006004DB08B116A53B
:100A500005E016A503E008B115A500E015A521F0F5
:100A600010002060A069C01EA0610FB1401EA061EF
:100A70002046FFF7EBFB4FB1D4E901213846904700
:100A8000206A401C2062C01C206206E0206AFAE74F
:100A9000D4E9012115F8010B9047761EF8D22046C3
:100AA000FFF7EAFBBDE8F0814E414E006E616E003B
:100AB000494E4600696E66002DE9F04781461646AC
:100AC0008AB0334878440DC88DE80D00304878442A
:100AD000801C03AC0DC884E80D0041F69B3008442F
:100AE000372190FBF1F290FBF1F5A5F1800501FBB8
:100AF00012041B3C02D56442012000E00020DFF814
:100B000090A080460027FA44AAF1BE0A0DE0E00753
:100B100009D03246684607EB47010AEB810100F035
:100B200032FB8DE8070064107F1C002CEFD1184FBA
:100B30007F44AC3F18E0E80714D007EB04100DF138
:100B4000180A90E80E008AE80E00C068F04201D151
:100B500098190890324606A903A800F014FB03ABCD
:100B600083E807006D10641C002DE4D1324669460D
:100B7000B8F1000F03A802D000F0F1FA01E000F094
:100B800002FBC9E90001C9F808200AB0BDE8F087F6
:100B90001C630000007B00F0800070470048704735
:100BA000340200207546FFF7F9FFAE46050069469E
:100BB000534620F00700854618B020B5FFF726FB06
:100BC000BDE820404FF000064FF000074FF000084E
:100BD0004FF0000B21F00701AC46ACE8C009ACE8CF
:100BE000C009ACE8C009ACE8C0098D4670470446AE
:100BF000AFF300802046FFF7F5FA00004FF0013C0C
:100C000050F8042B51F8043B9A4221D1A2EB0C037B
:100C1000934313EACC1317D150F8042B51F8043B3B
:100C20009A4215D1A2EB0C03934313EACC130BD1D8
:100C300050F8042B51F8043B9A4209D1A2EB0C0363
:100C4000934313EACC13DBD04FF00000704700BF92
:100C5000D01A01BAB1FA81F101F0180122FA01F0BB
:100C6000CB40C1F12001DBB2C0B2C01A2CFA01F3B3
:100C7000D11A914311EAC311E6D170475FEA400CE3
:100C800008BF91F0000F4FEA8C234FEAC12243EADC
:100C900051514FEA1C5018BF00F5F0404FEA3000A8
:100CA00018BF41F000415FEA6C5C00F02980BCF1A4
:100CB000FF3F08BF40F080407047130C06BF12048E
:100CC0004FF0100C4FF0000C130E04BF12020CF189
:100CD000080C130F04BF12010CF1040C930F04BF96
:100CE00092000CF1020CD30F04BF52000CF1010C66
:100CF00011464FF00002A0F11F00A0EB0C0070475E
:100D000011F0004F08BF704731F000413FF4D5AFFC
:100D10000B0C06BF09044FF0100C4FF0000C0B0E2B
:100D200004BF09020CF1080C0B0F04BF09010CF100
:100D3000040C8B0F04BF89000CF1020CCB0F04BF15
:100D400049000CF1010CCCF12003A0EB0C0022FABD
:100D500003F302FA0CF241EA030100F101007047CB
:100D600020F07F4C80EA030023F07F47ACEB0703C1
:100D700003F57C5300F0004003F1FF032DE98049A7
:100D80004FEA154B09B44FEA144325EA0B4E24EA07
:100D900003480FF2042606EB132749083E785FEA62
:100DA000320203FB0667C7F5000707FB06F64FEAAA
:100DB00054374FEAD64606F1020607FB066CCCF123
:100DC000005C4FEA1C472CEA074C07FB06F40CFBBF
:100DD00006F504EB15464FEA961634BF00204FF097
:100DE00000404FEAD13706FB07FC4FEA1C4C0CFBD6
:100DF0000BF7D21B03FB0CF761EB07010CFB0EF7A3
:100E0000B0EB074072EB17420CFB08F734BFA2EBC4
:100E10000742B2EB074261EB17414FEA0C444FEA3D
:100E2000910706FB07FC4FEA1C4C0CFB0BF7B0EBE1
:100E3000C74072EB573203FB0CF734BFA2EBC7423B
:100E4000B2EBC74261EB57310CFB0EF7B0EBC700BA
:100E500072EB57720CFB08F734BFA2EBC702B2EB80
:100E6000C70261EB5771039F4FEA816141EA92111A
:100E700004EBCC044FEAD1374FEA826206FB07FC51
:100E800042EA90124FEA80604FEA1C4C0CFB0BF7D1
:100E9000D21B03FB0CF761EB07010CFB0EF7B0EB69
:100EA000074072EB17420CFB08F734BFA2EB074276
:100EB000B2EB074261EB17414FEA8C554FEA9107BD
:100EC00004EB9C2406FB07FC4FEA1C4C0CFB0BF7C5
:100ED000B0EBC74072EB573203FB0CF734BFA2EB09
:100EE000C742B2EBC74261EB57310CFB0EF7B0EBD8
:100EF000C70072EB57720CFB08F734BFA2EBC702B6
:100F0000B2EBC70261EB577115EB4C254FEA8161DB
:100F100041EA92114FEA82624FEAD13742EA9012D7
:100F200006FB07FC44F100044FEA80604FEA1C4CCA
:100F30000CFB0BF7D21B03FB0CF761EB07010CFB5F
:100F40000EF7B0EB074072EB17420CFB08F734BF0B
:100F5000A2EB0742B2EB074261EB174115EB1C1500
:100F60004FEA813141EA92414FEA823242EA9042AD
:100F70004FEA80304FEA0C7644F1000448EA03431C
:100F80004EEA0B484FF0000EB2EB080C71EB030772
:100F900024BF624639464EEB0E0E4FF0000B001890
:100FA000524149414BEB0B0BB2EB080C71EB0307C1
:100FB0007BF1000B24BF624639464EEB0E0E4FF01C
:100FC000000B0018524149414BEB0B0BB2EB080CE4
:100FD00071EB03077BF1000B24BF624639464EEBF1
:100FE0000E0E51EA020718BF46F0010616EB0E7608
:100FF00055F1000254F1000103D5BDE88901BDE8B7
:101000000088BDE88901BDE80048B619524141EBAE
:101010000101A3F10103704780807F7E7D7C7B7A94
:101020007978777676757473727171706F6E6E6D94
:101030006C6C6B6A6A69686867666665646463633A
:1010400062616160605F5F5E5E5D5D5C5C5B5B5AC0
:101050005A5959585857575656555555545453532D
:1010600052525251515050504F4F4F4E4E4D4D4D88
:101070004C4C4C4B4B4B4A4A4A49494948484847D3
:101080004747474646464545454444444443434311
:101090004342424242414141002B26D4770021D0B5
:1010A0001CB54FEA370703B44FF010004FF01001A2
:1010B0004FF000000FBCBDE810400BF1010BBBF17D
:1010C000010F08BF5FEA170722BF12F1010211F1F9
:1010D00001014FF0004143F1000300F0004043EAFA
:1010E00000007047F9D35708DAE746EA064613F1DD
:1010F000400F4FEA16461FDD13F1200FDFBF1643E6
:101100000A46002120335B42C8D0C3F1200746EADB
:10111000064602FA07F74FEA164646EA0706C3F103
:10112000200722FA03F201FA07F721FA03F14FF040
:10113000000342EA0702B1E746EA020646EA06462B
:101140004FEA164646EA0106BCBF46EA0646360C9A
:101150004FF000034FF000024FF000019EE72DE931
:10116000C048934630B491E8380007C831EA400CD3
:1011700048BF34EA430C03D5FFF7F2FDFFF78CFFBD
:10118000F0BCBDE800882DE9C048934630B491E832
:10119000380007C810F0804F08BF13F0804F03D10C
:1011A00000F005F8FFF778FFF0BCBDE8008820F0FC
:1011B0007F4780EA030023F07F4C07EB0C03A3F585
:1011C0007C5300F00040A3F1FE0392F0000F00F00A
:1011D000B38095F0000F00F077802DE901494FEAC8
:1011E00011404FEA144621EA004800FB06FC24EABD
:1011F000064708FB06F607FB08F800FB07F718EBA5
:1012000006484CEB164C4FEA124B18EB07484FEAD6
:1012100015464CEB174022EA0B4E0BFB06FC25EA69
:1012200006470EFB06F607FB0EFE0BFB07F71EEB51
:10123000064E4CEB164C4FF000061EEB074E4CEBE7
:10124000174B18EB0B0840F1000018EB0E0B58EB96
:10125000000840F100008F1A4FF000013CBFC94365
:10126000661B14BFB5EB040C00213CBFC943F61B41
:101270004FEA17444EEA8E0E27EA04454FEA1C4710
:1012800004FB07622CEA074C05FB07F70CFB05F68D
:1012900004FB0CFC16EB074642EB174216EB0C4620
:1012A00042EB1C421BEB060658EB0202414146EAA8
:1012B0009E0601D5BDE80189B619524141EB0101F5
:1012C000A3F10103BDE801894FEA14454FEA114734
:1012D00024EA054621EA074C05FB07F406FB07F75D
:1012E0000CFB06F105FB0CFC11EB074144EB17442A
:1012F0004FEA124711EB0C4144EB1C4422EA074C25
:1013000005FB07F206FB07F70CFB06F605FB0CFCDA
:1013100016EB074642EB174216EB0C4642EB1C4518
:101320006A1854F1000148BF7047B619524141EBA9
:101330000101A3F10103704795F0000F37D04FEA88
:1013400011424FEA144721EA024624EA074C02FB05
:1013500007F106FB07F70CFB06F402FB0CFC14EB91
:10136000074441EB17414FEA154714EB0C4441EB9E
:101370001C4125EA074C02FB07F506FB07F70CFBAF
:1013800006F602FB0CFC16EB074645EB174516EB81
:101390000C4645EB1C42121951F1000148BF704741
:1013A000B619524141EB0101A3F1010370474FEA25
:1013B00014454FEA114724EA054621EA074C05FB8C
:1013C00007F106FB07F70CFB06F24FF0000605FBE2
:1013D0000CFC12EB074241EB174112EB0C4251EBB4
:1013E0001C4148BF7047921841EB0101A3F1010372
:1013F0007047FEE710B500F018F80849086005F0DE
:101400004AF902460B460648064904F0BFFF04F0BD
:101410008BFFBDE81040014605F01CBB68000020B2
:10142000DBF97E6AB8A8AB41704710B5002806D03A
:1014300001280FD0022818D003282BD120E000204B
:1014400000F0AEF9C0F30B04012000F0A9F940EA66
:1014500004411FE0022000F0A3F9C0F30B040320B5
:1014600000F09EF940EA044114E0042000F098F9ED
:10147000C0F30B04052000F093F940EA044109E0B1
:10148000062000F08DF9C0F30B04072000F088F966
:1014900040EA044121F0704010BD10B500F06CF836
:1014A00000F08AF87E2000F07BF9A0F5A8414939C8
:1014B00001D0012010BDFB223421082004F01CFBC8
:1014C000FB223421092004F017FBFB2234210A20DF
:1014D00004F012FBFB2234210B2004F00DFB1B2235
:1014E0000021102004F008FB1B220021112004F031
:1014F00003FB1B220021122004F0FEFA1B22002114
:10150000132004F0F9FA02222021142004F0F4FA46
:1015100002222021152004F0EFFA022220211620B9
:1015200004F0EAFA02222021172004F0E5FA002252
:1015300078211E2004F0E0FA002278211F2004F018
:10154000DBFA00227821202004F0D6FA002278214C
:10155000212004F0D1FA00221146192004F0CCFA1F
:101560000D22C2211B2004F0C7FA012214211A20E7
:1015700004F0C2FA002010BD7047000070B50A4C9C
:10158000002525600948016821F470410160016867
:1015900041F440510160656000F00AF801202060CC
:1015A00000F006F8256070BDA8812142040C0140BE
:1015B000022004F00FBD000038B50121082004F01E
:1015C000DBF94FF44064ADF8004010208DF80300C3
:1015D00003208DF80200054D6946284600F079F990
:1015E0002146284600F0FFF938BD0000000C0140FC
:1015F00070B50A4C002525600948016821F4704146
:101600000160016841F44051016001266660FFF706
:10161000CFFF2660FFF7CCFF256070BDA881214277
:10162000040C01402DE9F04781460024154801686B
:1016300021F470410160016841F40041016000251E
:10164000114E00274FF00108C6F8A871FFF7B0FF50
:10165000C6F8A8816006040ED6F82C0108B1641CF7
:10166000E4B2FFF7A5FF6D1CEDB2082DECD3B9F184
:10167000000F04D0FFF782FF2046BDE8F087FFF798
:10168000B7FFF9E7040C0140008021422DE9F04149
:1016900005461148016821F470410160016841F478
:1016A000405101600D4E4FF00008C6F8A88100249B
:1016B0000127E809C6F8AC016806050EC6F8A8714E
:1016C000FFF776FFC6F8A881FFF772FF641CE4B24B
:1016D000082CEED3BDE8F081040C014000802142CB
:1016E00070B50A48016821F470410160016841F455
:1016F00040510160064C012060602060FFF758FFF8
:1017000000256560FFF754FF256070BD040C0140A3
:10171000A881214210B50B48016821F47041016095
:10172000016841F440510160074C00202060606076
:10173000FFF73EFF012020606060BDE81040FFF72A
:1017400037BF0000040C0140A881214270B500247D
:101750001148016821F470410160016841F40041C1
:1017600001600E4D0126C5F8AC61FFF721FFC5F8F9
:10177000A861FFF71DFF07E0641CE4B2FA2C03D94F
:10178000FFF7C8FF012070BDD5F82C010028F3D168
:10179000C5F8A80170BD0000040C01400080214282
:1017A00070B50446FFF79CFF5420FFF76FFFFFF76B
:1017B000CDFF2046FFF76AFFFFF7C8FFFFF790FF56
:1017C0005520FFF763FFFFF7C1FF0120FFF72AFF56
:1017D00005020020FFF726FF40EA0504FFF79AFF05
:1017E000204670BD8000A0F1C040002904D00168EF
:1017F00041F00101016070470168024A1140016037
:1018000070470000FEFF0F0010B5D0E90112114330
:10181000D0E903231A4311434269114382691143FA
:10182000C2691143026A1143426A1143826A114339
:10183000C26A1143026B114302689200A2F1C042D6
:1018400011608168082907D101688900A1F1C041B0
:101850000A6842F040020A60416BD1E9002342EA83
:1018600003128B688C891B0243EA04431A430B8AD8
:1018700042EA03520B7D896942EA03620A43016826
:10188000491C8900A1F1C0410A60C16AB1F5804FCD
:1018900008D000686FF070418000A0F1C040C0F82F
:1018A000041110BD816BD1E9002342EA03128B6859
:1018B0000C8A1B0243EA04531A430B7D896942EAEE
:1018C000036200680A438000A0F1C040C0F8042110
:1018D00010BD2DE9F0410022CC7804F00F03E4069E
:1018E00001D58C7823430C784FF00F0714F0FF0FCD
:1018F0004FF0010C1CD005680CFA02F40E8826404B
:10190000A64211D1960007FA06F825EA080503FA5F
:1019100006F848EA0505CE78282E02D0482E02D0D7
:1019200002E0446100E00461521C082AE4D305602F
:101930000A88FF2A1ED94568002202F108060CFA1F
:1019400006F40E882640A64210D1960007FA06F843
:1019500025EA080503FA06F848EA0505CE78282E98
:1019600000D14461CE78482E00D10461521C082A6F
:10197000E3D34560BDE8F081F0B5154C002801DAED
:10198000E36900E06368C0F30346420D120185B2CB
:10199000C0F301579540032F07D0C2020CD5032294
:1019A000B240934343F0706209E023F070626368D1
:1019B00023F07063636002E0AB4343F0706201B1F7
:1019C0002A43002801DAE261F0BD6260F0BD000048
:1019D000000001400246002092680A4200D0012027
:1019E00070474161704701617047FEE708B501210A
:1019F000802003F0C1FF0820ADF8000048208DF8DA
:101A0000030069460148FFF764FF08BD001C014060
:101A10002DE9F04306460024174F38887D8845435A
:101A2000B888A0F5D041043902D1B879012807D08F
:101A30000021084603F0FCFC03F0BEFD0F4916E050
:101A40000020B8714FF02A09A7F80A904FF02B0830
:101A5000A7F80C800021084603F0EAFC0120B871C9
:101A6000A7F80A80A7F80C90E6E70E80641CAC4249
:101A7000FBD3BDE8F0830000240200200008006CC6
:101A80002DE9F04F4D492A232B24898845F2105C1B
:101A90004FF430584FF428594FF448754FF0F00A7E
:101AA00049F2413B4FF4A07745F210364FF4F07203
:101AB000002810D041484FF0010E80F806E0078062
:101AC000A0F802A0594501D0B14240D12C25058192
:101AD000438184815CE039484FF0000E80F806E0D5
:101AE000A0F800A04780594506D0A1F5D04ABAF128
:101AF000040A01D0B1420CD12C2505814381848197
:101B0000A1F5D043043B01D0B14249D107804280C6
:101B100046E0614509D1A0F80880A0F80A904FF48A
:101B20002C518181028045803AE0A1F5C856633E80
:101B300006D02221018120214181212181812FE0B4
:101B40002C210181448183810280458028E0A1F518
:101B5000D04ABAF1040A0BD061450ED1A0F8088032
:101B6000A0F80A904FF42C538381058042800FE047
:101B70002C250581448183810AE0A1F5C85CBCF174
:101B8000630C12D0222303812123438120238381EC
:101B9000A1F5D043043B01D0B14201D1028047807E
:101BA000BDE8F04F002003F037BB4FF02C0CA0F83D
:101BB00008C04381848105804280E9E72402002037
:101BC0002DE9F04F9FB001210D02284603F0B8FE29
:101BD00001214FF4B47003F0CFFE4FF00108ADF8CF
:101BE000788010278DF87B7003248DF87A401EA929
:101BF000FE48FFF76EFE4CF23370ADF87800182601
:101C00008DF87B608DF87A401EA9F948FFF761FED8
:101C10004FF68070ADF878008DF87B608DF87A40D3
:101C20001EA9F448FFF755FE41F20100ADF8780017
:101C30008DF87B608DF87A401EA9EF48FFF749FECA
:101C4000CDF82080002009900F210A910B900C9074
:101C50000D900E90019002900394049005900690D0
:101C6000079006210F9110901190129713901590E4
:101C700014901690179029011891199089001A91C3
:101C80001B9008A81C9001A81D900FA8FFF7BCFD91
:101C900001210620FFF7A6FD322004F081F9002083
:101CA00003F08AFAD54CA08049F2413946F6040A7D
:101CB00045F2103B45F210564FF6FF77FF2804D34C
:101CC000B84202D0B0F5134F78D1D32003F06EFCA8
:101CD00003F068FAA08003F065FAA08003F062FACE
:101CE00007EA0020A08003F05DFAA1880843A080E5
:101CF000484563D0BF2003F059FC03F053FAA0809D
:101D000003F050FAA08003F04DFAA08003F04AFAE5
:101D100007EA0020A08003F045FAA1880843A080CC
:101D200050454BD0D42003F041FC03F03BFAA08097
:101D300003F038FAA08003F035FA07EA0020A0800B
:101D400003F030FAA1880843A080584536D04FF4FC
:101D50005A4003F02BFC03F025FAA0804FF45B40BF
:101D600003F024FC03F01EFA07EA0020A0804FF4E1
:101D70005C4003F01BFC03F015FAA1880843A08027
:101D8000B0F5004F00D1A680A088B04216D0A120A7
:101D900003F00CFC03F006FAA08003F003FA07EA54
:101DA0000020A08003F0FEF9A1880843A080A0F5E0
:101DB000AE41613902D141F66310A080A18890A0A4
:101DC000FEF738FAA08848457ED1CF2003F0EEFB1D
:101DD000002003F0E5FBC12003F0E2FB302003F01C
:101DE000DFFBED2003F0E2FB642003F0D9FB0320CE
:101DF00003F0D6FB122003F0D3FB812003F0D0FBCD
:101E0000E82003F0D3FB852003F0CAFB102003F089
:101E1000C7FB7A2003F0C4FBCB2003F0C7FB3920BB
:101E200003F0BEFB2C2003F0BBFB002003F0B8FB4B
:101E3000342003F0B5FB022003F0B2FBF72003F0DF
:101E4000B5FB202003F0ACFBEA2003F0AFFB002041
:101E500003F0A6FB002003F0A3FBC02003F0A6FBC9
:101E60001B2003F09DFBC12003F0A0FB012003F029
:101E700097FBC52003F09AFB302003F091FB302044
:101E800003F08EFBC72003F091FBB72003F088FB23
:101E9000362003F08BFB482003F082FB3A2003F04E
:101EA00085FB552003F07CFBB12003F07FFB002075
:101EB00003F076FB1A2003F073FBB62003F076FBE9
:101EC0000A2003F06DFB00E0AAE0A22003F068FB0B
:101ED000F22003F06BFB002003F062FB262003F0EE
:101EE00065FB012003F05CFBE02003F05FFB0F20AB
:101EF00003F056FB2A2003F053FB282003F050FB8D
:101F0000082003F04DFB0E2003F04AFB082003F0ED
:101F100047FB542003F044FBA92003F041FB43207E
:101F200003F03EFB0A2003F03BFB0F2003F038FBDD
:101F3000002003F035FB002003F032FB002003F00B
:101F40002FFB002003F02CFBE12003F02FFB0020EF
:101F500003F026FB152003F023FB172003F020FBE2
:101F6000072003F01DFB112003F01AFB062003F0ED
:101F700017FB2B2003F014FB562003F011FB3C2031
:101F800003F00EFB052003F00BFB102003F008FB11
:101F90000F2003F005FB3F2003F002FB3F2003F07E
:101FA000FFFA0F2003F0FCFA2B2003F0FFFA0020C9
:101FB00003F0F6FA002003F0F3FA012003F0F0FA40
:101FC0003F2003F0EDFA2A2003F0F0FA002003F09E
:101FD000E7FA002003F0E4FA002003F0E1FAEF2032
:101FE00003F0DEFA112003F0E1FA11E0000C0140E9
:101FF000001401400018014000200140240200208C
:10200000204C43442049443A25780D0A0000000042
:10201000782003F0C5FF292003F0C8FA03F0B3B815
:1020200050457CD1112003F0C1FA142003F0B8FF11
:10203000D02003F0BBFA072003F0B2FA422003F0ED
:10204000AFFA1D2003F0ACFAD12003F0AFFA002064
:1020500003F0A6FA1A2003F0A3FA092003F0A0FA6D
:10206000D22003F0A3FA012003F09AFA222003F011
:1020700097FAC02003F09AFA102003F091FA3B205F
:1020800003F08EFA002003F08BFA022003F088FAA6
:10209000112003F085FAC52003F088FA032003F02D
:1020A0007FFAC82003F082FA002003F079FA252095
:1020B00003F076FA212003F073FA052003F070FA9A
:1020C000002003F06DFA0A2003F06AFA652003F09D
:1020D00067FA252003F064FA772003F061FA5020B4
:1020E00003F05EFA0F2003F05BFA002003F058FAC9
:1020F000F82003F05BFA012003F052FAFE2003F00F
:1021000055FA002003F04CFA022003F049FA20208F
:1021100003F04CFA362003F049FA082000E02CE0E6
:1021200003F03EFA3A2003F041FA552003F038FA62
:102130002B2003F03BFA002003F032FA002003F0DA
:102140002FFA012003F02CFA3F2003F029FA2A206D
:1021500003F02CFA002003F023FA002003F020FA09
:10216000012003F01DFADF2003F01AFA782003F0B3
:1021700017FF292003F01AFA50E758457ED1ED20C9
:1021800003F014FA012003F00BFAFE2003F008FA22
:10219000EE2003F00BFADE2003F002FA212003F018
:1021A000FFF9F12003F002FA012003F0F9F9DF2032
:1021B00003F0FCF9102003F0F3F9C42003F0F6F962
:1021C0008F2003F0EDF9C62003F0F0F9002003F0B2
:1021D000E7F9E22003F0E4F9E22003F0E1F9E2207C
:1021E00003F0DEF9BF2003F0E1F9AA2003F0D8F9EB
:1021F000B02003F0DBF90D2003F0D2F9002003F04A
:10220000CFF90D2003F0CCF9002003F0C9F911201B
:1022100003F0C6F9002003F0C3F9192003F0C0F958
:10222000002003F0BDF9212003F0BAF9002003F0EB
:10223000B7F92D2003F0B4F9002003F0B1F93D20E7
:1022400003F0AEF9002003F0ABF95D2003F0A8F92C
:10225000002003F0A5F95D2003F0A2F9002003F0AF
:102260009FF9B12003F0A2F9802003F099F9002032
:1022700003F096F98B2003F093F900E0FDE30020D2
:1022800003F08EF9962003F08BF9002003F088F913
:10229000B22003F08BF9002003F082F9002003F054
:1022A0007FF9022003F07CF9002003F079F9032084
:1022B00003F076F9002003F073F9B32003F076F908
:1022C000002003F06DF9002003F06AF9002003F00C
:1022D00067F9002003F064F9002003F061F90020A1
:1022E00003F05EF9002003F05BF9002003F058F9D9
:1022F000002003F055F9002003F052F9002003F00C
:102300004FF9002003F04CF9002003F049F90020B8
:1023100003F046F9002003F043F9002003F040F9F0
:10232000002003F03DF9002003F03AF9002003F00B
:1023300037F9002003F034F9002003F031F90020D0
:1023400003F02EF9002003F02BF9002003F028F908
:10235000B42003F02BF98B2003F022F9002003F0C6
:102360001FF9962003F01CF9002003F019F9A120B1
:1023700003F016F9002003F013F9B52003F016F965
:10238000022003F00DF9002003F00AF9032003F006
:1023900007F9002003F004F9042003F001F90020FC
:1023A00003F0FEF8B62003F001F9002003F0F8F87E
:1023B000002003F0F5F8B72003F0F8F8002003F050
:1023C000EFF8002003F0ECF83F2003F0E9F80020DC
:1023D00003F0E6F85E2003F0E3F8002003F0E0F8F5
:1023E000642003F0DDF8002003F0DAF88C2003F01D
:1023F000D7F8002003F0D4F8AC2003F0D1F8002087
:1024000003F0CEF8DC2003F0CBF8002003F0C8F88E
:10241000702003F0C5F8002003F0C2F8902003F00C
:10242000BFF8002003F0BCF8EB2003F0B9F800205F
:1024300003F0B6F8DC2003F0B3F8002003F0B0F8A6
:10244000B82003F0B3F8002003F0AAF8002003F04E
:10245000A7F8002003F0A4F8002003F0A1F8002062
:1024600003F09EF8002003F09BF8002003F098F89A
:10247000002003F095F8BA2003F098F8242003F028
:102480008FF8002003F08CF8002003F089F800207A
:1024900003F086F8C12003F089F8202003F080F8CB
:1024A000002003F07DF8542003F07AF8002003F0B8
:1024B00077F8FF2003F074F8002003F071F8C220D1
:1024C00003F074F80A2003F06BF8002003F068F8BA
:1024D000042003F065F8002003F062F8C32003F045
:1024E00065F83C2003F05CF8002003F059F83A202E
:1024F00003F056F8002003F053F8392003F050F8A9
:10250000002003F04DF8372003F04AF8002003F0D4
:1025100047F83C2003F044F8002003F041F836204F
:1025200003F03EF8002003F03BF8322003F038F8C7
:10253000002003F035F82F2003F032F8002003F0DC
:102540002FF82C2003F02CF8002003F029F8292084
:1025500003F026F8002003F023F8262003F020F8EB
:10256000002003F01DF8242003F01AF8002003F0E7
:1025700017F8242003F014F8002003F011F82320AA
:1025800003F00EF8002003F00BF83C2003F008F8ED
:10259000002003F005F8362003F002F8002002F0D6
:1025A000FFFF322002F0FCFF002002F0F9FF2F2095
:1025B00002F0F6FF002002F0F3FF2C2002F0F0FF03
:1025C000002002F0EDFF292002F0EAFF002002F0D7
:1025D000E7FF262002F0E4FF002002F0E1FF2420C4
:1025E00002F0DEFF002002F0DBFF242002F0D8FF23
:1025F000002002F0D5FF232002F0D2FF002002F0DD
:10260000CFFFC42002F0D2FF622002F0C9FF0020F9
:1026100002F0C6FF052002F0C3FF002002F0C0FF59
:10262000842002F0BDFF002002F0BAFFF02002F08B
:10263000B7FF002002F0B4FF182002F0B1FF002025
:1026400002F0AEFFA42002F0ABFF002002F0A8FFD2
:10265000182002F0A5FF002002F0A2FF502002F097
:102660009FFF002002F09CFF0C2002F099FF002049
:1026700002F096FF172002F093FF002002F090FF77
:10268000952002F08DFF002002F08AFFF32002F077
:1026900087FF002002F084FFE62002F081FF002087
:1026A00002F07EFFC52002F081FF322002F078FFA9
:1026B000002002F075FF442002F072FF002002F0BB
:1026C0006FFF652002F06CFF002002F069FF7620AA
:1026D00002F066FF002002F063FF882002F060FF36
:1026E000002002F05DFFC62002F060FF202002F013
:1026F00057FF002002F054FF172002F051FF002086
:1027000002F04EFF012002F04BFF002002F048FFD4
:10271000C72002F04BFF002002F042FF002002F031
:102720003FFF002002F03CFF002002F039FFC820EC
:1027300002F03CFF002002F033FF002002F030FFE7
:10274000002002F02DFF002002F02AFFC92002F035
:102750002DFF002002F024FF002002F021FF0020C6
:1027600002F01EFF002002F01BFF002002F018FF05
:10277000002002F015FF002002F012FF002002F0FE
:102780000FFF002002F00CFF002002F009FF0020E4
:1027900002F006FF002002F003FF002002F000FF1D
:1027A000002002F0FDFE002002F0FAFE002002F000
:1027B000F7FEE02002F0FAFE162002F0F1FE002003
:1027C00002F0EEFE1C2002F0EBFE002002F0E8FE1C
:1027D000212002F0E5FE002002F0E2FE362002F0A9
:1027E000DFFE002002F0DCFE462002F0D9FE0020D1
:1027F00002F0D6FE522002F0D3FE002002F0D0FEFE
:10280000642002F0CDFE002002F0CAFE7A2002F021
:10281000C7FE002002F0C4FE8B2002F0C1FE0020A3
:1028200002F0BEFE992002F0BBFE002002F0B8FECE
:10283000A82002F0B5FE002002F0B2FEB92002F09E
:10284000AFFE002002F0ACFEC42002F0A9FE002082
:1028500002F0A6FECA2002F0A3FE002002F0A0FEB5
:10286000D22002F09DFE002002F09AFED92002F054
:1028700097FE002002F094FEE02002F091FE00207E
:1028800002F08EFEF32002F08BFE002002F088FEA4
:10289000E12002F08BFE162002F082FE002002F002
:1028A0007FFE1C2002F07CFE002002F079FE222038
:1028B00002F076FE002002F073FE362002F070FE79
:1028C000002002F06DFE452002F06AFE002002F0BA
:1028D00067FE522002F064FE002002F061FE6420D8
:1028E00002F05EFE002002F05BFE7A2002F058FE4D
:1028F000002002F055FE8B2002F052FE002002F074
:102900004FFE992002F04CFE002002F049FEA82064
:1029100002F046FE002002F043FEB92002F040FE25
:10292000002002F03DFEC42002F03AFE002002F03A
:1029300037FECA2002F034FE002002F031FED22021
:1029400002F02EFE002002F02BFED82002F028FE1E
:10295000002002F025FEE02002F022FE002002F01E
:102960001FFEF32002F01CFE002002F019FEE22000
:1029700002F01CFE052002F013FE002002F010FE03
:102980000B2002F00DFE002002F00AFE1B2002F0D8
:1029900007FE002002F004FE342002F001FE0020B9
:1029A00002F0FEFD442002F0FBFD002002F0F8FDE5
:1029B0004F2002F0F5FD002002F0F2FD612002F050
:1029C000EFFD002002F0ECFD792002F0E9FD00208F
:1029D00002F0E6FD882002F0E3FD002002F0E0FDB9
:1029E000972002F0DDFD002002F0DAFDA62002F0C3
:1029F000D7FD002002F0D4FDB72002F0D1FD002069
:102A000002F0CEFDC22002F0CBFD002002F0C8FD96
:102A1000C72002F0C5FD002002F0C2FDD12002F067
:102A2000BFFD002002F0BCFDD62002F0B9FD002061
:102A300002F0B6FDDD2002F0B3FD002002F0B0FD93
:102A4000F32002F0ADFD002002F0AAFDE32002F029
:102A5000ADFD052002F0A4FD002002F0A1FD0A203A
:102A600002F09EFD002002F09BFD1C2002F098FD6C
:102A7000002002F095FD332000E0FDE202F090FD21
:102A8000002002F08DFD442002F08AFD002002F0BB
:102A900087FD502002F084FD002002F081FD6220BD
:102AA00002F07EFD002002F07BFD782002F078FD30
:102AB000002002F075FD882002F072FD002002F077
:102AC0006FFD972002F06CFD002002F069FDA6204A
:102AD00002F066FD002002F063FDB72002F060FD09
:102AE000002002F05DFDC22002F05AFD002002F03D
:102AF00057FDC72002F054FD002002F051FDD12007
:102B000002F04EFD002002F04BFDD52002F048FD02
:102B1000002002F045FDDD2002F042FD002002F021
:102B20003FFDF32002F03CFD002002F039FDE420DF
:102B300002F03CFD012002F033FD002002F030FDE8
:102B4000012002F02DFD002002F02AFD022002F0FB
:102B500027FD002002F024FD2A2002F021FD0020A4
:102B600002F01EFD3C2002F01BFD002002F018FDCB
:102B70004B2002F015FD002002F012FD5D2002F056
:102B80000FFD002002F00CFD742002F009FD002072
:102B900002F006FD842002F003FD002002F000FD9B
:102BA000932002F0FDFC002002F0FAFCA22002F0CB
:102BB000F7FC002002F0F4FCB32002F0F1FC00204E
:102BC00002F0EEFCBE2002F0EBFC002002F0E8FC7C
:102BD000C42002F0E5FC002002F0E2FCCD2002F06F
:102BE000DFFC002002F0DCFCD32002F0D9FC002046
:102BF00002F0D6FCDD2002F0D3FC002002F0D0FC75
:102C0000F32002F0CDFC002002F0CAFCE52002F027
:102C1000CDFC002002F0C4FC002002F0C1FC00202A
:102C200002F0BEFC002002F0BBFC022002F0B8FC67
:102C3000002002F0B5FC292002F0B2FC002002F0D6
:102C4000AFFC3C2002F0ACFC002002F0A9FC4B20C1
:102C500002F0A6FC002002F0A3FC5D2002F0A0FC24
:102C6000002002F09DFC742002F09AFC002002F08B
:102C700097FC842002F094FC002002F091FC932049
:102C800002F08EFC002002F08BFCA22002F088FCF7
:102C9000002002F085FCB32002F082FC002002F04C
:102CA0007FFCBE2002F07CFC002002F079FCC420F6
:102CB00002F076FC002002F073FCCD2002F070FCE4
:102CC000002002F06DFCD32002F06AFC002002F02C
:102CD00067FCDC2002F064FC002002F061FCF320C1
:102CE00002F05EFC002002F05BFCE62002F05EFCDD
:102CF000112002F055FC002002F052FC342002F0BA
:102D00004FFC002002F04CFC562002F049FC002051
:102D100002F046FC762002F043FC002002F040FC6A
:102D2000772002F03DFC002002F03AFC662002F021
:102D300037FC002002F034FC882002F031FC002037
:102D400002F02EFC992002F02BFC002002F028FC5F
:102D5000BB2002F025FC002002F022FC992002F0AA
:102D60001FFC002002F01CFC662002F019FC002071
:102D700002F016FC552002F013FC002002F010FCBB
:102D8000552002F00DFC002002F00AFC452002F064
:102D900007FC002002F004FC432002F001FC0020AC
:102DA00002F0FEFB442002F0FBFB002002F0F8FBE7
:102DB000E72002F0FBFB322002F0F2FB002002F0E1
:102DC000EFFB552002F0ECFB002002F0E9FB76203F
:102DD00002F0E6FB002002F0E3FB662002F0E0FBDD
:102DE000002002F0DDFB672002F0DAFB002002F099
:102DF000D7FB672002F0D4FB002002F0D1FB872034
:102E000002F0CEFB002002F0CBFB992002F0C8FBC1
:102E1000002002F0C5FBBB2002F0C2FB002002F044
:102E2000BFFB992002F0BCFB002002F0B9FB772029
:102E300002F0B6FB002002F0B3FB442002F0B0FB2E
:102E4000002002F0ADFB562002F0AAFB002002F0A9
:102E5000A7FB232002F0A4FB002002F0A1FB3320FB
:102E600002F09EFB002002F09BFB452002F098FB45
:102E7000002002F095FBE82002F098FB002002F011
:102E80008FFB002002F08CFB992002F089FB0020D0
:102E900002F086FB872002F083FB002002F080FB1B
:102EA000882002F07DFB002002F07AFB772002F000
:102EB00077FB002002F074FB662002F071FB00201B
:102EC00002F06EFB882002F06BFB002002F068FB32
:102ED000AA2002F065FB002002F062FBBB2002F09A
:102EE0005FFB002002F05CFB992002F059FB002000
:102EF00002F056FB662002F053FB002002F050FB6C
:102F0000552002F04DFB002002F04AFB552002F054
:102F100047FB002002F044FB442002F041FB00206C
:102F200002F03EFB442002F03BFB002002F038FBA5
:102F3000552002F035FB002002F032FBE92002F0C0
:102F400035FBAA2002F02CFB002002F029FB002018
:102F500002F026FB002002F023FB002002F026FBFB
:102F6000AA2002F01DFBCF2002F020FB002002F07F
:102F700017FB002002F014FB002002F011FB0020E0
:102F800002F00EFB002002F00BFB002002F008FB19
:102F9000002002F005FB002002F002FB002002F0FE
:102FA000FFFA002002F0FCFA002002F0F9FA0020FB
:102FB00002F0F6FA002002F0F3FA002002F0F0FA34
:102FC000002002F0EDFA002002F0EAFA002002F000
:102FD000E7FAF02002F0EAFA002002F0E1FA5020CD
:102FE00002F0DEFA002002F0DBFA002002F0D8FA4C
:102FF000002002F0D5FAF32002F0D8FA002002F007
:10300000CFFAF92002F0D2FA062002F0C9FA102015
:1030100002F0C6FA292002F0C3FA002002F0C0FA3A
:103020003A2002F0C3FA552002F0BAFA112002F059
:10303000BDFA642002F0B4FF292002F0B7FA35206F
:1030400002F0B4FA002002F0ABFA512002F0AEFA1E
:10305000FF2002F0A5FA532002F0A8FA2C2002F07B
:103060009FFA552002F0A2FA822002F099FA2C2051
:1030700002F09CFA02F087B8B0427DD14FF4704361
:103080005521184602F0A2FA4FF20104AA21204667
:1030900002F09CFA651C5221284602F097FAA61C01
:1030A0000821304602F092FA4FF204090121484605
:1030B00002F08CFA0D214FF4304002F087FA0D2116
:1030C0004BF2010002F082FA0D214BF2020002F0F5
:1030D0007DFA4FF4364A3421504602F077FA342113
:1030E0004BF2016002F072FA34214BF2026002F0FE
:1030F0006DFA4FF4314B0D21584602F067FA0D215D
:103100004BF2011002F062FA0D214BF2021002F0B4
:103110005DFA34214FF4374002F058FA34214BF273
:10312000017002F053FA34214BF2027002F04EFAB1
:1031300000214FF4324002F049FA00214BF2012005
:1031400002F044FA00214BF2022002F03FFA24215F
:103150004FF4384002F03AFA24214BF6010002F015
:1031600035FA24214BF6020002F030FA01214FF427
:103170003F4002F02BFA00E0FDE30F214FF4334013
:1031800002F024FA0F214BF2013002F01FFA0F2156
:103190004BF2023002F01AFA34214FF4394002F0B7
:1031A00015FA34214BF6011002F010FA34214BF6D7
:1031B000021002F00BFA08214FF4354002F006FA33
:1031C00008214BF2015002F001FA08214BF20250A3
:1031D00002F0FCF903214FF4424002F0F7F92421F8
:1031E0004FF43A4002F0F2F924214BF6012002F0AC
:1031F000EDF924214BF6022002F0E8F900214FF40A
:103200003C4002F0E3F978214BF6014002F0DEF990
:1032100000214BF6024002F0D9F900214FF43D4065
:1032200002F0D4F978214BF6015002F0CFF90021D9
:103230004BF6025002F0CAF900214FF43E4002F072
:10324000C5F964214BF6016002F0C0F900214FF48A
:10325000514002F0BBF933214DF2011002F0B6F9F2
:1032600000214DF2021002F0B1F934214DF20310A9
:1032700002F0ACF900214DF2041002F0A7F93A2156
:103280004DF2051002F0A2F900214DF2061002F0F5
:103290009DF94A214DF2071002F098F900214DF2F4
:1032A000081002F093F95C214DF2091002F08EF93A
:1032B00000214DF20A1002F089F981214DF20B1024
:1032C00002F084F900214DF20C1002F07FF9A621E2
:1032D0004DF20D1002F07AF900214DF20E1002F0BD
:1032E00075F9E5214DF20F1002F070F901214DF250
:1032F000101002F06BF913214DF2111002F066F973
:1033000001214DF2121002F061F954214DF2131017
:1033100002F05CF901214DF2141002F057F98221FC
:103320004DF2151002F052F901214DF2161002F083
:103330004DF9CA214DF2171002F048F902214DF261
:10334000181002F043F900214DF2191002F03EF975
:1033500002214DF21A1002F039F901214DF21B1031
:1033600002F034F902214DF21C1002F02FF9342141
:103370004DF21D1002F02AF902214DF21E1002F04A
:1033800025F967214DF21F1002F020F902214DF2BC
:10339000201002F01BF984214DF2211002F016F9E1
:1033A00002214DF2221002F011F9A4214DF2231056
:1033B00002F00CF902214DF2241002F007F9B721B6
:1033C0004DF2251002F002F902214DF2261002F012
:1033D000FDF8CF214DF2271002F0F8F802214DF24E
:1033E000281002F0F3F8DE214DF2291002F0EEF879
:1033F00002214DF22A1002F0E9F8F2214DF22B10D1
:1034000002F0E4F802214DF22C1002F0DFF8FE2168
:103410004DF22D1002F0DAF803214DF22E1002F0D9
:10342000D5F810214DF22F1002F0D0F803214DF203
:10343000301002F0CBF833214DF2311002F0C6F813
:1034400003214DF2321002F0C1F86D214DF233101C
:1034500002F0BCF800214FF4524002F0B7F83321DB
:103460004DF2012002F0B2F800214DF2022002F0EC
:10347000ADF834214DF2032002F0A8F800214DF2FE
:10348000042002F0A3F83A214DF2052002F09EF844
:1034900000214DF2062002F099F84A214DF2072052
:1034A00002F094F800214DF2082002F08FF85C2120
:1034B0004DF2092002F08AF800214DF20A2002F0B4
:1034C00085F881214DF20B2002F080F800214DF2A9
:1034D0000C2002F07BF8A6214DF20D2002F076F8C8
:1034E00000214DF20E2002F071F8E5214DF20F207F
:1034F00002F06CF801214DF2102002F067F8132160
:103500004DF2112002F062F801214DF2122002F07A
:103510005DF854214DF2132002F058F801214DF2CC
:10352000142002F053F882214DF2152002F04EF8DB
:1035300001214DF2162002F049F8CA214DF2172060
:1035400002F044F802214DF2182002F03FF8002169
:103550004DF2192002F03AF802214DF21A2002F041
:1035600035F801214DF21B2002F030F802214DF216
:103570001C2002F02BF834214DF21D2002F026F819
:1035800002214DF21E2002F021F867214DF21F208A
:1035900002F01CF802214DF2202002F017F88421DD
:1035A0004DF2212002F012F802214DF2222002F009
:1035B0000DF8A4214DF2232002F008F802214DF26B
:1035C000242002F003F8B7214DF2252001F0FEFF80
:1035D00002214DF2262001F0F9FFCF214DF22720E4
:1035E00001F0F4FF02214DF2282001F0EFFFDE216F
:1035F0004DF2292001F0EAFF02214DF22A2001F0CC
:10360000E5FFF2214DF22B2001F0E0FF02214DF207
:103610002C2001F0DBFFFE214DF22D2001F0D6FF22
:1036200003214DF22E2001F0D1FF10214DF22F2069
:1036300001F0CCFF03214DF2302001F0C7FF332110
:103640004DF2312001F0C2FF03214DF2322001F092
:10365000BDFF6D214DF2332001F0B8FF00214FF482
:10366000534001F0B3FF33214DF2013001F0AEFFC2
:1036700000214DF2023001F0A9FF34214DF2033058
:1036800001F0A4FF00214DF2043001F09FFF3A2128
:103690004DF2053001F09AFF00214DF2063001F0A5
:1036A00095FF4A214DF2073001F090FF00214DF2C5
:1036B000083001F08BFF5C214DF2093001F086FFEC
:1036C00000214DF20A3001F081FF81214DF20B30D3
:1036D00001F07CFF00214DF20C3001F077FFA621B4
:1036E0004DF20D3001F072FF00214DF20E3001F06D
:1036F0006DFFE5214DF20F3001F068FF01214DF221
:10370000103001F063FF13214DF2113001F05EFF24
:1037100001214DF2123001F059FF54214DF21330C6
:1037200001F054FF01214DF2143001F04FFF8221CE
:103730004DF2153001F04AFF01214DF2163001F033
:1037400045FFCA214DF2173001F040FF02214DF232
:10375000183001F03BFF00214DF2193001F036FF27
:1037600002214DF21A3001F031FF01214DF21B30E0
:1037700001F02CFF02214DF21C3001F027FF342113
:103780004DF21D3001F022FF02214DF21E3001F0FA
:103790001DFF67214DF21F3001F018FF02214DF28D
:1037A000203001F013FF84214DF2213001F00EFF93
:1037B00002214DF2223001F009FFA4214DF2233005
:1037C00001F004FF02214DF2243001F0FFFEB72189
:1037D0004DF2253001F0FAFE02214DF2263001F0C3
:1037E000F5FECF214DF2273001F0F0FE02214DF21F
:1037F000283001F0EBFEDE214DF2293001F0E6FE2B
:1038000002214DF22A3001F0E1FEF2214DF22B307F
:1038100001F0DCFE02214DF22C3001F0D7FEFE213A
:103820004DF22D3001F0D2FE03214DF22E3001F089
:10383000CDFE10214DF22F3001F0C8FE03214DF2D4
:10384000303001F0C3FE33214DF2313001F0BEFEC5
:1038500003214DF2323001F0B9FE6D214DF23330CB
:1038600001F0B4FE00214FF4544001F0AFFE3321CB
:103870004DF2014001F0AAFE00214DF2024001F09C
:10388000A5FE34214DF2034001F0A0FE00214DF2CF
:10389000044001F09BFE3A214DF2054001F096FEF6
:1038A00000214DF2064001F091FE4A214DF2074001
:1038B00001F08CFE00214DF2084001F087FE5C21F2
:1038C0004DF2094001F082FE00214DF20A4001F064
:1038D0007DFE81214DF20B4001F078FE00214DF27A
:1038E0000C4001F073FEA6214DF20D4001F06EFE7A
:1038F00000214DF20E4001F069FEE5214DF20F402E
:1039000001F064FE01214DF2104001F05FFE132131
:103910004DF2114001F05AFE01214DF2124001F02A
:1039200055FE54214DF2134001F050FE01214DF29D
:10393000144001F04BFE82214DF2154001F046FE8D
:1039400001214DF2164001F041FECA214DF217400F
:1039500001F03CFE02214DF2184001F037FE00213B
:103960004DF2194001F032FE02214DF21A4001F0F1
:103970002DFE012100E001E34DF21B4001F026FE87
:1039800002214DF21C4001F021FE34214DF21D4078
:1039900001F01CFE02214DF21E4001F017FE6721CE
:1039A0004DF21F4001F012FE02214DF2204001F0C5
:1039B0000DFE84214DF2214001F008FE02214DF25E
:1039C000224001F003FEA4214DF2234001F0FEFD50
:1039D00002214DF2244001F0F9FDB7214DF22540BE
:1039E00001F0F4FD02214DF2264001F0EFFDCF2160
:1039F0004DF2274001F0EAFD02214DF2284001F08E
:103A0000E5FDDE214DF2294001F0E0FD02214DF2FD
:103A10002A4001F0DBFDF2214DF22B4001F0D6FDF2
:103A200002214DF22C4001F0D1FDFE214DF22D403E
:103A300001F0CCFD03214DF22E4001F0C7FD102115
:103A40004DF22F4001F0C2FD03214DF2304001F054
:103A5000BDFD33214DF2314001F0B8FD03214DF29F
:103A6000324001F0B3FD6D214DF2334001F0AEFD67
:103A700000214FF4554001F0A9FD33214DF20150D2
:103A800001F0A4FD00214DF2025001F09FFD342110
:103A90004DF2035001F09AFD00214DF2045001F067
:103AA00095FD3A214DF2055001F090FD00214DF2B7
:103AB000065001F08BFD4A214DF2075001F086FDC2
:103AC00000214DF2085001F081FD5C214DF20950BA
:103AD00001F07CFD00214DF20A5001F077FD8121BB
:103AE0004DF20B5001F072FD00214DF20C5001F02F
:103AF0006DFDA6214DF20D5001F068FD00214DF243
:103B00000E5001F063FDE5214DF20F5001F05EFD16
:103B100001214DF2105001F059FD13214DF21150C9
:103B200001F054FD01214DF2125001F04FFD5421DE
:103B30004DF2135001F04AFD01214DF2145001F0F5
:103B400045FD82214DF2155001F040FD01214DF25D
:103B5000165001F03BFDCA214DF2175001F036FD21
:103B600002214DF2185001F031FD00214DF21950A3
:103B700001F02CFD02214DF21A5001F027FD012128
:103B80004DF21B5001F022FD02214DF21C5001F0BC
:103B90001DFD34214DF21D5001F018FD02214DF2A2
:103BA0001E5001F013FD67214DF21F5001F00EFD74
:103BB00002214DF2205001F009FD84214DF22150E7
:103BC00001F004FD02214DF2225001F0FFFCA4217E
:103BD0004DF2235001F0FAFC02214DF2245001F085
:103BE000F5FCB7214DF2255001F0F0FC02214DF219
:103BF000265001F0EBFCCF214DF2275001F0E6FCFE
:103C000002214DF2285001F0E1FCDE214DF2295055
:103C100001F0DCFC02214DF22A5001F0D7FCF22128
:103C20004DF22B5001F0D2FC02214DF22C5001F04C
:103C3000CDFCFE214DF22D5001F0C8FC03214DF2C8
:103C40002E5001F0C3FC10214DF22F5001F0BEFCAC
:103C500003214DF2305001F0B9FC33214DF23150C7
:103C600001F0B4FC03214DF2325001F0AFFC6D21A4
:103C70004DF2335001F0AAFC00214FF4564001F000
:103C8000A5FC33214DF2016001F0A0FC00214DF2B2
:103C9000026001F09BFC34214DF2036001F096FCC0
:103CA00000214DF2046001F091FC3A214DF20560D3
:103CB00001F08CFC00214DF2066001F087FC4A21E6
:103CC0004DF2076001F082FC00214DF2086001F026
:103CD0007DFC5C214DF2096001F078FC00214DF281
:103CE0000A6001F073FC81214DF20B6001F06EFC63
:103CF00000214DF20C6001F069FCA6214DF20D602F
:103D000001F064FC00214DF20E6001F05FFCE52142
:103D10004DF20F6001F05AFC01214DF2106001F0EC
:103D200055FC13214DF2116001F050FC01214DF2C0
:103D3000126001F04BFC54214DF2136001F046FC7F
:103D400001214DF2146001F041FC82214DF2156019
:103D500001F03CFC01214DF2166001F037FCCA2154
:103D60004DF2176001F032FC02214DF2186001F0B3
:103D70002DFC00214DF2196001F028FC02214DF2CA
:103D80001A6001F023FC01214DF21B6001F01EFCC2
:103D900002214DF21C6001F019FC34214DF21D602E
:103DA00001F014FC02214DF21E6001F00FFC6721AE
:103DB0004DF21F6001F00AFC02214DF2206001F07B
:103DC00005FC84214DF2216001F000FC02214DF23E
:103DD000226001F0FBFBA4214DF2236001F0F6FB11
:103DE00002214DF2246001F0F1FBB7214DF2256074
:103DF00001F0ECFB02214DF2266001F0E7FBCF2140
:103E00004DF2276001F0E2FB02214DF2286001F043
:103E1000DDFBDE214DF2296001F0D8FB02214DF2DD
:103E20002A6001F0D3FBF2214DF22B6001F0CEFBB2
:103E300002214DF22C6001F0C9FBFE214DF22D60F4
:103E400001F0C4FB03214DF22E6001F0BFFB1021F5
:103E50004DF22F6001F0BAFB03214DF2306001F00A
:103E6000B5FB33214DF2316001F0B0FB03214DF27F
:103E7000326001F0ABFB6D214DF2336001F0A6FB27
:103E80005521184601F0A2FBAA21204601F09EFB15
:103E90005221284601F09AFB0821304601F096FB9A
:103EA0000021484601F092FBCC21584601F08EFBE0
:103EB00000214BF2011001F089FB0521504601F071
:103EC00085FB70214FF4374001F080FB70214BF2ED
:103ED000017001F07BFB01214FF4384001F076FBCB
:103EE00003214BF6010001F071FB03214BF60200A8
:103EF00001F06CFB03214BF6030001F067FB02218C
:103F00004FF43C4001F062FB00214BF6014001F010
:103F10005DFB00214BF6024001F058FBD0214FF42D
:103F2000494001F053FB02214CF6011001F04EFB19
:103F300050214CF6021001F049FB50214CF60310C1
:103F400001F044FB50214CF6041001F03FFB00212E
:103F50004FF4545001F03AFB55214FF4685001F0F2
:103F600035FB4FF4885001F021FB782002F032F845
:103F70004FF4245001F01AFB01F005B9A0F51341EC
:103F80004FF4E06640F2022940F23F1A4FF4274B0B
:103F9000253921D0F41DC91E7ED04FF41C5B083199
:103FA0007BD011397AD0A0F5A841083977D0A0F597
:103FB000A851053974D0B1F5204172D0B1F58051C6
:103FC00070D0A0F58A4131396DD0091F6CD0A0F5B1
:103FD000C851633969D0CFE747F6F001E52001F019
:103FE000F5FA2946012001F0F1FA3146022001F0EC
:103FF000EDFA41F23001032001F0E8FA002104203B
:1040000001F0E4FA4946082001F0E0FA0021092015
:1040100001F0DCFA00210A2001F0D8FA00210C207E
:1040200001F0D4FA00210D2001F0D0FA00210F2078
:1040300001F0CCFA0021102001F0C8FA072111206C
:1040400001F0C4FA0021122001F0C0FA002113206F
:1040500001F0BCFA0021072001F0B8FA41F29061AA
:10406000102001F0B3FA40F22721112001F0AEFA3E
:104070009D21122001F0AAFA4FF4C851132001F03B
:10408000A5FA2521292001F0A1FA0D212B2001F00C
:104090009DFA0721302009E07AE066E10CE2E6E2D1
:1040A00083E3FDE3FDE3FDE3FDE3FDE301F08EFAD1
:1040B00040F20331312001F089FA0321322001F06E
:1040C00085FA40F20621352001F080FA08213620D9
:1040D00001F07CFA40F20641372001F077FA4FF404
:1040E0004171382001F072FA0721392001F06EFA8F
:1040F00040F202613C2001F069FA08213D2001F004
:1041000065FA0021502001F061FAEF21512001F001
:104110005DFA0021522001F059FA5146532001F076
:1041200055FA5946602001F051FA0121612001F051
:104130004DFA00216A2001F049FA0021802001F0A7
:1041400045FA0021812001F041FA0021822001F08E
:104150003DFA0021832001F039FA0021842001F08A
:1041600035FA0021852001F031FA1021902001F06C
:104170002DFA4FF4C061922001F028FA40F2331179
:10418000072001F023FA2221002001F01FFAF3E6B4
:1041900041F28F01EC2001F019FA41F23421EF20B5
:1041A00001F014FA2946012001F010FA31460220EC
:1041B00001F00CFA41F23001032001F007FA00216E
:1041C000042001F003FA4946082001F0FFF900211C
:1041D000092001F0FBF900210A2001F0F7F9012183
:1041E0000C2001F0F3F900210D2001F0EFF900217E
:1041F0000F2001F0EBF90021102001F0E7F9072171
:10420000112001F0E3F90021122001F0DFF9002173
:10421000132001F0DBF90121072001F0D7F932204A
:1042200001F0BEFE41F29041102001F0CFF940F2C2
:104230002721112001F0CAF9322001F0B1FE8A21B4
:10424000122001F0C3F9322001F0AAFE4FF4D05140
:10425000132001F0BBF90621292001F0B7F90D2147
:104260002B2001F0B3F9322001F09AFE002120202A
:1042700001F0ACF90021212001F0A8F9322001F071
:104280008FFE0021302001F0A1F940F204613120BD
:1042900001F09CF940F20531322001F097F900213C
:1042A000352001F093F940F60941362001F08EF9EE
:1042B0004FF40171372001F089F940F201313820C3
:1042C00001F084F92146392001F080F900213C20D9
:1042D00001F07CF940F60A213D2001F077F9322007
:1042E00001F05EFE0021502001F070F9EF21512015
:1042F00001F06CF90021522001F068F95146532079
:1043000001F064F95946602001F060F90121612053
:1043100001F05CF900216A2001F058F900218020A9
:1043200001F054F90021812001F050F90021822090
:1043300001F04CF90021832001F048F9002184208C
:1043400001F044F90021852001F040F9102190206E
:1043500001F03CF94FF4C061922001F037F940F2CE
:104360003311072001F032F906E60021084601F07A
:104370002DF92946012001F029F93146022001F0EA
:1043800025F941F23001032001F020F90021042039
:1043900001F01CF94946082001F018F90021092014
:1043A00001F014F900210A2001F010F901210C207C
:1043B00001F00CF900210D2001F008F900210F2077
:1043C00001F004F9322001F0EBFD40F20111072069
:1043D00001F0FCF8322001F0E3FD4FF4865110208B
:1043E00001F0F4F80721112001F0F0F84FF4887380
:1043F0001946122001F0EAF84FF43061132001F061
:10440000E5F80021292001F0E1F844F210012B2009
:1044100001F0DCF80021502001F0D8F8EF21512004
:1044200001F0D4F80021522001F0D0F85146532079
:1044300001F0CCF85946602001F0C8F80121612054
:1044400001F0C4F800216A2001F0C0F800218020AA
:1044500001F0BCF80021812001F0B8F80021822091
:1044600001F0B4F80021832001F0B0F8002184208D
:1044700001F0ACF80021852001F0A8F8102190206F
:1044800001F0A4F80021922001F0A0F8012193206E
:1044900001F09CF81946952001F098F8002197202A
:1044A00001F094F80021982001F090F840F2731187
:1044B000072001F08BF85FE541F21401E72001F0DD
:1044C00085F82946012001F081F84FF4007102209F
:1044D00001F07CF841F23801032001F077F84946F9
:1044E000082001F073F80021092001F06FF8002185
:1044F0000A2001F06BF800210C2001F067F8002180
:104500000D2001F063F800210F2001F05FF8002179
:10451000102001F05BF80721112001F057F800216D
:10452000122001F053F80021132001F04FF8C820A9
:1045300001F036FD41F29061102001F047F840F2A1
:104540002721112001F042F8322001F029FD0C2131
:10455000122001F03BF8322001F022FD4FF40061FF
:10456000132001F033F81121292001F02FF80B213D
:104570002B2001F02BF8322001F012FD0021202029
:1045800001F024F85146212001F020F800213020CC
:1045900001F01CF84FF483731946312001F016F82E
:1045A0000021322001F012F84FF40171352001F0A2
:1045B0000DF841F20A61362001F008F82146372053
:1045C00001F004F81946382001F000F8214639209E
:1045D00000F0FCFF40F202413C2000F0F7FF40F603
:1045E0000F413D2000F0F2FF0021502000F0EEFFCF
:1045F000EF21512000F0EAFF0021522000F0E6FFF9
:104600005146532000F0E2FF5946602000F0DEFFE3
:104610000121612000F0DAFF00216A2000F0D6FFBE
:104620000021802000F0D2FF0021812000F0CEFF89
:104630000021822000F0CAFF0021832000F0C6FF85
:104640000021842000F0C2FF0021852000F0BEFF81
:104650001021902000F0BAFF4FF4C061922000F0CA
:10466000B5FF40F23311072000F0B0FF84E4294683
:10467000012000F0ABFF3146022000F0A7FF41F21D
:104680003001032000F0A2FF0021042000F09EFF73
:1046900040F20721082000F099FF0021092000F0D6
:1046A00095FF00210A2000F091FF00210C2000F06E
:1046B0008DFF00210D2000F089FF00210F2000F068
:1046C00085FF142001F06CFC41F2B061102000F075
:1046D0007DFF0121112000F079FF0121172000F05A
:1046E00075FF4FF49C71122000F070FF4FF40061D1
:1046F000132000F06BFF0921292000F067FF09213A
:104700002A2000F063FF0021A42000F05FFF0021B9
:10471000502000F05BFFEF21512000F057FF0021F7
:10472000522000F053FF5146532000F04FFF5946EE
:10473000602000F04BFF0121612000F047FF0021C5
:104740006A2000F043FF0021802000F03FFF00219D
:10475000812000F03BFF0021822000F037FF002184
:10476000832000F033FF0021842000F02FFF002180
:10477000852000F02BFF1321902000F027FF00215F
:10478000922000F023FF0321932000F01FFF4FF43D
:104790008871952000F01AFF40F27311072000F095
:1047A00015FF322001F0FCFB15E40021072000F08A
:1047B0000DFF322001F0F4FB4FF48E71122000F057
:1047C00005FF0121A42000F001FF0F21082000F0C7
:1047D000FDFE08210A2000F0F9FE08210D2000F05E
:1047E000F5FE2146302000F0F1FE0721312000F0D7
:1047F000EDFE40F20361322000F0E8FE3146332046
:1048000000F0E4FE4946342000F0E0FE02213520AD
:1048100000F0DCFE41F60F71362000F0D7FE214695
:10482000372000F0D3FE0021382000F0CFFE002119
:10483000392000F0CBFE21463A2000F0C7FE0021CF
:104840003B2000F0C3FE07213C2000F0BFFE00210A
:104850003D2000F0BBFE322001F0A2FB0121072029
:1048600000F0B4FE0121172000F0B0FE322001F06C
:1048700097FB4FF4BD51102000F0A8FE40F2172125
:10488000112000F0A3FE4FF48F71122000F09EFE65
:104890004FF47061132000F099FE00212A2004E0FB
:1048A00093E08DE157E20BE3B5E300F08FFE0A21C0
:1048B000292000F08BFE4FF49F71122000F086FE3D
:1048C0000021502000F082FEEF21512000F07EFEFA
:1048D0000021522000F07AFE5146532000F076FE6F
:1048E0005946602000F072FE0121612000F06EFE4A
:1048F00000216A2000F06AFE0021802000F066FEA0
:104900000021812000F062FE0021822000F05EFE86
:104910000021832000F05AFE0021842000F056FE82
:104920000021852000F052FE1321902000F04EFE61
:104930004FF44071922000F049FE0521932000F0D1
:1049400045FE0021952000F041FE0021972000F057
:104950003DFE0021982000F039FE2946012000F09C
:1049600035FE3146022000F031FE41F238010320CD
:1049700000F02CFE0021042000F028FE00210C2075
:1049800000F024FE00210F2000F020FE0021202056
:1049900000F01CFE0021212000F018FE212107203C
:1049A00000F014FE142001F0FBFA6121072000F052
:1049B0000DFE142001F0F4FA40F27311072000F00C
:1049C00005FE142001F0ECFADDE30021084600F0BA
:1049D000FDFD0021084600F0F9FD0021084600F029
:1049E000F5FD0021084600F0F1FD0121A42000F0B2
:1049F000EDFD142001F0D4FA5946602000F0E6FDE8
:104A00004946082000F0E2FD4FF40571302000F027
:104A1000DDFD43F21571312000F0D8FD40F2046154
:104A2000322000F0D3FD40F61661332000F0CEFDB9
:104A300042F21121342000F0C9FD4FF4A851352075
:104A400000F0C4FD48F20751362000F0BFFD41F2EE
:104A50000741372000F0BAFD41F20341382000F051
:104A6000B5FD2021392000F0B1FD1A21902000F081
:104A7000ADFD0021102000F0A9FD0721112000F05C
:104A8000A5FD0021122000F0A1FD0021132000F05F
:104A90009DFD142001F084FA4FF4E661102000F02F
:104AA00095FD40F23711112000F090FD142001F027
:104AB00077FA4FF4DC71122000F088FD142001F029
:104AC0006FFA4FF47061132000F080FD80212A20DE
:104AD00000F07CFD4821292000F078FD142001F031
:104AE0005FFA2946012000F071FD3146022000F0F6
:104AF0006DFD41F23801032000F068FD49460820B1
:104B000000F064FD00210A2000F060FD00210C206F
:104B100000F05CFD00210D2000F058FD30210E203A
:104B200000F054FD0021502000F050FDEF215120F5
:104B300000F04CFD0021522000F048FD514653206A
:104B400000F044FD5946602000F040FD0121612045
:104B500000F03CFD00216A2000F038FD112190207A
:104B600000F034FD4FF4C061922000F02FFD40F2C0
:104B70000241932000F02AFD0221942000F026FD3E
:104B8000142001F00DFA0121072000F01FFD142070
:104B900001F006FA6121072000F018FD40F27311C0
:104BA000072000F013FD0021202000F00FFD002160
:104BB000212000F00BFD2221002000F007FDE2E2A1
:104BC0000021084600F002FD0021084600F0FEFC2E
:104BD000142001F0E5F90021084600F0F7FC00215F
:104BE000084600F0F3FC0021084600F0EFFC00212D
:104BF000084600F0EBFC0121A42000F0E7FC1420A3
:104C000001F0CEF95946602000F0E0FC40F60601C4
:104C1000082000F0DBFC40F203731946302000F05E
:104C2000D5FC0121312000F0D1FC0421322000F01C
:104C3000CDFC4FF48171332000F0C8FC4FF4407478
:104C40002146342000F0C2FC40F20311352000F070
:104C5000BDFC1F21362000F0B9FC1946372000F0BA
:104C6000B5FC0121382000F0B1FC0421392000F00E
:104C7000ADFC1521902000F0A9FC4FF482611020BA
:104C800000F0A4FC40F24721112000F09FFC4FF4FB
:104C9000DE71122000F09AFC4FF46061132000F0E6
:104CA00095FC782001F07CF92946012000F08EFC6B
:104CB0004FF40071022000F089FC41F23001032022
:104CC00000F084FC08210A2000F080FC00210C2068
:104CD00000F07CFC20210E2000F078FC00210F2049
:104CE00000F074FC0021202000F070FC0021212045
:104CF00000F06CFC3D212A2000F068FC142001F03B
:104D00004FF92D21292000F061FC0021502000F0F6
:104D10005DFC4DF2EF01512000F058FC00215220C3
:104D200000F054FC5146532000F050FC002161205B
:104D300000F04CFC00216A2000F048FC2146922043
:104D400000F044FC0521932000F040FC2946072098
:104D500000F03CFC17E20121002000F037FC0A20A3
:104D600001F01EF941F22861102000F02FFC0E2105
:104D7000122000F02BFC40F63921132000F026FC15
:104D80000A2001F00DF94021112000F01FFC5021F4
:104D9000152000F01BFC0A2001F002F91E21122050
:104DA00000F014FC0A2001F0FBF84FF4B151102080
:104DB00000F00CFC42F63921132000F007FC0A2019
:104DC00001F0EEF82946012000F000FC4FF440719C
:104DD000022000F0FBFB41F23801032000F0F6FB5B
:104DE0004946082000F0F2FB08210A2000F0EEFB03
:104DF0000021302000F0EAFB40F20241312000F0B7
:104E0000E5FB4FF48371322000F0E0FB40F20351E8
:104E1000332000F0DBFB4FF48271342000F0D6FB2E
:104E200040F20131352000F0D1FB2146362000F060
:104E3000CDFB40F20531372000F0C8FB4FF4027182
:104E4000382000F0C3FB40F60B71392000F0BEFBA8
:104E50000221412000F0BAFB5946602000F0B6FB69
:104E60000121612000F0B2FB4FF40471902000F0AA
:104E7000ADFB4FF48571922000F0A8FB0421932034
:104E800000F0A4FB2946A02000F0A0FB0121072090
:104E900000F09CFB2121072000F098FB2321072034
:104EA00000F094FB3321072000F090FB40F2331117
:104EB000072000F08BFB0021A02000F087FB62E1BF
:104EC0003021152000F082FB10219A2000F07EFB9B
:104ED0002021112000F07AFB43F22841102000F03D
:104EE00075FB0221122000F071FB41F23801132002
:104EF00000F06CFB282001F053F81221084600F066
:104F000065FB282001F04CF843F22041102000F00E
:104F10005DFB43F23801132000F058FB462001F0FE
:104F20003FF80021302000F051FB40F202413120D7
:104F300000F04CFB40F20731322000F047FB4FF409
:104F40004171332000F042FB0421342000F03EFB8D
:104F500040F20141352000F039FB2146362000F0B7
:104F600035FB40F20531372000F030FB4FF4C263CF
:104F70001946382000F02AFB1946392000F026FB9C
:104F80002946012000F022FB4FF44071022000F07E
:104F90001DFB41F23001032000F018FB40F6080130
:104FA000082000F013FB08210A2000F00FFB5946EF
:104FB000602000F00BFB0121612000F007FB4FF4A3
:104FC0009F71902000F002FB2946922000F0FEFA2B
:104FD0002946932000F0FAFA4FF44051A02000F047
:104FE000F5FA1021A32000F0F1FA0121072000F0CA
:104FF000EDFA2121072000F0E9FA2321072000F033
:10500000E5FA3321072000F0E1FA40F233110720DE
:1050100000F0DCFAB7E0E22000F0C8FA1D2000F052
:10502000BFFA022000F0BCFA042000F0B9FA6420B4
:1050300000F0D0FFE02000F0B9FA012000F0B0FA53
:105040000A2000F0ADFFE02000F0B0FA032000F0ED
:10505000A7FA0C2000F0A4FF012000F0A7FA0A2014
:1050600000F09EFFE62000F0A1FA2F2000F098FA51
:10507000FF2000F095FAFF2000F092FAB02000F037
:1050800095FA202000F08CFA002000F089FA032025
:1050900000F086FA40F21F3000F082FA012000F0A2
:1050A0007FFA40F2DF1000F07BFA002000F078FA7F
:1050B000B42000F07BFA042000F072FA40F21F40A6
:1050C00000F06EFA002000F06BFA2E2000F068FA73
:1050D000002000F065FA002000F062FA002000F0E5
:1050E0005FFA002000F05CFAB62000F05FFA0220C0
:1050F00000F056FA4FF4037000F052FA002000F06E
:105100004FFA172000F04CFA152000F049FA002061
:1051100000F046FA002000F043FAF02000F046FAD2
:10512000032000F03DFA292000F040FAD02000F0E2
:105130003DFA002000F034FABE2000F037FA0520D6
:1051400000F02EFAFE2000F02BFA012000F028FAE1
:10515000002000F025FA002000F022FA002000F0E4
:105160001FFAB82000F022FA032000F019FA0120FB
:1051700000F016FABA2000F019FA012000F010FA37
:10518000642000F023F80020FCF77AFC0448C0F803
:1051900080813846FCF73CFC1FB0BDE8F08F000072
:1051A0000080214208B5034800880090BDF8000047
:1051B00008BD00000008006C10B500F0F7F90520EC
:1051C00000F008FFBDE81040FFF7ECBF10B5024645
:1051D000BE2000F0EBF9052000F0E2F9104601F0E6
:1051E0005AFA4FF066320B4B01F068FA01F026FADA
:1051F00080B200F0D5F9012000F0D2F9FF2000F0D4
:10520000CFF9002000F0CCF9BDE81040002000F0FC
:10521000C7B9000066660440F0B50023834C46F62B
:1052200004072146A279898841F66315012A03D132
:10523000B94201D0A94202D1C2B9A94216D1082867
:1052400014D2DFE800F00406080A0C0E1012062043
:105250000CE007200AE0042008E0052006E0012019
:1052600004E0002002E0032000E00220A1F5134C3E
:1052700045F2103245F21056BCF1410C07D0B9424C
:1052800005D0914203D0B14201D0A9427DD1082876
:1052900012D2DFE800F0110406080A0C0E10802379
:1052A0000AE0402308E0C02306E0202304E0602356
:1052B00002E0A02300E0E023B14202D14FF45850B5
:1052C00000E03620914205D0B14203D0A94201D07E
:1052D00043F00803B94201D143F00203194600F03C
:1052E00075F9A288AA420ED0980606D52088618852
:1052F000884208D22180608005E020886188884249
:1053000001D921806080B24249D1608900F04EF914
:10531000002000F045F96089401C80B200F046F999
:10532000002000F03DF96089801C80B200F03EF959
:105330002088401EC0F30F2000F032F96089C01CA5
:1053400080B200F033F92078401EC0B200F028F996
:10535000A08900F02BF9002000F022F9A089401C60
:1053600080B200F023F9002000F01AF9A089801C17
:1053700080B200F01BF96088401EC0F30F2000F0DF
:105380000FF9A089C01C80B200E032E000F00EF9F5
:10539000A078BDE8F040401EC0B200F001B96089BD
:1053A00000F004F9002000F0FBF8002000F0F8F80D
:1053B0002088401EC0F30F2000F0F2F82078401E35
:1053C000C0B200F0EDF8A08900F0F0F8002000F085
:1053D000E7F8002000F0E4F86088401EC0F30F20DA
:1053E00000F0DEF8A078BDE8F040401EC0B200F04A
:1053F000D7B8082812D2DFE800F0040608110A0C1A
:105400000E1030230AE0102308E0202306E03823A2
:1054100004E0282302E0182300E00823032043F4DB
:105420008051BDE8F04000F0D1B800002402002017
:105430002DE9F04102460B46584E1F0A3046B1880E
:105440004089A1F513444FEA1228413C1AD0A1F536
:10545000A644103C16D03446A1F5D04CA57924883A
:10546000A41A641EBCF1040C1FD0A1F5C85CBCF1E9
:10547000630C30D0A1F5A04CBCF5A26C65D0012D19
:105480007DD082E000F092F8404600F089F8D0B27A
:1054900000F086F8B08900F089F8384600F080F80E
:1054A000BDE8F041D8B200F07BB8012D00D1A2B226
:1054B00000F07CF8100A00F073F8D0B200F070F839
:1054C000B08900F073F8384600F06AF8BDE8F041A2
:1054D000D8B200F065B845B300F068F8404600F077
:1054E0005FF8D0B200F05CF83088401EC0F30F20A7
:1054F00000F056F83078401EC0B200F051F8B08984
:1055000000F054F8384600F04BF8D8B200F048F8F4
:105510007088401EC0F30F2000F042F8B078BDE85C
:10552000F041401EC0B200F03BB8A2B200F03EF81D
:10553000002000F035F8002000F032F8100A00F0EA
:105540002FF8D0B200F02CF8D9E700F02FF8404641
:1055500000F026F87089401C80B200F027F8D0B225
:1055600000F01EF8B08900F021F8384600F018F875
:10557000B089401C80B200F019F8D8B200E003E016
:10558000BDE8F04100F00CB8A2B2114600F01EF8E0
:10559000B089BDE8F041194600F018B82402002097
:1055A00001490880704700000008006C014908802C
:1055B00070470000FE07006C02480349008908801C
:1055C0007047000024020020FE07006C024A108091
:1055D000901C018070470000FE07006C38B5012167
:1055E000082000F0C9F94FF40074ADF80040102015
:1055F0008DF8030003208DF8020069460348FCF78C
:1056000068F921460248FCF7EEF938BD0014014064
:10561000000C0140FEE7704770B50F23C2780126E9
:105620000178002A1ED0144A126802F4E062C2F522
:10563000E062120AC2F10404D3404578A5408278A2
:105640001A402A43120101F1E02181F80024007878
:1056500000F01F018E404009800000F1E020C0F8FA
:10566000006170BD01F01F0086404809800000F114
:10567000E020C0F8806170BD0CED00E002490843F5
:1056800002490860704700000000FA050CED00E0D8
:1056900040F2375304E01946491E4A1CFCD1401E13
:1056A0000028F8D1704770B50646002505F1B00016
:1056B000C0B200F0E9F8012000F0E6F8102000F098
:1056C000E3F80024304600F00BF9641CE4B2802CAF
:1056D000F8D36D1CEDB2082DE8D370BD38B50121AB
:1056E000084600F049F901214848FCF745F9012135
:1056F0000C2000F041F948F23800ADF8000003201A
:105700008DF8020010208DF8030069464048FCF730
:10571000E0F8404C69462046FCF7DBF820212046A3
:10572000FCF761F908212046FCF75BF93220FFF70E
:10573000AFFF08212046FCF756F90021AE2000F00B
:105740006BF80021D52000F067F80021802000F0E0
:1057500063F80021A82000F05FF800213F2000F04E
:105760005BF80021D32000F057F80021084600F034
:1057700053F80021402000F04FF800218D2000F068
:105780004BF80021142000F047F80021202000F001
:1057900043F80021022000F03FF80021A12000F092
:1057A0003BF80021C82000F037F80021DA2000F093
:1057B00033F80021122000F02FF80021812000F0A2
:1057C0002BF80021EF2000F027F80021D92000F06D
:1057D00023F80021F12000F01FF80021DB2000F069
:1057E0001BF80021402000F017F80021A42000F051
:1057F00013F80021A62000F00FF80021AF2000F0E0
:105800000BF80020FFF74FFF38BD0000000230000A
:1058100000080140000C01402DE9F0410546DFF889
:1058200060804FF40047002904D039464046FCF719
:10583000DAF803E039464046FCF7D3F80024114E6D
:1058400020213046FCF7CDF8280604D5102130463B
:10585000FCF7C9F803E010213046FCF7C2F820211C
:105860003046FCF7C0F86806050E641CE4B2082C4C
:10587000E6D339464046BDE8F041FCF7B4B8000035
:1058800000080140000C014070B5054608242103C2
:105890001148FCF7A6F8114E20213046FCF7A1F87C
:1058A00000BF15E0280604D510213046FCF79BF810
:1058B00003E010213046FCF794F820213046FCF735
:1058C00092F800BF20213046FCF78BF86806050EE1
:1058D000641EE4B2E6D270BD00080140000C014035
:1058E00070B50546082421031248FCF77CF800BF78
:1058F0002021114E3046FCF774F800BF15E0280651
:1059000004D510213046FCF76EF803E01021304634
:10591000FCF767F820213046FCF765F800BF20212E
:105920003046FCF75EF86806050E641EE4B2E6D267
:1059300070BD000000080140000C014070470000ED
:10594000054A002903D051690143516170475169EB
:10595000814351617047000000100240054A002950
:1059600003D0D1690143D1617047D1698143D161CD
:105970007047000000100240054A002903D09169D9
:1059800001439161704791698143916170470000C3
:105990000010024010B5264A516801F00C01254B59
:1059A000002927D0042927D0082927D0036051686F
:1059B00001F0F0010909204B5C5C0168E1404160A5
:1059C000546804F4E064240A1C5D21FA04F4846041
:1059D000546804F46054E40A1B5DD940C160526805
:1059E00002F44042920B144B1B1F9A5CB1FBF2F184
:1059F000016110BD0360DAE70360D8E7516801F484
:105A00007011536803F48033022404EB914133B1E5
:105A100053689B0307D5094B59430160C7E7074B00
:105A200059430160C3E7034B59430160BFE70000DE
:105A30000010024000127A005800002000093D00CA
:105A4000704700F001B800000CB5002201920092EE
:105A50002748016841F4803101604FF4A063016878
:105A600001F4003100910199491C0191009911B98B
:105A700001999942F3D10168890302D5012100916E
:105A800000E000920099012930D11A490A6842F0D9
:105A900010020A600A6822F003020A600A6842F0F3
:105AA00002020A604168416041684160416841F416
:105AB00080614160416821F47C114160416841F49A
:105AC000E8114160016841F080710160016889015D
:105AD000FCD5416821F003014160416841F00201B9
